:020000040800F2
:10000000A8450020ED010008091A0008F9020008BF
:10001000051A0008A1040008F522000800000000ED
:10002000000000000000000000000000FF010008C8
:10003000A5040008000000003F020008A11A000803
:10004000070200080702000807020008070200086C
:10005000070200080702000807020008070200085C
:10006000070200080702000807020008070200084C
:10007000070200080702000807020008070200083C
:10008000070200080702000807020008070200082C
:10009000070200080702000807020008070200081C
:1000A00007020008A51B0008070200080702000855
:1000B00007020008070200080702000807020008FC
:1000C00007020008070200080702000807020008EC
:1000D00007020008070200080702000807020008DC
:1000E00007020008070200080702000807020008CC
:1000F00007020008070200080702000807020008BC
:1001000007020008070200080702000807020008AB
:10011000070200080702000807020008070200089B
:10012000070200080702000807020008070200088B
:10013000070200080702000807020008070200087B
:10014000070200080702000807020008000000007C
:10015000000000000000000000000000000000009F
:10016000000000000000000000000000070200087E
:10017000070200080702000807020008070200083B
:10018000070200080702000807020008070200082B
:10019000070200080000000007020008070200082C
:1001A000070200080702000807020008070200080B
:1001B00007020008070200080702000807020008FB
:1001C00007020008070200080702000807020008EB
:1001D0000702000807020008DFF80CD000F048F919
:1001E0000048004795040008A845002006488047BD
:1001F00006480047FEE7FEE7FEE7FEE7FEE7FEE70C
:10020000FEE7FEE7FEE7FEE7911B0008D9010008C4
:10021000EFF3108072B6704780F310887047444A3D
:100220001368012B04D04FF001031360414A1060A2
:10023000414A116041484FF0805101607047EFF32F
:10024000108272B63A48016851B34FF00001016064
:100250003848016891B1EFF309811EF0100F08BF13
:1002600021ED108B21E9F00F4FF000041EF0100F6C
:1002700008BF012441F8044D006801602E49096857
:10028000096808C9B1E8F00F002B18BFB1EC108B5A
:1002900081F309884EF0100E002B18BF2EF0100EBF
:1002A00082F310884EF0040E704723490860EFF384
:1002B000148222F0040282F314881E494FF00000D9
:1002C00008601B494FF0010008601D481D49D0F827
:1002D000002041EA0201016018484FF0805101609E
:1002E00019480068006880F3088861B662B6BFF3F9
:1002F0004F8FBFF36F8F70471EF0040F0CBFEFF3EB
:100300000880EFF3098020E9F00F40F804ED40F891
:1003100004ED1EF0040F0CBF80F3088880F30988F9
:1003200000B503F035FC5DF804EB4EF0040E7047A9
:100330008C410020F83E0020003F002004ED00E04A
:1003400020ED00E00000FFFF08ED00E02DE9F05F88
:100350000546002092469B46884606468146402434
:100360001BE0284641464746224600F071F85346B6
:100370005A46C01A914110D311461846224600F041
:1003800058F82D1A67EB01084F462246012000213C
:1003900000F04FF817EB00094E41201EA4F10104B4
:1003A000DFDC484631462A464346BDE8F09FD2B2DC
:1003B00001E000F8012B491EFBD270470022F6E74E
:1003C00010B513460A4604461946FFF7F0FF2046CB
:1003D00010BD10B5044604E00B7800F8013B03B1F2
:1003E000491C521EF8D2204610BD421C10F8011BB9
:1003F0000029FBD1801A704710B5002200E0521C82
:10040000835C8C5CA34201D1002BF8D1D8B2E1B25D
:10041000401A10BD30B505460020034600E05B1CC5
:10042000934205D2EC5CC85C201A01D1002CF6D1B5
:1004300030BD202A04DB203A00FA02F10020704788
:100440009140C2F1200320FA03F319439040704712
:10045000202A04DB203A21FA02F00021704721FA19
:1004600002F3D040C2F12002914008431946704780
:10047000064C074D06E0E06840F0010394E80700F1
:1004800098471034AC42F6D3FFF7AAFEB0560008E6
:10049000D056000880B504F06BFD002080BD000040
:1004A000FEE7000070470000EFF3108072B600BF57
:1004B000FEE700002DE9F04F83B00D68002D00F03D
:1004C000C58000F138424FEAB22241F20047019262
:1004D000C4F600070622002600244FF0010AB842A5
:1004E00008BF0522009209E00D68043435FA0AF2CB
:1004F0000AF1010A06F1020600F0A880AAF1010C37
:10050000012202FA0CFB15EA0B09EDD0D1F80480A8
:1005100008F00305A5F1010EBEF1010F11D887689F
:100520000322CB68B24027EA0202B3401A4382603A
:100530004268C8F3001322EA0B0203FA0CF31A43D1
:100540004260032D1CD0C26803238F68B3409A43D6
:1005500007FA06F31A43022DC26011D16FF00302AD
:1005600002EA5C02024404F01C070F23D2F820E0E8
:1005700003FA07F50B692EEA0505BB402B4313620E
:10058000026803234F68B3409A4307F00303B34064
:100590001A4317F4403F0260A6D041F26003C4F250
:1005A00002031A6840F2004E42F001021A601A6813
:1005B000C4F2010E02F001020292029A2CF0030230
:1005C0004FF608487244CFF6FF7852F8083004F02E
:1005D0000C070F25BD4023EA050C019B009D052B50
:1005E00038BF1D4605FA07F747EA0C0342F8083002
:1005F000DEF808204B6842EA090740F20C4CDD02A5
:1006000058BF22EA0907CEF80870C4F2010CDCF8E2
:1006100000209D0242EA090758BF22EA0907CCF8E8
:100620000070DEF804209D0342EA090758BF22EA61
:100630000907CEF80470DEF80020DB0342EA090760
:1006400058BF22EA0907CEF800704DE703B0BDE8B5
:10065000F08F0000426902EA0103914341EA03413D
:10066000816170471823002A08BF2823C1507047B2
:1006700044F2A010C2F200000068704740F25C0033
:1006800044F2A011C2F20000C2F2000100680A6840
:10069000104408607047000080B5032000F08CF81B
:1006A0000F2000F009F800281CBF012080BD00F0D9
:1006B00053F8002080BD0000B0B586B041F2600163
:1006C000C4F202010A68044642F400620A60096842
:1006D00001A801F4006101910199694600F068FBED
:1006E00000F0A2FB4DF68361C4F21B31A0FB0101B7
:1006F0004FF0FF3000EB914140F2941042F600427F
:10070000C2F20000C4F2010240F2E7330025C0E962
:100710000021C0E90253056100F01EFE0546C0B984
:1007200040F29410C2F2000000F04AFE054680B983
:10073000192000F02DF80F2C0AD81920214600228C
:1007400000F02AF840F26000C2F20000046000E00D
:100750000125284606B0B0BD80B582B041F25800F0
:10076000C4F20200816841F001018160816801F0FA
:10077000010101910199016841F080510160006817
:1007800000F080500090009800F08CF802B080BD1E
:1007900080B501F0B1FD80BD70B514460D4606462A
:1007A00001F0BAFD2946224601F030F901463046F3
:1007B00001F0BAFD70BD000080B501F0C7FD80BD3D
:1007C000A8B347F20001C4F200010A68B0F5007F47
:1007D00061D1D1F8800002F4C06240F48070B2F5BB
:1007E000806FC1F8800020D10868012262F34A209E
:1007F000086040F20000C2F2000000683223584353
:100800004DF68363C4F21B33A0FB030302EB93405A
:100810004B69421E824203D213F480601046F7D126
:100820004869400544BF032070470020704747F2E5
:100830000000C4F200000168D0F8802001F4C0611B
:1008400022F48072B1F5806FC0F88020EDD101688C
:10085000012262F34A21016040F20001C2F200016C
:100860000968322359434DF68363C4F21B33A1FB5D
:10087000031302EB934100BF43694A1E8A4203D22D
:1008800013F480611146F7D14069400544BF03204D
:10089000704700207047022060F34A220A6000205F
:1008A0007047000047F20800C4F20000016841F4FC
:1008B00080410160704700002DE9F04381B004469B
:1008C000807841F288070007C4F2020702D44FF093
:1008D00000096FE057F8300CC0000ED457F8300C08
:1008E0004FF0010840F0805047F8300C57F8300CBA
:1008F00000F080500090009801E04FF0000847F2AF
:100900000006C4F20006306840F480703060FFF7E3
:10091000AFFE05463068C0050AD4FFF7A9FE401BAC
:100920000328F7D34FF00309B9F1000F39D104E0E0
:100930004FF00009B9F1000F33D1B86810F44070DE
:1009400011D0216D88420BD0B868B96820F440708E
:1009500041F48031B960B96821F48031B960B86080
:10096000C00703D112E00020C0070FD0FFF780FEC0
:10097000064641F2893500BFB868800706D4FFF704
:1009800077FE801BA842F7D34FF00309B9F1000F9F
:1009900007D1B868216D20F4407008434FF000097A
:1009A000B860B8F1000F05D057F8300C20F0805037
:1009B00047F8300C2068C10716D181071CD44107C5
:1009C00022D4010728D4C1062ED4810634D441068E
:1009D0003AD4010640D4C10546D481034CD48105E4
:1009E00052D4410558D466E03968626821F00301A9
:1009F000114339608107E2D53968A26821F00C0102
:100A0000114339604107DCD53968E26821F03001D3
:100A1000114339600107D6D53968226921F0C00138
:100A200011433960C106D0D53968626921F440713B
:100A3000114339608106CAD53968A26921F4406141
:100A4000114339604106C4D53968E26921F4405147
:100A5000114339600106BED53968226A21F440414C
:100A600011433960C105B8D53968626A21F4403153
:100A7000114339608103B2D57969A26A21F003017B
:100A8000114379618105ACD53968E26A21F44021CE
:100A90001143396041050ED53968226B21F44011AC
:100AA0001143B2F5801F396005D157F87C1C41F421
:100AB000801147F87C1C01050ED53968626B21F462
:100AC00040011143B2F5800F396005D157F87C1C05
:100AD00041F4801147F87C1CC1040ED53968A26B23
:100AE00021F040711143B2F1807F396005D157F890
:100AF0007C1C41F4801147F87C1C81040ED53968B8
:100B0000E26B21F040611143B2F1006F396005D111
:100B100057F87C1C41F4801147F87C1C41040ED529
:100B20003968226C21F040611143B2F1006F3960E5
:100B300005D157F87C1C41F4801147F87C1C010456
:100B40000ED53968626C21F040511143B2F1805FDB
:100B5000396005D157F87C1C41F4803147F87C1C82
:100B6000C1030ED53968A26C21F040411143B2F1A6
:100B7000804F396005D157F87C1C41F4803147F82B
:100B80007C1C40030ED57869E16C20F440100843CA
:100B9000B1F5001F786105D157F87C0C40F4801046
:100BA00047F87C0C484601B0BDE8F0832DE9F047DA
:100BB000002800F0C88042F2000AC4F2020A04468B
:100BC000DAF800000D4600F00F0088420DD2DAF886
:100BD000000020F00F002843CAF80000DAF80000F7
:100BE00000F00F00A84240F0AE80207841F20808E3
:100BF000C007C4F202080CD14FF000092068810739
:100C000028D4B9F1800F3ED1D8F8000020F0F000D0
:100C100037E06168032940F08A8058F8080C8001A9
:100C200040F1918000F008FF4BF20041C0F2C44156
:100C300088420CD9D8F8000010F0F00F00F08F8037
:100C40002078800703D5A068002800F088804FF046
:100C500000098DE0410705D5D8F8001041F4E061A6
:100C6000C8F80010000706D5D8F80000072161F386
:100C70000D20C8F80000D8F80000A16820F0F000AE
:100C80000843C8F80000DAF8000000F00F00A8429E
:100C90001AD9DAF8000020F00F002843CAF8000043
:100CA000FFF7E6FC064641F2883700BFDAF800009D
:100CB00000F00F00A84207D0FFF7DAFC801BB84213
:100CC000F4D90320BDE8F0872068410707D5D8F89C
:100CD0000010E26821F4E0611143C8F80010000739
:100CE00008D5D8F80000216920F4605040EAC1001E
:100CF000C8F8000000F0ACF8D8F8001045F2B412C3
:100D0000C1F30311C0F60002515C40F2000201F091
:100D10001F0120FA01F140F26000C2F200000068F9
:100D2000C2F200021160FFF7C7FCBDE8F08758F877
:100D3000080C022905D180035CBF0120BDE8F087C3
:100D400004E0400502D40120BDE8F08700F080F8FF
:100D50004BF20041C0F2C44188427FF678AFD8F828
:100D60000000082161F307104FF08009C8F8000067
:100D7000D8F80000616820F003000843C8F80000BC
:100D8000FFF776FC064641F2883700BFD8F800002E
:100D9000616800F00C00B0EB810F3FF42FAFFFF75C
:100DA00067FC801BB842F1D90320BDE8F087000042
:100DB0000F22026041F20802C4F20202136803F03B
:100DC00003034360136803F0F0038360136803F4C4
:100DD000E063C36012684FF4E06303EAD202026189
:100DE00042F20000C4F20200006800F00F00086048
:100DF0007047000040F20000C2F200000068704737
:100E000080B5FFF7F7FF41F20801C4F2020109685B
:100E100045F2C412C1F30221C0F60002515C01F098
:100E20001F01C84080BD000080B5FFF7E3FF41F21D
:100E30000801C4F20201096845F2C412C1F3C221DB
:100E4000C0F60002515C01F01F01C84080BD0000E7
:100E500041F20C01C4F2020151F8040C00F00C0044
:100E6000042842F20040C0F2F40008BF704751F875
:100E7000042C02F00C02082A1AD051F8042C02F0BB
:100E80000C020C2A1CBF002070470A680A68C2F3D3
:100E900003120B680132B0FBF2F0C3F306220968BB
:100EA0005043C1F34161022202EB4101B0FBF1F07A
:100EB000704700002DE9F04182B0002800F0EB807F
:100EC0000446007841F20006C007C4F2020654D17D
:100ED0002078800771D42078000700F19580207871
:100EE000400700F1B3802078800600F1D880E569E2
:100EF000002D00F01A82B06800F00C000C2840F0C1
:100F00003B81012D00F0C780F068216A00F00302E8
:100F10008A4240F0C080626A6FF00F0300F0F00177
:100F200003EB0212914240F0B680A16A00F4FE4247
:100F3000B2EB012F40F0AF80E16A00F07842B2EBF3
:100F4000C16F40F0A880226B0023CFF6E07303EA64
:100F5000025200F4C001A2F50012914240F09B80C1
:100F6000616B4FF07E4202EA016100F0C06001F166
:100F70007E41884240F08F80D7E1B06800F00C01DC
:100F8000F068082959D0032281F00C0122EA000000
:100F90000844B0FA80F040094FD16568B5F5803F4C
:100FA00007D03068B5F5A02F40F0108140F48020C4
:100FB0003060306840F480300EE1B068F16800F0D5
:100FC0000C00042851D001F0030180F00C0081F0E6
:100FD00002010844B0FA80F0400946D1E168306867
:100FE000002900F0B68040F480703060FFF740FBCD
:100FF000054600BF3068400500F1E080FFF738FB90
:10100000401B0228F6D932E16169D6F89400002924
:1010100000F08C8040F00100C6F89400FFF728FB38
:10102000054600BFD6F8940080073FF558AFFFF79C
:101030001FFB401B0228F5D919E1306880037FF5BA
:1010400047AF606800287FF443AF24E0B06DC00074
:1010500041D4B06D4FF0010840F08050B065B06DE4
:1010600000F080500190019837E03068400501D5CC
:10107000E06880B17068216920F0FE4040EA0160BC
:10108000706040F26000C2F200000068FFF714FBDD
:1010900000283FF420AF012002B0BDE8F081A16933
:1010A000D6F89800002900F0B38040F00100C6F89F
:1010B0009800FFF7DDFA0546D6F8980080073FF55F
:1010C00016AFFFF7D5FA401B02284FF00300F3D903
:1010D00002B0BDE8F0814FF0000847F20007C4F20B
:1010E00000073868C00510D4386840F48070386054
:1010F000FFF7BEFA054600BF3868C00505D4FFF704
:10110000B7FA401B0228F7D9B1E0A568012D08D035
:10111000D6F89000052D40F0908040F00400C6F80D
:101120009000D6F8900040F001008EE020F0010021
:10113000C6F89400FFF79CFA054600BFD6F8940065
:1011400080077FF5CCAEFFF793FA401B0228F5D954
:101150008DE020F480703060FFF78AFA054600BF0A
:10116000306840057FF5B7AEFFF782FA401B0228D2
:101170004FF00300F4D9ABE7306820F080703060A6
:10118000FFF776FA022D05460CD100BF30688001CA
:1011900040F18780FFF76CFA401B02284FF00300F4
:1011A000F4D995E73068800140F1B880FFF760FA24
:1011B000401B02284FF00300F4D989E770682169C9
:1011C00020F0FE4040EA0160706084E620F4803048
:1011D0003060306820F480203060FFF749FA002D3D
:1011E000054611D0306880033FF572AEFFF740FA34
:1011F000401B6428F6D93AE0FFF73AFA401B64280E
:101200004FF003003FF664AF30688003F4D45FE62C
:1012100020F00100C6F89800FFF72AFA054600BF43
:10122000D6F8980080077FF562AEFFF721FA401BE1
:1012300002284FF00300F3D94AE720F00100C6F876
:101240009000D6F8900020F00400C6F89000FFF758
:101250000FFA002D054641F2883715D0D6F89000D8
:10126000800715D4FFF704FA401BB842F6D90320D3
:1012700002B0BDE8F08100BFFFF7FAF9401BB842A9
:101280004FF003003FF624AFD6F890008007F3D468
:10129000B8F1000F3FF427AEB06D20F08050B0657C
:1012A00021E6F06848F20C01C0F29F1104F120071A
:1012B00000EA010C8ECF6FF00F00D4E90C5400EB64
:1012C00002100022CFF6E07241EA0C0102EA055258
:1012D0000843A2F500124FF07E4540EA032005EADC
:1012E0000465104305F17E4540EAC7602843F0607D
:1012F000306840F080703060F06840F08070F060DE
:10130000FFF7B6F90446306880010ED4FFF7B0F954
:10131000001B02284FF00300F5D9D9E6F0684FF61C
:10132000FC71CFF6EE610840F060002002B0BDE82D
:10133000F081000080B500F09BFB80BD704700008D
:1013400070470000704700007047000070470000C1
:101350007047000070470000002804BF012070475C
:1013600010B5044690F83D0028B9002084F83C00F0
:10137000204600F023F8022084F83D002068211D5B
:1013800000F018FC012084F8480084F83E0084F83E
:101390003F0084F8400084F8410084F8420084F85B
:1013A000430084F8440084F8450084F8460084F83B
:1013B000470084F83D00002010BD00007047000089
:1013C00090F83D1001291CBF01207047022180F8D0
:1013D0003D10016842F6FF32C868C4F20102914232
:1013E00040F00100C8600DDC40F2FF70C4F2000064
:1013F000814216DCB1F1804F2AD040F20040C4F2A5
:10140000000023E043F6FF70C4F20100814213DCC8
:1014100042F60040C4F20100814219D043F200407C
:1014200012E040F60000C4F20000814210D040F605
:101430000040C4F2000009E045F20000C4F20100DF
:10144000814205D044F20000C4F20100814212D171
:1014500088680722C0F201020240062A4FF000000D
:101460000ED0B2F5803F08BF7047086840F0010019
:10147000086000207047086840F001000860002004
:101480007047000070470000F0B581B00446006866
:10149000C768066906EA0705A90731D4680700F19D
:1014A0008580280700F19B80E80600F1B080E807FE
:1014B00006D020686FF001010161204600F0C6F8F7
:1014C00017F0800718BF16F4025006D020686FF49A
:1014D000025101612046FFF733FF002F18BF16F4B9
:1014E000807019D1680620D4A80627D4E8022ED42B
:1014F000A80235D468023CD4280243D401B0F0BD20
:101500006FF002010161012121778069800742D0DB
:101510002046FFF7B7FF44E020686FF48071016157
:101520002046FFF70BFF6806DED520686FF040010C
:101530000161204600F096F8A806D7D520686FF024
:10154000200101612046FFF7FDFEE802D0D52068AA
:101550006FF4801101612046FFF7F8FEA802C9D59B
:1015600020686FF4001101612046FFF7EDFE68026C
:10157000C2D520686FF4800101612046FFF7E8FEC4
:101580002802BBD520686FF4000101612046FFF7F7
:10159000E1FE01B0F0BD204600F054F8204600F016
:1015A00053F80020207768077FF57BAF20686FF045
:1015B0000401016102212177806910F4407F03D08A
:1015C0002046FFF75FFF05E0204600F03BF820468D
:1015D00000F03AF80020207728077FF565AF2068F3
:1015E0006FF00801016104212177C069800703D0F1
:1015F0002046FFF747FF05E0204600F023F820468D
:1016000000F022F800202077E8067FF550AF206830
:101610006FF01001016108212177C06910F4407F4B
:1016200003D02046FFF72EFF05E0204600F00AF821
:10163000204600F009F800202077E8077FF439AF52
:101640003EE70000704700007047000080B500686A
:1016500042F60041C4F20101884208BFFFF70EF8CC
:1016600080BD00007047000090F88410012904BF7D
:10167000022070472421C0F888100268116813689E
:1016800023F00103136021F0005300214166136031
:101690002022C0F8882080F8841008467047000097
:1016A000B0B5044690F88400012804BF0220B0BD04
:1016B000012084F884002420C4F88800206805688C
:1016C000026822F001020260826822F06062114327
:1016D0008160204600F012FB206805602020C4F8DD
:1016E0008800002084F88400B0BD0000B0B5044636
:1016F00090F88400012804BF0220B0BD012084F8C6
:1017000084002420C4F8880020680568026822F05C
:1017100001020260826822F060421143816020462B
:1017200000F0ECFA206805602020C4F88800002052
:1017300084F88400B0BD000010B5D8B10446D0F8DC
:10174000880028B9002084F88400204600F026F89C
:101750002420C4F888002068A16A026822F00102EF
:10176000026011B1204600F0F3FA204600F0F2FBCF
:10177000012801D1012010BD2068416821F4904169
:101780004160816821F02A018160016841F0010116
:101790000160204600F050FB10BD0000B0B59CB0C9
:1017A0000446002502A854211B95CDE91955CDE921
:1017B0001755FEF703FE206843F60001C4F201014D
:1017C000884201D01CB0B0BD0120CDE9020502A8BD
:1017D000FFF772F8002818BFFEF766FE41F24C00D2
:1017E000C4F20200416941F480414161416901F460
:1017F000804101910199016841F002010160006896
:1018000017A900F0020001900198C0201790022053
:1018100018900020CDE9190007201B9040F20040ED
:10182000C4F60000FEF746FE1CB0B0BD2DE9F04145
:1018300082B00446D0F8880020283FD10E46002907
:101840004FF001004BD01746002A48D04FF0000857
:1018500021201D46C4F89080C4F88800FEF708FFD8
:10186000A4F85470A4F85670A1680746B1F5805FDB
:101870000FD12069002814BF3046B046064608E064
:1018800016F8010B21688862B4F856000138A4F8F4
:101890005600B4F85600A8B12046802100223B46ED
:1018A000009500F0C5FCE8B9002EE9D138F8020B2C
:1018B00021686FF35F2088620026E5E7022002B00E
:1018C000BDE8F0812046402100223B46009500F013
:1018D000AFFC2021C4F88810002818BF032002B0F4
:1018E000BDE8F0812020C4F88800032002B0BDE8E4
:1018F000F081000070B586B0002541F24C000595DE
:10190000CDE90355CDE90155C4F20200016840F666
:10191000000441F0040101600168C4F6000401F014
:101920000401009100990168002241F0200101604A
:1019300001684FF4C04601F0200100910099016850
:1019400041F001010160016801F00101009100997D
:10195000016841F00201016000684FF4C04100F0ED
:101960000200009000982046FEF77CFE01200196C0
:10197000CDE9020501A920460495FEF79BFD06B0BE
:1019800070BD000080B540F2E01043F60001C2F2E5
:101990000000C4F2010100234FF00C0C4FF4E132BF
:1019A00080E80E00C0E90333C0E905C3C0E907338E
:1019B000C0E90933FFF7C0FE002818BFFEF774FD29
:1019C00040F2E010C2F200000021FFF78FFE002875
:1019D00018BFFEF769FD40F2E010C2F200000021DE
:1019E000FFF75EFE002818BFFEF75EFD40F2E01034
:1019F000C2F20000FFF738FE002818BFFEF754FDC2
:101A000080BD0000FEE70000FEE7000000F00700D8
:101A100080F00703042B28BF04234FF0FF3C03385A
:101A20000CFA03F338BF0020994381400CFA00F010
:101A300022EA00000843704741F20C00C4F20200A1
:101A40000168016842F20042C1F3031103680131E9
:101A5000C0F2F402B2FBF1F1C3F306220068514375
:101A6000C0F34160022202EB4000B1FBF0F070478E
:101A7000B0B501380024B4EB106F1CBF0120B0BD1D
:101A80004EF21005CEF2000568604FF0FF300F21D6
:101A900000F04AFC0720AC6028602046B0BD000082
:101AA00080B502F067F902F069FF02F071F980BDBC
:101AB00070B594B006AC20463821FEF77FFC0025B7
:101AC00000200595CDE90355CDE90155FEF778FED7
:101AD000012006904FF48030042107900220032655
:101AE0000F9155210D900E96CDE91010CDE9120001
:101AF0002046FFF7DFF968B90F20CDE9010601A8FC
:101B00000421CDE903550595FFF750F8002804BFDF
:101B100014B070BDFEF7C8FC41F20C00C4F2020024
:101B200050F8041C42F2004201F00C0340F20001A4
:101B3000C0F2F402042BC2F2000118BF082B0ED130
:101B40000A6050F8040C45F2B412C0F30310C0F65A
:101B50000002105C0A6822FA00F0086070470C2B43
:101B6000EFD103680368C3F3031303F1010C0368A7
:101B7000B2FBFCFCC3F30623026803FB0CFCC2F3BC
:101B80004162022303EB4202BCFBF2F2D8E7000001
:101B90004EF68850CEF20000016841F470010160F9
:101BA0007047000080B540F29410C2F20000FFF7C9
:101BB0006BFC80BD80B540F6FF330268C4F20003C1
:101BC00043F2FF3C9842C4F2010C0ADD60452EDC72
:101BD00040F60043C4F20003984234D042F600437A
:101BE0002DE0B0F1804F2ED040F20043C4F200034C
:101BF000984228D040F60003C4F20003984222D055
:101C0000604526DC40F2FF73C4F20003984235DDE4
:101C100040F60003C4F20003984243D040F600436C
:101C2000C4F2000398423DD042F6004336E045F24C
:101C30000003C4F20103984205D043F20043C4F20A
:101C400001039842DCD14B6822F070021A436045D0
:101C5000D8DD44F2FF33C4F20103984216DD44F2AA
:101C60000043C4F2010398421CD045F20003C4F2C1
:101C70000103984216D044F600030FE0B0F1804F04
:101C800010D040F20043C4F2000309E043F20043E5
:101C9000C4F20103984205D044F20003C4F20103E8
:101CA000984203D1CB6822F440721A434B6922F068
:101CB000800E8A6843EA0E03D1F800C00360C26256
:101CC000A0F18042A2F596324FEAB222092AC0F86A
:101CD00028C008D8012303FA02F240F2E5231A4291
:101CE0001CBF09690163012141610169C90708BF7E
:101CF00080BD016921F00101016180BD80B5416EA7
:101D000001B3016845F2E42C8A68C0F6000CC2F306
:101D10004262896845F2EC2E490F1CF80130C0F68A
:101D2000000E1EF80110DB00B3FBF1F31CF80210EB
:101D30001EF80220C900B1FBF2F1A0F86A30A0F849
:101D4000681080BD0121A0F86A10A0F8681080BD5D
:101D500080B5816A0A070CD4CA0715D18A071ED438
:101D60004A0727D4CA0630D48A0639D44A0657D53A
:101D700041E00268D0F838C0536823F4004343EAD6
:101D80000C035360CA07E9D00268D0F82CC053682E
:101D900023F4003343EA0C0353608A07E0D502685A
:101DA000D0F830C0536823F4803343EA0C03536007
:101DB0004A07D7D50268D0F834C0536823F480238B
:101DC00043EA0C035360CA06CED50268D0F83CC083
:101DD000936823F4805343EA0C0393608A06C5D5C5
:101DE0000268D0F840C0936823F4005343EA0C0320
:101DF00093604A0614D50268D0F844C05368BCF515
:101E0000801F23F4801343EA0C03536008D1D2F8F7
:101E100004C0D0F848E02CF4C00343EA0E0353603A
:101E2000090658BF80BD0168C06C4A6822F40022D0
:101E30001043486080BD0000B0B582B00446002069
:101E4000C4F89000FEF714FC2168054609680907EC
:101E50001BD56FF07E4C20464FF4001100222B461C
:101E6000CDF800C000F0E4F978B100BF206850E878
:101E7000000F216820F0800041E80002002AF5D11F
:101E80002020C4F88800032031E020680068400763
:101E900025D56FF07E4C20464FF4800100222B4662
:101EA000CDF800C000F0C4F9C8B100BF206850E808
:101EB000000F216820F4907041E80002002AF5D15B
:101EC000206850E8020F216820F0010041E802027A
:101ED000002AF5D12020C4F88C00032007E0202040
:101EE000C4F88800C4F88C000020E0662067002158
:101EF00084F8841002B0B0BD016851E8001F026888
:101F000021F4907142E80013002BF5D14FF6FE7CCE
:101F1000CEF6FF7C026852E8022F036802EA0C0248
:101F200043E802210029F5D1C16E01290AD100BF81
:101F3000016851E8001F026821F0100142E8001317
:101F4000002BF5D12021C0F88C100021C16641671B
:101F500070470000F0B581B004462269D4E902134D
:101F6000006867690A43E1693A43076846F6F31671
:101F7000CCF6FF760A4337403A43026042684FF29C
:101F8000FF4622F440521A43426048F20002A3691D
:101F9000C4F2000290421CBF276A3B438768C1F22B
:101FA000FF1637403B438360C36A676A23F00F0321
:101FB0003B43C36244F6FF73C4F2000398424FF000
:101FC000100318DC44F20047C4F20007B84227D0DF
:101FD00044F60007C4F20007B84228D044F6004790
:101FE000C4F20007B8423BD141F28803C4F20203B5
:101FF0001B689B092FE045F20007C4F20007B842B6
:102000001CD0904221D043F60007C4F20107B84229
:1020100026D141F28803C4F202031B6880A71BE0AB
:1020200041F28803C4F202031B689B0813E041F2EB
:102030008803C4F202031B681B090CE041F2880309
:10204000C4F202031B681B0A05E041F28803C4F2D4
:1020500002031B689B0A6EA703F0030357F82330A3
:10206000904242F20040C0F2F40011D0B1F5004FAE
:102070001DD1082B00F26F800025DFE803F0056812
:10208000766C6F6C6C6C73000025FEF7B9FE6CE02B
:10209000082B1BD80027DFE803F0051920191D19AC
:1020A000191951000027FEF7ABFEB8B94BE0082B19
:1020B00000F281800025DFE803F0057A887E817ECA
:1020C0007E7E85000025FEF79BFE7EE00020012736
:1020D00020B938E00027FEF7BBFEA0B3616A45F2E5
:1020E000CC12C0F6000232F811206668B0FBF2F1A3
:1020F00006EB460399424FF00105C0F080803303A0
:1021000099427CD800210023FEF720F9090241EA18
:102110001061000210EB560041F10001324600232D
:10212000FEF714F94FF6FF42A0F54071C0F20F021E
:1021300091420AD821683D46C86060E04FF40040F3
:1021400000270028CAD13D4659E0012557E0002567
:10215000FEF76AFE09E00020012506E00025FEF7F3
:1021600077FE02E04FF400400025002847D0616A66
:1021700045F2CC12C0F6000232F811106268B0FBD2
:10218000F1F0510801EB4000B0FBF2F04FF6EF72B6
:10219000A0F11001914208D84FF6F0710140C0F350
:1021A000420022680844D06029E0012527E000258C
:1021B000FEF73AFE09E00020012506E00025FEF7C3
:1021C00047FE02E04FF400400025C0B1616A45F2CD
:1021D000CC12C0F6000232F811106268B0FBF1F0C8
:1021E00000EB5200B0FBF2F04FF6EF72A0F11001DD
:1021F000914203D8216880B2C86000E001254FF009
:1022000001100021A06661672846A16701B0F0BDFA
:1022100000000000040000000200000008000000B0
:10222000010000000400000002000000080000009F
:102230002DE9F04381B004460068C0690840401AA7
:10224000B0FA80F0400990423DD1DDF8208015467B
:102250000E46994608F1010709E000BF2068C069F1
:102260003040801BB0FA80F04009A8422FD1002FE7
:10227000F4D0FEF7FDF90146B8F1000F4FF003006E
:1022800026D0A1EB0901414522D820680168490701
:10229000E4D5402EE2D0802EE0D0C16909071AD4DF
:1022A000C1690905DAD54FF4006101622046FFF7E4
:1022B00023FE2020C4F89000002084F8840003202E
:1022C00001B0BDE8F083002001B0BDE8F08300203C
:1022D00001B0BDE8F083082505622046FFF70CFE3B
:1022E0000020C4F8905084F88400012001B0BDE8BB
:1022F000F0830000FEE70000002848BF704700F0B0
:102300001F01012202FA01F14EF200124009CEF241
:10231000000242F8201070474EF60C50CEF200003A
:102320000068C0F3022070474EF6145300F00F020D
:10233000CEF2000309011A4400F16043B0F1FF3FFF
:10234000C8BF03F564421170704700004EF60C518F
:10235000CEF200010A684FF6FF031A4060F30A222A
:1023600042F0806040F0FD7008607047002804BFB4
:1023700000207047C1B209B101200CE010F47F4188
:1023800002D0090A092006E010F47F0107BF010E00
:102390001920090C112045F2E412C0F60002515C2C
:1023A0000844704780B501F03DFB80BD80B501F069
:1023B00047FB80BD80B5143001F018FD80BD0000E2
:1023C0002DE9F04188B090460D460646002102E016
:1023D0008D421FD00131705C092818BF2028F7D129
:1023E000D9B1304601F0A2F8B8B16C460746204694
:1023F0000021202201F0E6FD30462946224601F068
:10240000F9F850B16946B847C8F80000002008B094
:10241000BDE8F08129460029E3D14FF0FF3008B034
:10242000BDE8F08110B544F28801C2F200010968EC
:1024300004460846FFF79AFF411E43F68870C2F231
:10244000000050F831002160143810BDB0B502F022
:1024500011FA0446FDF7DCFE0546204601F022FF96
:1024600004F1440002F034FB042084F834002046D8
:1024700002F086F92846FDF7CFFE01F05FFEB0BD01
:102480002DE9F04782B00446DDF83090DDE90A8A94
:1024900014301D4616460F4601F0B0FC2846232195
:1024A0004246C4E90876C4E90A5801F08BFD04F1FC
:1024B00020030FCB1A4442F24D43043AC0F6000306
:1024C00001F036FC42F2FD42E061002704F14400D5
:1024D000C0F600022146234684F835A0C4E90E79EF
:1024E000C4F84090276384F83470C4E91C770097DF
:1024F000019702F001FB02B0BDE8F087B0B50446D9
:10250000FDF786FE05466FF00100206304F114001C
:1025100001F0D2FC204601F08FFE2846FDF77CFE3C
:1025200001F00CFEB0BD000080B5DDF808C000F180
:102530001C0E0CF0FE0C80F809C014304FF0000C9B
:102540008EE80E1001F05EFC80BD000080B51430F6
:1025500001F0BAFC80BD000010B54EF629541CA055
:10256000CEF2000401F022FC21781CA001F01EFC38
:102570002078C00702D01FA001F018FC2078800747
:1025800002D51FA001F012FC2078400702D51FA041
:1025900001F00CFC2078000702D520A001F006FC19
:1025A0002078C00602D520A001F000FC94F90000BC
:1025B000B0F1FF3F06DD45F2AE40C0F6000001F08D
:1025C000F5FB10BDD4F80F1019A001F0EFFB10BD02
:1025D000627573206661756C743A0A005343425FFA
:1025E000434653525F424653523A30782530325870
:1025F000200000004942555345525220000000007F
:10260000505245434953455252200000494D5052C3
:10261000454349534552522000000000554E535443
:102620004B4552522000000053544B45525220005B
:102630005343422D3E424641523A253038580A0013
:1026400080B502A001F0B2FB002080BD1B5B324AC6
:102650001B5B480010B502281DD14C6845F2E541CE
:10266000C0F600012046FDF7C7FE58B345F20751FA
:10267000C0F600012046FDF7BFFE38B319A1204681
:10268000FDF7BAFE30B345F2F541C0F60001204631
:10269000FDF7B2FE10B345F20640C0F6000001F0AF
:1026A00085FB11A001F082FB12A001F07FFB18A0B6
:1026B00001F07CFB1DA001F079FB23A001F076FB6B
:1026C000002010BD00F0B0FC002010BD00F070FD37
:1026D000002010BD00F010FC002010BD00F074FBC5
:1026E000002010BD73656D005B6F7074696F6E7351
:1026F0005D3A0A0020202020746872656164202DF4
:10270000206C69737420746872656164730A0000D8
:102710002020202074696D6572202D206C697374EF
:102720002074696D6572730A00000000202020206B
:1027300073656D202D206C6973742073656D6170F5
:10274000686F7265730A0000202020206D73677126
:1027500075657565202D206C697374206D657373C4
:10276000616765207175657565730A0003680246C7
:102770000A290CD14CF6CD40CCF6CC40A3FB00018D
:10278000C90801EB8100A3EB40001160704703F022
:102790000F0019091160704710B544F29810C2F289
:1027A0000000006890F82100800706D440F20C1069
:1027B000C2F20000002101701DE040F29010C2F250
:1027C0000000016840F20C14C2F2000439B140F27A
:1027D0000C10C2F200008022FDF7FBFD06E0002095
:1027E000207147F26D30C2F2680020602046FDF78C
:1027F000FCFD3E21215240F20C10C2F2000010BD3F
:1028000080B501F079F980BD44F29811C2F200015F
:10281000096800F0010091F8212002F0FD0242EA6F
:10282000400081F82100704740F2FC02C2F2000231
:10283000106040F20010C2F200000160704700001A
:10284000B0B582B045F2446045F2B061C0F6000018
:10285000C0F60001FFF7E8FF0120782101F082F8BF
:1028600044F29815C2F200052860F8B10A2015213B
:10287000CDE9001042F6E50110A0C0F600010022EB
:102880004FF48063002401F03DFF2A6805460DA146
:1028900010460022002301F027FD0120FFF7B4FFBE
:1028A0004DB1284602F010F8002404E007A001F022
:1028B0007DFA4FF0FF34204602B0B0BD74736865F6
:1028C0006C6C000073687278000000006E6F206D01
:1028D000656D6F727920666F72207368656C6C0A23
:1028E0000000000044F29819C2F20009D9F8000073
:1028F00090F8211041F0010180F82110FFF74CFF02
:1029000040F20C14C2F20004204601F04FFA45F2E6
:102910000D5645F2AE474FF001084FF0000AC0F6E1
:102920000006C0F600074FF0020B01E080F820809F
:10293000FFF766FF0028FBD40546D9F800001B2DE1
:10294000F4D090F82010022908D0012940F07180BD
:102950005B2D40F06C8080F820B0E9E7A5F14101E3
:10296000022980F820A0E3D3442D00F28D80DFE817
:1029700015F04500D000D000D000D000D000D0002D
:10298000D00090000C016C00D000D0006C00D00092
:10299000D000D000D000D000D000D000D000D000B7
:1029A000D000D000D000D000D000D000D000D000A7
:1029B000D000D000D000D000D000D000D000D00097
:1029C000D000D000D000D000D000D000D000D00087
:1029D000D000D000D000D000D000D000D000D00077
:1029E000D000D000D000D000D000D000D000D00067
:1029F000D000D000D000D0004600580198E7B0F8D1
:102A00007610B0F874209142BFF492AF084490F869
:102A1000221045F20F50C0F6000001F0C7F9D9F8B6
:102A20000000B0F876100131A0F8761080E780F849
:102A300020A00D2D28D8DFE805F0076C6C6C6C6CBD
:102A40006C6C2CA8086C6C0872E790F82100C00729
:102A500002D0384601F0AAF9D9F80000B0F8741095
:102A6000223000F02FFDFFF797FE204601F09EF97F
:102A7000D9F8000000212230512201F0A3FAD9F840
:102A80000000C0F874A053E7FF2D3FF451AF7F2D35
:102A90003FD1B0F8761000293FF44AAFB0F8742067
:102AA0000139531E9AB2A0F874308BB29A42A0F842
:102AB000761040F2AB80C11801F122002331D21A06
:102AC00001F062FAD9F80000B0F87410084480F8F8
:102AD00022A0D9F80000B0F87610084400F12201D5
:102AE00059A001F063F9D9F80010B1F87600B1F8F7
:102AF000741088423FF61CAF451E00BF304601F0FF
:102B000055F9D9F800000135B0F874008542F5D3C5
:102B10000EE7B0F87410502928BFA0F874A0B0F8E0
:102B20007630B0F874209A424ED9C11801F12300D2
:102B30002231D21A01F028FAD9F80000B0F8761044
:102B4000084480F82250D9F8000090F82110C907F5
:102B500007D0B0F87610084400F122013CA001F043
:102B600025F9D9F80000B0F87650B0F87400854225
:102B70003AD200BF304601F019F9D9F8000001350A
:102B8000B0F874008542F5D32EE0D9F80000B0F813
:102B9000761059B1002500BF304601F007F9D9F889
:102BA00000000135B0F876108D42F5D3223002F0E6
:102BB000F5F9D9F8005005F12200FDF716FCA5F84B
:102BC0007400A5F87600B3E6104480F82250D9F8D6
:102BD000000090F82100C00706D045F20F50C0F663
:102BE0000000294601F0E2F8D9F80000B0F87410AE
:102BF000B0F876200131A0F8741089B20132502962
:102C0000A0F8762028BFC0F874A091E60DA001F0CE
:102C1000CDF8D9F80000B0F87410084480F822A06C
:102C200086E6B0F8760000283FF482AE304601F028
:102C3000BDF8D9F80000B0F876100139A0F8761088
:102C400076E600BF08200800082573202008000051
:102C50002573000010B54EF62C54CEF20004206807
:102C6000800702D510A001F0A1F82068400011D51E
:102C700014F8030C002818BFFFF76EFC14F8040CBE
:102C8000002818BF00F062FB34F8020C002818BFBF
:102C900002F010FA2068B0F1FF3FC8BF10BD08A0D5
:102CA00001F084F810BD00BF6661696C6564207630
:102CB0006563746F722066657463680A00000000C3
:102CC0006465627567206576656E740A00000000B1
:102CD00080B582B042F605514FF00A0C08A0C0F64C
:102CE000000100224FF40073CDF800C0CDF804C0FD
:102CF00001F008FD01F0E8FD002002B080BD00BF3A
:102D00006C65640040F60004C4F6000407A500BF2B
:102D100020464FF40051FDF79DFC284601F046F88F
:102D20004FF47A7001F032FDF2E700BF68656C6C19
:102D30006F2072747468726561640A0070B506462B
:102D4000084614460D4601F0BBF904303572C6E959
:102D5000000408200021C6E9030170BDF0B581B070
:102D60000646C86800240C6150B3087A0D46E0B1ED
:102D700034462F68002E08BF3C46FDF749FA36B1AD
:102D800014F8041C2A7A01F07F01914215D16A6877
:102D9000002100BF2468BC4209D0EB684E1C42F8F9
:102DA00021409E423146F5D103E0002408E0002492
:102DB0000E46FDF731FA2E6102E0FDF72DFA0024F0
:102DC000204601B0F0BD00002DE9F04F91B004ADF8
:102DD0000CA806212A46FFF7B1FF45F2F5422FA0C5
:102DE000C0F60002082100F0E1FF00F089FC32A0EB
:102DF00000F0DCFF002002E0039800284AD00CA974
:102E0000FFF7ACFF109903900129F5DB9DF838908E
:102E1000DDF840A04FF0000B0DE000BF2CA0082112
:102E200008223B46CDF80080019400F0BFFF0BF173
:102E3000010BD345E0DA55F82B40FDF7E9F914F81A
:102E4000041C01F07F06FDF7E7F94E45EFD104F1D0
:102E500008063046A4F10C0700F0FAFFB4F8188019
:102E60000446304601F006F8002C0446D6D11DA0D9
:102E7000082108223B46CDF80080019400F096FF1F
:102E8000304602F0A5F845F2AE40C0F6000000F072
:102E90008DFFCCE7002011B0BDE8F08F252D2A2E44
:102EA0007320656E7472792073757370656E64201B
:102EB0007468726561640A00202D2D2D2D20202D4F
:102EC0002D2D2D2D2D2D2D2D2D2D2D2D2D0A0000AF
:102ED000252D2A2E2A732025303464202025640ACB
:102EE00000000000252D2A2E2A732025303464206E
:102EF0002025643A000000002DE9F04F91B004ADA8
:102F00000CA802212A46FFF719FF2FA035A208219D
:102F100000F04CFF00F0F4FB35A000F047FF00206C
:102F200003E000BF039800284AD00CA9FFF716FF62
:102F3000109903900129F5DB9DF83890DDF840A049
:102F40004FF0000B0DE000BF2FA0082108223B46E8
:102F5000CDF80080019400F029FF0BF1010BD3455F
:102F6000E0DA55F82B40FDF753F914F8041C01F092
:102F70007F06FDF751F94E45EFD104F108063046C2
:102F8000A4F10C0700F064FFB4F81080044630464A
:102F900000F070FF002C0446D6D11FA008210822A3
:102FA0003B46CDF80080019400F000FF304602F06F
:102FB0000FF845F2AE40C0F6000000F0F7FECCE797
:102FC000002011B0BDE8F08F252D2A2E7320762029
:102FD000202073757370656E642074687265616417
:102FE0000A00000073656D6170686F726500000013
:102FF000202D2D2D202D2D2D2D2D2D2D2D2D2D2D1B
:103000002D2D2D0A00000000252D2A2E2A732025A3
:103010003033642025640A00252D2A2E2A732025AA
:103020003033642025643A002DE9F04FB1B00DF142
:10303000900A2CA801215246FFF780FE45F2274056
:1030400045F2E542C0F60000C0F60002082100F09B
:10305000ADFE00F055FB3BA000F0A8FE002002E012
:103060000398002869D02CA9FFF778FE30990390C7
:103070000129F5DB9DF8B870309D4FF00009CDE9CE
:10308000045706E03046FDF7C7F809F10109A945E4
:10309000E6DA5AF82940FDF7BBF814F8041C064696
:1030A00001F07F01B942EDD1A4F10C0706A8394621
:1030B000782200F023FF3046FDF7AEF894F829603F
:1030C00030A0082108223B46009600F06FFE94F8DD
:1030D0002800F12100F0070080F00400C140C9077A
:1030E00004D02BA151F8200000F060FEE069411EE1
:1030F00011F8010F2328FBD0D4E907362269711A91
:10310000606A9D19194464235943D4F834B0B1FB63
:10311000F6F7A5EB020801F05BFA044645F26B40B6
:10312000C0F60000414632463B46CDF800B001945F
:1031300000F03CFEDDE90457A7E7002031B0BDE810
:10314000F08F00BF202D2D2D20202D2D2D2D2D2D4C
:103150002D202D2D2D2D2D2D2D2D2D2D202D2D2DB9
:103160002D2D2D2D2D2D2D20202D2D2D2D2D2D20B6
:10317000202D2D2D2D2D2D2D2D2D2D202D2D2D0ABC
:1031800000000000252D2A2E2A73202533642000FC
:10319000C6540008CF540008CF540008CF5400088C
:1031A000BD540008CF540008EC540008FE54000839
:1031B0002DE9F04F91B004AD0CA80A212A46FFF783
:1031C000BDFD45F2075234A0C0F60002082100F010
:1031D000EDFD00F095FA3DA000F0E8FD45F2B047A6
:1031E00045F21D460020C0F60007C0F6000602E0CA
:1031F0000398002842D00CA9FFF7B0FD1099039066
:103200000129F5DB9DF83880DDF840904FF0000A89
:1032100004E000BF0AF1010ACA45E9DA55F82AB00C
:10322000FCF7F6FF1BF8041C01F07F04FCF7F4FF29
:103230004445EFD1DBE90604ABF10C0300902FA06D
:1032400008210822019400F0B1FD1BF8030C45F29F
:10325000D841C0073846C0F6000108BF084600F054
:10326000A5FD1BF8030C45F2914180073046C0F6DE
:10327000000158BF084600F099FDCBE701F078FB4C
:10328000014645F29B40C0F6000000F08FFD002093
:1032900011B0BDE8F08F00BF252D2A2E73202070BD
:1032A0006572696F64696320202074696D656F754C
:1032B0007420202020616374697661746564202025
:1032C0002020206D6F64650A00000000202D2D2D48
:1032D0002D2D2D2D2D2D2D202D2D2D2D2D2D2D2D2B
:1032E0002D2D202D2D2D2D2D2D2D2D2D2D2D202D28
:1032F0002D2D2D2D2D2D2D2D0A000000252D2A2EB2
:103300002A73203078253038782030782530387886
:1033100020000000FDF7C0F9FEF7CAFBFEF7EAFA4D
:10332000FEF730FB40F60004C4F6000420464FF4DC
:103330008041FDF78FF94FF4FA7001F077FAF5E765
:1033400080B500F035FBFFF7E5FF80BD10B54EF608
:10335000285419A0CEF2000400F028FD21781BA00B
:1033600000F024FD2078C00702D01EA000F01EFD52
:103370002078800702D51EA000F018FD20780007F5
:1033800002D51EA000F012FD2078C00602D51EA0B6
:1033900000F00CFD94F90000B0F1FF3F06DD45F2AE
:1033A000AE40C0F6000000F001FD10BDE16819A0BC
:1033B00000F0FCFC10BD00BF6D656D206D616E619D
:1033C0006765206661756C743A0A00005343425F7A
:1033D000434653525F4D4653523A30782530325867
:1033E000200000004941434356494F4C2000000053
:1033F0004441434356494F4C200000004D554E5325
:10340000544B4552522000004D53544B45525220CC
:10341000000000005343422D3E4D4D41523A2530AD
:1034200038580A002DE9F04704460078A8B340F266
:10343000FC0040F2001AC2F20000C2F2000A076863
:10344000DAF8000087422CD200250FF274084FF002
:1034500000090FE04846314601F0FCFDA842B8BF24
:1034600005464046314600F0A1FCDAF800000C3772
:10347000874219D23E682046FCF7B7FF0246204635
:103480003146FCF7C7FF0028EFD1002DE2D13046CE
:10349000FCF7ABFF0546B146DCE700F06FF8BDE88E
:1034A000F0874FF000090025B9F1000F08BFBDE813
:1034B000F087204649462A4601F0B8F8BDE8F08773
:1034C00025730A0010B582B049B10446207820283F
:1034D00018BF092806D1013904F10104F6D10020F2
:1034E00002B010BD01AA2046FEF76AFF78B1A01E07
:1034F0008178013011F0DF0FFAD10021417005A071
:10350000214600F053FC4FF0FF3002B010BD01988F
:1035100002B010BD25733A20636F6D6D616E64203B
:103520006E6F7420666F756E642E0A002DE9F0418F
:1035300040F2FC02C2F20002176840F20012C2F22E
:10354000000213689F4216D2D2F800800C4605464E
:1035500003E000BF0C3747450DD23E682946304690
:103560002246FCF757FF0028F4D1305D0028F1D146
:10357000B868BDE8F0810020BDE8F08170B513A007
:1035800000F014FC40F2FC0040F20015C2F2000012
:10359000C2F200050068296888420ED2A0F10C062C
:1035A00011A400BF56F80C1F2046726800F0FEFB05
:1035B000286806F10C018142F4D345F2AE40C0F612
:1035C000000000F0F3FB002070BD00BF52542D54EA
:1035D0006872656164207368656C6C20636F6D6DE3
:1035E000616E64733A0A0000252D313673202D2058
:1035F00025730A002DE9F041904600294FF00002A2
:103600004FF000044FD0002603E000BF00F8012C6B
:103610000136013010F8013C202B18BF092B01D1D5
:103620008E42F3D3082C41D28E423CD2222B28D199
:1036300048F82400731C07788B424FF0000538BF10
:103640000125222F04F101040FD165B300F8012BED
:10365000023626E01E4610F8017F01338B424FF000
:10366000000538BF0125222FEFD08B42EDD25C2F11
:10367000F0D1074617F8015F222D04BF3846B31C6E
:10368000E8E7013848F8240001340378092B18BF13
:10369000202B04D08E4202D201300136F5E78E4253
:1036A00001D28E42B5D32046BDE8F0810BA000F0D8
:1036B0007DFB002511A600BF58F82510304600F00C
:1036C00075FB0135A542F7D345F2AE40C0F60000C8
:1036D00000F06CFB2046BDE8F08100BF546F6F2006
:1036E0006D616E7920617267732021205765206FAC
:1036F0006E6C79205573653A0A000000257320002E
:10370000B0B56FF0070503A4204600F04FFB01356C
:10371000FAD3B0BD2D00000080B5D0F828C04A68AB
:103720000CEB02038B4214D01A78D20711D1C26A73
:1037300093420ED0026B4FF0000E9A4208BF016315
:103740005A68C3F800E04A605A68A1EB0C0362446F
:103750009360D1F808E00CEB0E028A4208BF80BDEE
:103760001378DB070BD1036B8B4208BF02634868F9
:103770000023506048680B606044C0F808E080BDDA
:103780002DE9F04F87B0DDF848A004465FEA4A60B3
:1037900045F2166045F2B55BC0F60000C0F6000BBE
:1037A00058BF83465FEACA600D4648BF2AF0010A47
:1037B0005FEACA704FF030011E4608BF20215FEA61
:1037C0008A70069201D400200DE0B2F1FF3F07DDC0
:1037D0005FEA4A705ABF202000EA8A002B2002E0EC
:1037E000504206902D20019006980091A8B10698AD
:1037F000C0B14FF0000906AF0DF108083846314658
:10380000FEF7B4FF1BF80010069A09F1010008F852
:103810000910002A8146F1D105E030208DF808001A
:10382000012000E00020119E109BB0423246C8BF2C
:1038300002461AF0110FA3EB020105D0DDF804C017
:10384000BCF1000F24D129E0DDF804C00027BCF151
:10385000000FE64618BF4FF0010E0029C8BF012730
:1038600007EA0E07C91B012959DB79421944891A55
:10387000202300BFAC42A1F1010138BF2370002911
:1038800004F10104F6DC4FF0FF31BCF1000F05D06C
:10389000AC4238BF84F800C0013901345FEACA6322
:1038A0000DD4012937DB009BAC42A1F1010138BFE7
:1038B0002370002904F10104F6DC4FF0FF31B0421F
:1038C00009DA3023AC42A2F1010238BF23709042E2
:1038D00004F10104F6DB66B101280ADB02AA013A11
:1038E000AC423CBF135C237004F101040EB10138FB
:1038F000F6DC01290BDB481C202100BFAC42A0F103
:10390000010038BF2170012804F10104F6DC2046D3
:1039100007B0BDE8F08F0139B042D2DBDBE70139F7
:10392000BCF1000FB4D1B9E780B500F027F980BD34
:1039300080B582B00A2043F241314FF0140C009060
:1039400006A0C0F6000100224FF48063CDF804C049
:1039500000F0D8FE00F0B8FF02B080BD6D61696E66
:1039600000000000B0B501FB00F4204600F0B4FAFE
:10397000054620B128460021224600F023FB2846B8
:10398000B0BD0000B0B545F2346445F22C60C0F61D
:103990000004C0F60000A04228BFB0BD45F22C656F
:1039A000C0F6000555F8040B8047A542FAD3B0BD18
:1039B000B0B545F2406445F23460C0F60004C0F68C
:1039C0000000A04228BFB0BD45F23465C0F6000536
:1039D00055F8040B8047A542FAD3B0BD70B500F08E
:1039E000B7FE002808BF70BD044603E000F0B0FE3B
:1039F0000446A8B1266F204600F09CFB054601282E
:103A000002D1204600F04CFB0EB12046B047002DFD
:103A1000ECD1A06A00F034F8204600F02FFBE5E777
:103A200070BD000080B5FCF7F3FB43F68471C2F271
:103A300000010A8801320A80FCF7EEFB80BD00001D
:103A400080B5FCF7E5FB43F68471C2F200010A88F9
:103A5000013A13B2002B0A8002DDFCF7DDFB80BDCA
:103A600000220A80FCF7D8FB40F2F020C2F20000EE
:103A70000068002808BF80BD00F060FB80BD00002A
:103A8000002808BF704710B50446FEF78BFC20469F
:103A900000F00AFDFEF78AFCBDE810407047000008
:103AA00040F2F820C2F200007047000040F2F82017
:103AB000C2F2000000F570507047000010B5FCF72E
:103AC000EBFDFDF7F5FFFEF727F8FDF793F944F658
:103AD000D351C1F26201A0FB01018809FDF72AFC64
:103AE000FFF750FFFFF7DCFF0446FFF7DFFF01465B
:103AF000204600F0B5FD10BD80B540F26800C2F26E
:103B000000000068C169890605D40A2000F08EFE15
:103B1000FF20C0B280BD406AC0B280BDF0B581B0A8
:103B200004460D208DF8030040F26800C2F2000048
:103B3000002180F88410204600F070FDE0B140F2D2
:103B400068060546C2F200060DF103070AE000BF51
:103B50003046214601220123FDF768FE013D04F1B4
:103B6000010409D020780A28F2D1304639460122D2
:103B70000123FDF75BFEEBE701B0F0BD4EF60C5004
:103B80000421CEF20000C0F2FA510160704700003B
:103B900010B540F2F421C2F200010968044629B1CF
:103BA00004F128008847002808BF10BD616C45F269
:103BB0009850C0F6000000F0F9F8A16A45F257509D
:103BC000C0F6000000F0F2F8E16A45F26450C0F679
:103BD000000000F0EBF8216B45F27150C0F60000D8
:103BE00000F0E4F8616B45F27E50C0F6000000F092
:103BF000DDF8A16845F28B50C0F6000000F0D6F861
:103C0000E16823A000F0D2F8216925A000F0CEF8E9
:103C1000616927A000F0CAF8A16929A000F0C6F8E0
:103C2000E1692BA000F0C2F8216A2DA000F0BEF8D7
:103C3000616A2FA000F0BAF8A16B31A000F0B6F8CD
:103C4000E16B33A000F0B2F8216C35A000F0AEF8C3
:103C50002078400706D445F21250C0F6000000F06C
:103C6000A5F808E000F006FE014645F22C50C0F62B
:103C7000000000F09BF82078C00605D445F24950BA
:103C8000C0F6000000F092F8FEF7E4FFFEE700BF88
:103C90007230353A203078253038780A000000003C
:103CA0007230363A203078253038780A000000002B
:103CB0007230373A203078253038780A000000001A
:103CC0007230383A203078253038780A0000000009
:103CD0007230393A203078253038780A00000000F8
:103CE0007231303A203078253038780A00000000F0
:103CF0007231313A203078253038780A00000000DF
:103D00007231323A203078253038780A00000000CD
:103D1000206C723A203078253038780A0000000094
:103D20002070633A203078253038780A000000008F
:103D300070B5043222F0070E4BF6EF64AEF1440C7E
:103D40006FF04702CDF6AD640EEB02050432161D8E
:103D50006C60F9D100224FF080744EE908124EE9F0
:103D600006224EE904234EE9020460464EF8442C34
:103D700070BD000080B5FCF74BFA43F6FC61C2F25F
:103D800000010A7801320A70FCF746FA80BD000093
:103D900080B5FCF73DFA43F6FC61C2F200010A78F7
:103DA000013A0A70FCF738FA80BD000083B070B5A4
:103DB00081B043F60474844605A8C2F200040EC024
:103DC00005AB20467F21624600937F2600F004FF6A
:103DD00005467F28204628BF3546FFF79FFE284628
:103DE00001B0BDE8704003B070470000C0E90000BA
:103DF00070470000C0E9000070470000C0E9000003
:103E000070470000C0E900007047000040F2540114
:103E1000C2F200010A6850600260086041607047A9
:103E2000026851600A600160486070470268516032
:103E30000A60016048607047026851600A60016072
:103E400048607047426811604A604160086070478E
:103E50000168081AB0FA80F0400970470168081A32
:103E6000B0FA80F0400970470168081AB0FA80F093
:103E70004009704701464FF0FF300A461268013092
:103E80008A42FBD170470000D0E900124A604268C4
:103E90001160C0E900007047D0E900124A60426832
:103EA0001160C0E900007047D0E900124A60426822
:103EB0001160C0E900007047D0E900124A60426812
:103EC0001160C0E900007047D0E900124A60426802
:103ED0001160C0E90000704710B50446FEF762FAB1
:103EE00044F29C10C2F200000068214600F06EFA15
:103EF0000446FEF75BFA204610BD000080B5102A8C
:103F000003D341EA00039B070DD08446002A08BF73
:103F100080BD0139ACF1010311F801CF013A03F87A
:103F200001CFF9D180BD102A1FD3A1F1100EA0F14D
:103F3000100394465EF8101FACF1100C43F8101FEC
:103F4000DEF80410BCF10F0F5960DEF8081099601C
:103F5000DEF80C10D960EDD802F00F020EF110015E
:103F600003F1100C042AD1D302E08446042ACDD3F5
:103F7000134600BF51F804EB043B032B4CF804EB51
:103F8000F8D802F00302C1E781420DD28B188342B8
:103F90000AD9AAB1A1F1010C431E00BF1CF80210FE
:103FA0009954013AFAD10BE0002A08BF7047013951
:103FB000431E00BF11F801CF013A03F801CFF9D138
:103FC0007047000010B50446042A5FFA81FC01D353
:103FD000A00707D020461AB111466246FCF7E7F960
:103FE000204610BD4CEA0C20102A40EA004111D3B3
:103FF000A4F11000134600BF103B40F8101F0F2B18
:10400000C0E90111C160F7D802F00F021030042A94
:10401000E1D302E02046042ADDD31346043B032B00
:1040200040F8041BFAD802F00302D4E72DE9F0416E
:104030008846074600F044F80546C068FFF74CFF85
:104040004FF00006B8B1EA6800210446FFF7BAFF56
:104050002046414608222772667200F0E7FAFCF714
:10406000D7F80646281D04F10C01FFF7D9FE3046AB
:10407000FCF7D2F826463046BDE8F081B0B50446DC
:1040800000202072FCF7C4F8054604F10C00FFF78D
:1040900003FF2846FCF7C0F82046FFF7F1FCB0BD4F
:1040A000B0B5044600202072FCF7B2F8054604F1D2
:1040B0000C00FFF7F1FE2846FCF7AEF8B0BD00009B
:1040C00040F204020021C2F2000200BF535C8342AE
:1040D00004BF501870471031502904BF00207047AA
:1040E000F4E70000F0B581B00446084615460F46D7
:1040F000FFF7E6FF0646FFF795FC0436304600BFA3
:104100000068B042FCD1FFF79BFC47F080002072B2
:1041100020462946082200F089FAFCF779F805467E
:1041200004F10C013046FFF77BFE2846FCF774F8DB
:1041300001B0F0BD007AC00970470000F0B581B051
:10414000FCF766F843F68471C2F200010988044660
:1041500019B12046FCF760F86CE044F28800C2F226
:1041600000000068B0B16846FEF75CF940F2F02745
:10417000C2F200073D68064695F8341001F00702C8
:10418000032A0BD195F83500009A82422CD90020E1
:104190002E4630E0002000284CD1DAE70020AE4265
:1041A0002FD0009940F2EC22C2F2000211703E6062
:1041B00010B1284600F040F8304600F073F896F849
:1041C000340000F0F800033086F8340043F6FC6059
:1041D000C2F20000017805F11C00002906F11C0163
:1041E0001CD0FCF71CF817E0504001F00802104307
:1041F00014BF01202E4601F0F70185F83410AE42BD
:10420000CFD1284600F04EF8386890F8341001F00D
:10421000F801033180F83410002005E0FBF7FFFFC0
:104220002046FBF7F9FF0220002808BF00200028E5
:104230003FF48FAF01B0F0BDB0B50546FBF7E8FF26
:10424000044640F2F020C2F20000006895F83410F5
:10425000A84201F0F80012D040F0010085F83400C7
:1042600095F8350043F68872C2F20002090702EBA6
:10427000C00005F1140107D4FFF7D8FD06E040F0B7
:10428000030085F8340009E0FFF7DCFD44F2880103
:10429000C2F20001A86B0A68104308602046FBF7D1
:1042A000BBFFB0BDB0B50546FBF7B2FF044605F154
:1042B0001400FFF7F9FD95F8350043F68871C2F256
:1042C000000101EBC000FFF7C9FD40B144F28801D5
:1042D000C2F20001A86B0A6822EA000008602046CA
:1042E000FBF79AFFB0BD000070B515460A460221E3
:1042F0001C460646FFF7F6FE3046FEF75BF8002048
:10430000B583747270BD000080B582B045F2A550CF
:10431000C0F60000FFF74AFD09A0FFF747FD14A013
:104320000FF2400C009015A0042101220123CDF8CA
:1043300004C0FFF73BFD1AA0FFF738FD02B080BDB7
:104340002D205254202D2020202020546872656199
:1043500064204F7065726174696E6720537973745D
:10436000656D0A0030333A33353A323100000000CF
:104370004D6172203232203230323500202F207CC5
:10438000205C202020202025642E25642E256420FA
:104390006275696C642025732025730A0000000093
:1043A0002032303036202D203230323220436F70B0
:1043B0007972696768742062792052542D5468724A
:1043C000656164207465616D0A0000002DE9F041AB
:1043D00081B1033121F00301D0F834C00C2998BF1A
:1043E0000C218C4506D3826A036BACEB01049B1A4B
:1043F000A34202D90020BDE8F081D0F828E00EF1F8
:10440000040502E0EB58A342F4D81EF80320D207BB
:10441000F8D10EEB0308D8F8046003F10C07F21B87
:104420008A42EFD301F11804A24205D2F11AD0E971
:10443000082311448B4218E001F10C0439440EEBBF
:10444000010220F001055660C8F804104EF8015032
:1044500055680CF10C07BD4293601CBF0EEB0502C2
:104460009160D0E9081221448A42016238BF41625A
:10447000016B40F001024145C8F8002010D1016BEA
:104480000A78D2070CD0C36A99421FBF4A680EEB64
:10449000020101631EF8022018BF5FEAC272F3D165
:1044A00008F10C00BDE8F081002808BF704780B516
:1044B0000146024651F80C0D20F00100036B086024
:1044C0008B4288BF016352F8082C836AD0F820C061
:1044D0008A1AD21A62440262FFF71EF9BDE88040D0
:1044E000704700002DE9F0470A4422F00306192E18
:1044F00009D30546C81C20F0030404F13800A6F1D6
:104500001803834205D21CA0FFF750FC0020BDE831
:10451000F08704F13B0020F00307A6EB07082046D4
:1045200000213822A8F118094FF0000AFFF74AFDD0
:1045300020460C212A46FFF7D5FD0DA004F11401F9
:1045400081E88102A8F10C0044F001013246C4F870
:104550003490A762C7E9004042F80C1DC7F808A0D4
:10456000E26246E9020020462763BDE8F08700BF0B
:10457000736D616C6C0000006D656D20696E69740F
:104580002C206572726F7220626567696E206164AB
:10459000647265737320307825782C20616E6420F6
:1045A000656E642061646472657373203078257869
:1045B0000A00000082B080B582B0CDE9042304AACD
:1045C000019200F0C5FC02B0BDE8804002B0704727
:1045D000002848BF40420B28D9BF04A151F8200051
:1045E00045F20060C0F60000704700BFC6550008E5
:1045F000E3550008F8550008D05500080E5600088D
:10460000D8550008E955000808560008DF5500088D
:10461000F0550008C955000800560008411E00BFAB
:1046200011F8012F002AFBD1081A704710B5044673
:1046300062B1C2F10102601C0B7800F8013C3BB191
:1046400001320131012A00F10100F5D1204610BDEF
:10465000002AFBD05142FBF7B1FE204610BD0000FE
:1046600080B50346033020F0030021F003010A1A4D
:1046700004A01946FFF736FF44F29C11C2F2000174
:10468000086080BD6865617000000000B0B543F649
:10469000847043F68875C2F200000024C2F200055F
:1046A000048000BF2819FFF7A5FB0834B4F5807F0C
:1046B000F8D144F28800C2F2000000210160B0BDD0
:1046C00010B582B001A8FDF7ADFE044640F2F0201F
:1046D000C2F2000004602046FFF7E4FD032084F8E6
:1046E000340004F11C00FBF7E0FD02B010BD000037
:1046F00080B540F20410C2F20000FFF783FB80BDDA
:1047000070470000F0B583B00E46014601201F46F9
:104710001546FFF78BFC88B104463846FFF7DCFBF3
:1047200070B10346DDE9080C3146CDE90070204642
:104730002A46CDF808C0FDF7A3FE05E0002403E0FB
:104740002046FFF79BFC0024204603B0F0BD00008C
:1047500070B540F25400C2F20000056885420CD0EA
:10476000A5F11404FBF754FD06462846FFF78CFB21
:104770003046FBF751FD204670BD0024204670BD39
:1047800080B51430FFF742FB80BD000080B500F01B
:1047900077F880BDFFF722F9FCE70000B0B586B0DE
:1047A00004AC12A120460022FFF704FF44F28C0261
:1047B0004FF48071C2F2000240F274251F20CDE94F
:1047C0000021C2F2000544F295724FF0200C0290D5
:1047D000C0F60002284621460023CDF80CC000F0A8
:1047E00009F8284600F070F806B0B0BD7469646C32
:1047F000652564002DE9F04784B015460A46DDE9D9
:104800000C86DDE90E9A01211C460746FFF76AFC7B
:104810003846294622464346CDE90069CDF808A02E
:10482000FDF72EFE002004B0BDE8F08780B500F053
:1048300081F800F025F880BDB0B5044690F834004A
:1048400000F0070002281CBF4FF0FF30B0BDFBF79F
:10485000DFFC054604F11400FFF72EFB04F14400D1
:1048600000F0A2F92046FFF7E7FC2846FBF7D4FC4E
:104870000020B0BD40F2F020C2F200000068704796
:10488000F0B581B00090FFF7F5FF0446FBF7C0FCE0
:10489000054600272046276300F02AF804F1440665
:1048A0006A463046002100F0E9F8304600F03AF957
:1048B0002846FBF7B1FCFFF741FC206B023008BF34
:1048C0002763206B01B0F0BD80B590F83510012250
:1048D00002FA01F18163022180F83410FFF7ACFF86
:1048E000FFF7C8FF002818BFFFF728FC002080BD95
:1048F000B0B5044690F8340000F0050002300328FB
:104900001CBF4FF0FF30B0BDFBF782FC05462046D0
:10491000FFF7C8FC94F8340000F0F800023084F887
:10492000340004F1440000F03FF92846FBF774FC22
:104930000020B0BD002844BF4FF0FF30704744F660
:10494000D351C1F2620150FB01F2931103EBD27219
:104950004FF47A7302FB1300584300F2E73050FB28
:1049600001F0811101EBD07002FB030070470000E1
:1049700044F29010C2F200000068704710B5FBF7D7
:1049800047FC44F29011C2F200010A680446501C30
:104990000860FFF76FFF016C0139016405D0204604
:1049A000FBF73AFC00F012F810BDC16B90F8342010
:1049B000016442F0080180F834102046FBF72CFC1B
:1049C000FFF7BCFB00F002F810BD00002DE9F04736
:1049D00082B06846FFF716FAFFF7CAFF0746FBF7F3
:1049E00017FC40F20415C2F2000580462846FFF786
:1049F0003BFA28B14046FBF70FFC02B0BDE8F08758
:104A00004FF6FE7AC7F6FF7AE94604E02846FFF73C
:104A10002BFA0028EED12C686069381A5045E9D885
:104A2000A4F114063046FDF791FD14F80B0C810734
:104A30005CBF00F0FE0004F80B0C48462146FFF76F
:104A4000FBF9D4E902108847FFF792FF0746484672
:104A5000FFF70AFA0028D9D12046FFF735FA14F8F3
:104A60000B0C00F003010329D0D100F0FE0004F884
:104A70000B0C304600F056F8C8E7000070B514463D
:104A80000E460546FBF7C4FB052E1DD8DFE806F0F1
:104A90000306090E131A2168696215E0696A21602C
:104AA00012E0697A01F0FD0169720DE0697A41F066
:104AB0000201697208E0697AC9070CBF002101216F
:104AC000216001E0A96A2160FBF7A6FB002070BD10
:104AD000B0B50446FBF79CFB05462046FDF736FDC6
:104AE000607A00F0FE0060722846FBF795FB2046D6
:104AF000FFF7D6FA0020B0BD2DE9F04182B015468F
:104B00000A46DDE908860A211C460746FFF7EAFA4D
:104B100038462946224643460096FDF705FD02B079
:104B2000BDE8F08170B582B00446FBF771FB064624
:104B30002046FDF70BFD607A00F0FE006072FFF783
:104B400017FF616A014440F20410C2F2000042689B
:104B5000A1628242019010D04FF6FE72C943C7F69F
:104B6000FF7203461B685B690B44934205D3019BAC
:104B700045681B689D420193F4D144F29410C2F23F
:104B80000000016801310160019804F11401FFF790
:104B900053F9607A40F0010060723046FBF73CFB4D
:104BA000002002B070BD0000B0B50446407AC007D6
:104BB00004BF4FF0FF30B0BDFBF72AFB054620468F
:104BC000FDF7C4FC607A00F0FE0060722846FBF737
:104BD00023FB0020B0BD00002DE9F04F85B01E463C
:104BE0008A46044645184FF0200B0492002948BF1E
:104BF0004FF0FF3503900FE059F8042B5FFA88F669
:104C000020462946CDE9007C0296FEF7B9FD4E46C6
:104C1000049904460131049104980078252807D0AE
:104C2000002800F08281AC4238BF2070601CEFE7A2
:104C300004984FF0000801300178A1F12003102BF7
:104C400016D81022DFE803F00E14141014141414F4
:104C500014141412140A14140900012248EA020858
:104C60000130E9E70822F9E72022F7E70422F5E717
:104C7000A1F13002092A049004D804A800F0CAF96E
:104C800007460EE02A290AD10130049056F8047B29
:104C9000B7F1FF3FDCBF7F4248F0100801E04FF062
:104CA000FF37049801782E290CD1024612F8011F13
:104CB000A1F13003092B049207D804A800F0AAF947
:104CC0000CE000BF4FF0FF3C0AE02A2904D102307B
:104CD000049056F8040B01E04FF0FF3020EAE07C2E
:104CE000049AB146117841F004036C2B06BF0132DF
:104CF00004920021049A1278253A532A00F2648023
:104D00000A23DFE812F05B006100610061006100CE
:104D1000610061006100610061006100610061008B
:104D2000610061006100610061006100610061007B
:104D3000610061006100610061006100610061006B
:104D4000610061006100610061006100610061005B
:104D5000610061006100610061006100610061004B
:104D60006100610061006100610061006F0061002D
:104D7000610061006100610061006100610061002B
:104D80006100800054006100610061006100540016
:104D900061006100610061006100910096006100A6
:104DA0006100AB006100720061006100710048F0B9
:104DB00002080A236C293FF41FAF19E0AC423CBF44
:104DC00025202070601C22E7AC423CBF25202070CB
:104DD000049A601C117800296CD0A84238BF017079
:104DE000A01C14E748F0400810236C293FF404AFDE
:104DF00059F8042B68297FF401AF5FEA88704CBF33
:104E000012B292B2FAE65FEAC86057D4022F54DBBE
:104E1000AC42A7F1010738BF84F800B0012F04F1BC
:104E20000104F5DC002749E008236C293FF4E4AED7
:104E3000DEE7781CB0FA80F04FEA501040EA080034
:104E400008BF082759F8042B5FFA80FECDE9007CE3
:104E5000204629461023CDF808E0D6E64E4656F8FF
:104E6000041B45F2AE500029C0F6000008BF014601
:104E700000232FB1C85C18B101339F42FAD13B46E1
:104E800063451A46C8BF6246BCF1000FD8BF1A4638
:104E90005FEAC8602CD4BA4229DA00BFAC42A7F15D
:104EA000010738BF84F800B0BA4204F10104F5DB11
:104EB000571E1DE0511E0491A9E6013FAC423CBFC4
:104EC000D9F80000207009F10406022F04F1010056
:104ED000FFF69EAE791C00BFA842A1F1010138BFC8
:104EE00080F800B0022900F10100F5DC90E6013FF6
:104EF000012A104609DB00BFAC423CBF0B7823708F
:104F00000134013801F10101F6D1BA422046BFF661
:104F10007FAE00BFA842A7F1010738BF80F800B0FC
:104F2000BA4200F10100F5DB72E6BAF1000F039A14
:104F300048BF6FEA020ABAF1000F05D020460021EF
:104F4000AC4228BF681E0170A01A05B0BDE8F08F02
:104F500080B513460A464FF0FF31FFF73DFE80BD96
:104F600000207047002070470020704700207047E5
:104F700080B5FBF74DF9FEF7A1FDFFF7C5F9FFF787
:104F8000B7FBFFF783FBFEF7D3FCFFF7B9FBFFF797
:104F900005FCFFF795FB002080BD000010B504461E
:104FA00045F2AE40C0F60000FEF700FF2046FEF7D7
:104FB00039FAFDF7F1FB40F20C1103A0C2F2000137
:104FC0002246FEF7F3FE10BD257325730000000096
:104FD000F0B581B00768874214D004460AA50CA634
:104FE00003E000BF3F68A7420CD0A7F11402284697
:104FF0000821FEF7DBFE3868A042F3D03046FEF70A
:10500000D5FEEFE701B0F0BD252E2A7300000000A9
:105010002F00000080B501680A78303A092A15D8B7
:105020004A1E4FF0000C1346911C016013F801EF6B
:105030000CEB8C0192780EEB4101A1F1300CA2F146
:1050400030010A291A46EFD3604680BD4FF0000CAC
:10505000604680BD90F800C00246BCF1000F0AD047
:10506000024600BF0B789C4505D112F801CF0131F3
:10507000BCF1000FF6D1101A7047000080B540F265
:10508000680043F60001C2F20000C4F201010023EF
:105090004FF00C0C4FF4E13280E80E00C0E903330E
:1050A000C0E905C3C361FCF747FB00B1FEE7002080
:1050B00080BD000010B54EF62A541AA0CEF20004AE
:1050C000FEF774FE21881BA0FEF770FE2088C00743
:1050D00002D01EA0FEF76AFE2088800702D51EA01F
:1050E000FEF764FE2088400702D51EA0FEF75EFE94
:1050F0002088000702D51DA0FEF758FE2088C005B5
:1051000002D51CA0FEF752FE2088800502D51CA007
:10511000FEF74CFE45F2AE40C0F60000FEF746FE3C
:1051200010BD00BF7573616765206661756C743A68
:105130000A0000005343425F434653525F554653B3
:10514000523A30782530325820000000554E444500
:1051500046494E5354522000494E565354415445EB
:1051600020000000494E5650432000004E4F43504F
:1051700020000000554E414C49474E454420000058
:1051800044495642595A45524F20000080B5FFF716
:10519000BBF8002080BD02E008C8121F08C1002A29
:1051A000FAD170477047002001E001C1121F002AA8
:1051B000FBD1704700000000000000000102030462
:1051C00006070809000000000102030401000200B4
:1051D0000400060008000A000C0010002000400037
:1051E0008000000100000100020001000300010036
:1051F00002000100040001000200010003000100A0
:10520000020001000500010002000100030001008E
:10521000020001000400010002000100030001007F
:10522000020001000600010002000100030001006D
:10523000020001000400010002000100030001005F
:10524000020001000500010002000100030001004E
:10525000020001000400010002000100030001003F
:10526000020001000700010002000100030001002C
:10527000020001000400010002000100030001001F
:10528000020001000500010002000100030001000E
:1052900002000100040001000200010003000100FF
:1052A00002000100060001000200010003000100ED
:1052B00002000100040001000200010003000100DF
:1052C00002000100050001000200010003000100CE
:1052D00002000100040001000200010003000100BF
:1052E000020001000101010307010000080402049B
:1052F00008010101636C65617200636C6561722075
:10530000746865207465726D696E616C2073637278
:1053100065656E0076657273696F6E0073686F778E
:105320002052542D546872656164207665727369E9
:105330006F6E20696E666F726D6174696F6E006C5E
:105340006973745F746872656164006C697374205A
:10535000746872656164006C6973745F73656D0075
:105360006C6973742073656D6170686F7265206914
:105370006E2073797374656D006C6973745F6D73FF
:10538000677175657565006C697374206D657373FD
:1053900061676520717565756520696E2073797325
:1053A00074656D006C6973745F74696D6572006C0F
:1053B0006973742074696D657220696E20737973E6
:1053C00074656D006C697374006C697374206F622E
:1053D0006A656374730068656C700052542D54687C
:1053E00072656164207368656C6C2068656C702EF2
:1053F000007265626F6F74005265626F6F74205344
:10540000797374656D0055736167653A206C6973D3
:1054100074205B6F7074696F6E735D0A00706572E3
:10542000696F6469630A00252D2A2E7320707269E2
:1054300020207374617475732020202020207370E5
:105440002020202020737461636B2073697A6520AB
:105450006D61782075736564206C6566742074696D
:10546000636B20206572726F720A002030782530DD
:1054700038782030782530387820202020253032A8
:105480006425252020203078253038782025730A9F
:10549000006F6E652073686F740A006375727265C1
:1054A0006E74207469636B3A3078253038780A005E
:1054B0006163746976617465642020200020696EE0
:1054C00069742020200020636C6F73652020002009
:1054D0007265616479202000646561637469766136
:1054E000746564200074687265616400207375736C
:1054F00070656E64006D7367717565756500207207
:10550000756E6E696E670074696D657200080025BE
:10551000630068617264206661756C74206F6E2030
:1055200068616E646C65720D0A0D0A0068617264D0
:10553000206661756C74206F6E207468726561649A
:105540003A2025730D0A0D0A0046505520616374F8
:10555000697665210D0A007230303A2030782530A6
:1055600038780A007230313A203078253038780A9D
:10557000007230323A203078253038780A007230A4
:10558000333A203078253038780A007230343A20A7
:105590003078253038780A007073723A20307825D8
:1055A0003038780A000A205C207C202F0A00284E20
:1055B000554C4C2900303132333435363738394187
:1055C0004243444546004F4B0045494E56414C002E
:1055D00045525346554C4C00454E4F4D454D0045A8
:1055E000494F004552524F5200454E4F53595300B8
:1055F00045494E54525054004554494D4F5554005E
:1056000045554E4B4E4F5700454255535900455254
:1056100053455054590030313233343536373839E8
:1056200061626364656600006D4F0008654F0008A5
:105630007D500008614F000841280008D12C000867
:10564000694F0008F4520008FA5200084126000889
:10565000145300081C5300088D5100083F530008E4
:105660004B530008293000085753000860530008C6
:10567000F92E00087953000887530008C92D000847
:10568000A4530008AF530008B1310008C453000808
:10569000C953000855260008D6530008DB530008FC
:1056A0007D350008F1530008F85300082939000837
:1056B000D056000800000020680000009651000845
:1056C000385700086800002040450000A651000837
:1056D0000024F40001000000080000200800002061
:1056E00078000000020000001800002018000020D0
:1056F00020000000060000002800002028000020F4
:105700003C0000000A0000003800002038000020A3
:105710002C0000000C000000480000204800002081
:105720002800000054000020540000200100000068
:08573000100000000000000061
:04000005080001D915
:00000001FF
