:020000040800F2
:10000000F0450020ED0100082D230008F90200084A
:1000100029230008A10400080530000800000000A2
:10002000000000000000000000000000FF010008C8
:10003000A5040008000000003F020008C5230008D6
:10004000070200080702000807020008070200086C
:10005000070200080702000807020008070200085C
:10006000070200080702000807020008070200084C
:10007000070200080702000807020008070200083C
:10008000070200080702000807020008070200082C
:10009000070200080702000807020008070200081C
:1000A000070200080702000807020008070200080C
:1000B0000702000807020008C92400080702000818
:1000C00007020008070200080702000807020008EC
:1000D00007020008070200080702000807020008DC
:1000E00007020008070200080702000807020008CC
:1000F00007020008070200080702000807020008BC
:1001000007020008070200080702000807020008AB
:10011000070200080702000807020008070200089B
:10012000070200080702000807020008070200088B
:10013000070200080702000807020008070200087B
:10014000070200080702000807020008000000007C
:10015000000000000000000000000000000000009F
:10016000000000000000000000000000070200087E
:10017000070200080702000807020008070200083B
:10018000070200080702000807020008070200082B
:10019000070200080000000007020008070200082C
:1001A000070200080702000807020008070200080B
:1001B00007020008070200080702000807020008FB
:1001C00007020008070200080702000807020008EB
:1001D0000702000807020008DFF80CD000F048F919
:1001E0000048004795040008F04500200648804775
:1001F00006480047FEE7FEE7FEE7FEE7FEE7FEE70C
:10020000FEE7FEE7FEE7FEE7B5240008D901000897
:10021000EFF3108072B6704780F310887047444A3D
:100220001368012B04D04FF001031360414A1060A2
:10023000414A116041484FF0805101607047EFF32F
:10024000108272B63A48016851B34FF00001016064
:100250003848016891B1EFF309811EF0100F08BF13
:1002600021ED108B21E9F00F4FF000041EF0100F6C
:1002700008BF012441F8044D006801602E49096857
:10028000096808C9B1E8F00F002B18BFB1EC108B5A
:1002900081F309884EF0100E002B18BF2EF0100EBF
:1002A00082F310884EF0040E704723490860EFF384
:1002B000148222F0040282F314881E494FF00000D9
:1002C00008601B494FF0010008601D481D49D0F827
:1002D000002041EA0201016018484FF0805101609E
:1002E00019480068006880F3088861B662B6BFF3F9
:1002F0004F8FBFF36F8F70471EF0040F0CBFEFF3EB
:100300000880EFF3098020E9F00F40F804ED40F891
:1003100004ED1EF0040F0CBF80F3088880F30988F9
:1003200000B504F0B3FA5DF804EB4EF0040E70472C
:10033000D8410020443F00204C3F002004ED00E065
:1003400020ED00E00000FFFF08ED00E02DE9F05F88
:100350000546002092469B46884606468146402434
:100360001BE0284641464746224600F071F85346B6
:100370005A46C01A914110D311461846224600F041
:1003800058F82D1A67EB01084F462246012000213C
:1003900000F04FF817EB00094E41201EA4F10104B4
:1003A000DFDC484631462A464346BDE8F09FD2B2DC
:1003B00001E000F8012B491EFBD270470022F6E74E
:1003C00010B513460A4604461946FFF7F0FF2046CB
:1003D00010BD10B5044604E00B7800F8013B03B1F2
:1003E000491C521EF8D2204610BD421C10F8011BB9
:1003F0000029FBD1801A704710B5002200E0521C82
:10040000835C8C5CA34201D1002BF8D1D8B2E1B25D
:10041000401A10BD30B505460020034600E05B1CC5
:10042000934205D2EC5CC85C201A01D1002CF6D1B5
:1004300030BD202A04DB203A00FA02F10020704788
:100440009140C2F1200320FA03F319439040704712
:10045000202A04DB203A21FA02F00021704721FA19
:1004600002F3D040C2F12002914008431946704780
:10047000064C074D06E0E06840F0010394E80700F1
:1004800098471034AC42F6D3FFF7AAFE8C630008FD
:10049000AC63000880B505F0E9FB002080BD0000DA
:1004A000FEE7000070470000EFF3108072B600BF57
:1004B000FEE700002DE9F04F83B00D68002D00F03D
:1004C000C58000F138424FEAB22241F20047019262
:1004D000C4F600070622002600244FF0010AB842A5
:1004E00008BF0522009209E00D68043435FA0AF2CB
:1004F0000AF1010A06F1020600F0A880AAF1010C37
:10050000012202FA0CFB15EA0B09EDD0D1F80480A8
:1005100008F00305A5F1010EBEF1010F11D887689F
:100520000322CB68B24027EA0202B3401A4382603A
:100530004268C8F3001322EA0B0203FA0CF31A43D1
:100540004260032D1CD0C26803238F68B3409A43D6
:1005500007FA06F31A43022DC26011D16FF00302AD
:1005600002EA5C02024404F01C070F23D2F820E0E8
:1005700003FA07F50B692EEA0505BB402B4313620E
:10058000026803234F68B3409A4307F00303B34064
:100590001A4317F4403F0260A6D041F26003C4F250
:1005A00002031A6840F2004E42F001021A601A6813
:1005B000C4F2010E02F001020292029A2CF0030230
:1005C0004FF608487244CFF6FF7852F8083004F02E
:1005D0000C070F25BD4023EA050C019B009D052B50
:1005E00038BF1D4605FA07F747EA0C0342F8083002
:1005F000DEF808204B6842EA090740F20C4CDD02A5
:1006000058BF22EA0907CEF80870C4F2010CDCF8E2
:1006100000209D0242EA090758BF22EA0907CCF8E8
:100620000070DEF804209D0342EA090758BF22EA61
:100630000907CEF80470DEF80020DB0342EA090760
:1006400058BF22EA0907CEF800704DE703B0BDE8B5
:10065000F08F0000426902EA0103914341EA03413D
:10066000816170471823002A08BF2823C1507047B2
:1006700044F2EC10C2F200000068704740F25C00E7
:1006800044F2EC11C2F20000C2F2000100680A68F4
:10069000104408607047000080B5032000F08CF81B
:1006A0000F2000F009F800281CBF012080BD00F0D9
:1006B00053F8002080BD0000B0B586B041F258016B
:1006C000C4F202010A68044642F004020A600968A2
:1006D00001A801F0040101910199694600F068FB4D
:1006E00000F08EFB4DF68361C4F21B31A0FB0101CB
:1006F0004FF0FF3000EB914140F2E01040F6000275
:10070000C2F20000C4F2000240F2E7330025C0E963
:100710000021C0E90253056100F07CFF0546C0B925
:1007200040F2E010C2F2000000F0C0FF054680B9C0
:100730001E2000F02DF80F2C0AD81E202146002282
:1007400000F02AF840F26000C2F20000046000E00D
:100750000125284606B0B0BD80B582B041F25800F0
:10076000C4F20200816841F001018160816801F0FA
:10077000010101910199016841F080510160006817
:1007800000F080500090009800F08CF802B080BD1E
:1007900080B502F039FC80BD70B514460D460646A2
:1007A00002F042FC2946224601F0C2FD01463046D5
:1007B00002F042FC70BD000080B502F04FFC80BD2D
:1007C000A8B347F20001C4F200010A68B0F5007F47
:1007D00061D1D1F8800002F4C06240F48070B2F5BB
:1007E000806FC1F8800020D10868012262F34A209E
:1007F000086040F20000C2F2000000683223584353
:100800004DF68363C4F21B33A0FB030302EB93405A
:100810004B69421E824203D213F480601046F7D126
:100820004869400544BF032070470020704747F2E5
:100830000000C4F200000168D0F8802001F4C0611B
:1008400022F48072B1F5806FC0F88020EDD101688C
:10085000012262F34A21016040F20001C2F200016C
:100860000968322359434DF68363C4F21B33A1FB5D
:10087000031302EB934100BF43694A1E8A4203D22D
:1008800013F480611146F7D14069400544BF03204D
:10089000704700207047022060F34A220A6000205F
:1008A0007047000047F20800C4F20000016841F4FC
:1008B00080410160704700002DE9F04381B004469B
:1008C000807841F288070007C4F2020702D44FF093
:1008D00000096FE057F8300CC0000ED457F8300C08
:1008E0004FF0010840F0805047F8300C57F8300CBA
:1008F00000F080500090009801E04FF0000847F2AF
:100900000006C4F20006306840F480703060FFF7E3
:10091000AFFE05463068C0050AD4FFF7A9FE401BAC
:100920000328F7D34FF00309B9F1000F39D104E0E0
:100930004FF00009B9F1000F33D1B86810F44070DE
:1009400011D0216D88420BD0B868B96820F440708E
:1009500041F48031B960B96821F48031B960B86080
:10096000C00703D112E00020C0070FD0FFF780FEC0
:10097000064641F2893500BFB868800706D4FFF704
:1009800077FE801BA842F7D34FF00309B9F1000F9F
:1009900007D1B868216D20F4407008434FF000097A
:1009A000B860B8F1000F05D057F8300C20F0805037
:1009B00047F8300C2068C10716D181071CD44107C5
:1009C00022D4010728D4C1062ED4810634D441068E
:1009D0003AD4010640D4C10546D481034CD48105E4
:1009E00052D4410558D466E03968626821F00301A9
:1009F000114339608107E2D53968A26821F00C0102
:100A0000114339604107DCD53968E26821F03001D3
:100A1000114339600107D6D53968226921F0C00138
:100A200011433960C106D0D53968626921F440713B
:100A3000114339608106CAD53968A26921F4406141
:100A4000114339604106C4D53968E26921F4405147
:100A5000114339600106BED53968226A21F440414C
:100A600011433960C105B8D53968626A21F4403153
:100A7000114339608103B2D57969A26A21F003017B
:100A8000114379618105ACD53968E26A21F44021CE
:100A90001143396041050ED53968226B21F44011AC
:100AA0001143B2F5801F396005D157F87C1C41F421
:100AB000801147F87C1C01050ED53968626B21F462
:100AC00040011143B2F5800F396005D157F87C1C05
:100AD00041F4801147F87C1CC1040ED53968A26B23
:100AE00021F040711143B2F1807F396005D157F890
:100AF0007C1C41F4801147F87C1C81040ED53968B8
:100B0000E26B21F040611143B2F1006F396005D111
:100B100057F87C1C41F4801147F87C1C41040ED529
:100B20003968226C21F040611143B2F1006F3960E5
:100B300005D157F87C1C41F4801147F87C1C010456
:100B40000ED53968626C21F040511143B2F1805FDB
:100B5000396005D157F87C1C41F4803147F87C1C82
:100B6000C1030ED53968A26C21F040411143B2F1A6
:100B7000804F396005D157F87C1C41F4803147F82B
:100B80007C1C40030ED57869E16C20F440100843CA
:100B9000B1F5001F786105D157F87C0C40F4801046
:100BA00047F87C0C484601B0BDE8F0832DE9F047DA
:100BB000002800F0C88042F2000AC4F2020A04468B
:100BC000DAF800000D4600F00F0088420DD2DAF886
:100BD000000020F00F002843CAF80000DAF80000F7
:100BE00000F00F00A84240F0AE80207841F20808E3
:100BF000C007C4F202080CD14FF000092068810739
:100C000028D4B9F1800F3ED1D8F8000020F0F000D0
:100C100037E06168032940F08A8058F8080C8001A9
:100C200040F1918001F09AFB4BF20041C0F2C441C7
:100C300088420CD9D8F8000010F0F00F00F08F8037
:100C40002078800703D5A068002800F088804FF046
:100C500000098DE0410705D5D8F8001041F4E061A6
:100C6000C8F80010000706D5D8F80000072161F386
:100C70000D20C8F80000D8F80000A16820F0F000AE
:100C80000843C8F80000DAF8000000F00F00A8429E
:100C90001AD9DAF8000020F00F002843CAF8000043
:100CA000FFF7E6FC064641F2883700BFDAF800009D
:100CB00000F00F00A84207D0FFF7DAFC801BB84213
:100CC000F4D90320BDE8F0872068410707D5D8F89C
:100CD0000010E26821F4E0611143C8F80010000739
:100CE00008D5D8F80000216920F4605040EAC1001E
:100CF000C8F8000000F0ACF8D8F8001045F6B06273
:100D0000C1F30311C0F60002515C40F2000201F091
:100D10001F0120FA01F140F26000C2F200000068F9
:100D2000C2F200021160FFF7C7FCBDE8F08758F877
:100D3000080C022905D180035CBF0120BDE8F087C3
:100D400004E0400502D40120BDE8F08700F080F8FF
:100D50004BF20041C0F2C44188427FF678AFD8F828
:100D60000000082161F307104FF08009C8F8000067
:100D7000D8F80000616820F003000843C8F80000BC
:100D8000FFF776FC064641F2883700BFD8F800002E
:100D9000616800F00C00B0EB810F3FF42FAFFFF75C
:100DA00067FC801BB842F1D90320BDE8F087000042
:100DB0000F22026041F20802C4F20202136803F03B
:100DC00003034360136803F0F0038360136803F4C4
:100DD000E063C36012684FF4E06303EAD202026189
:100DE00042F20000C4F20200006800F00F00086048
:100DF0007047000040F20000C2F200000068704737
:100E000080B5FFF7F7FF41F20801C4F2020109685B
:100E100045F6C062C1F30221C0F60002515C01F048
:100E20001F01C84080BD000080B5FFF7E3FF41F21D
:100E30000801C4F20201096845F6C062C1F3C2218B
:100E4000C0F60002515C01F01F01C84080BD0000E7
:100E500041F20C01C4F2020151F8040C00F00C0044
:100E6000042842F20040C0F2F40008BF704751F875
:100E7000042C02F00C02082A1AD051F8042C02F0BB
:100E80000C020C2A1CBF002070470A680A68C2F3D3
:100E900003120B680132B0FBF2F0C3F306220968BB
:100EA0005043C1F34161022202EB4101B0FBF1F07A
:100EB000704700002DE9F04182B0002800F0EB807F
:100EC0000446007841F20006C007C4F2020654D17D
:100ED0002078800771D42078000700F19580207871
:100EE000400700F1B3802078800600F1D880E569E2
:100EF000002D00F01A82B06800F00C000C2840F0C1
:100F00003B81012D00F0C780F068216A00F00302E8
:100F10008A4240F0C080626A6FF00F0300F0F00177
:100F200003EB0212914240F0B680A16A00F4FE4247
:100F3000B2EB012F40F0AF80E16A00F07842B2EBF3
:100F4000C16F40F0A880226B0023CFF6E07303EA64
:100F5000025200F4C001A2F50012914240F09B80C1
:100F6000616B4FF07E4202EA016100F0C06001F166
:100F70007E41884240F08F80D7E1B06800F00C01DC
:100F8000F068082959D0032281F00C0122EA000000
:100F90000844B0FA80F040094FD16568B5F5803F4C
:100FA00007D03068B5F5A02F40F0108140F48020C4
:100FB0003060306840F480300EE1B068F16800F0D5
:100FC0000C00042851D001F0030180F00C0081F0E6
:100FD00002010844B0FA80F0400946D1E168306867
:100FE000002900F0B68040F480703060FFF740FBCD
:100FF000054600BF3068400500F1E080FFF738FB90
:10100000401B0228F6D932E16169D6F89400002924
:1010100000F08C8040F00100C6F89400FFF728FB38
:10102000054600BFD6F8940080073FF558AFFFF79C
:101030001FFB401B0228F5D919E1306880037FF5BA
:1010400047AF606800287FF443AF24E0B06DC00074
:1010500041D4B06D4FF0010840F08050B065B06DE4
:1010600000F080500190019837E03068400501D5CC
:10107000E06880B17068216920F0FE4040EA0160BC
:10108000706040F26000C2F200000068FFF714FBDD
:1010900000283FF420AF012002B0BDE8F081A16933
:1010A000D6F89800002900F0B38040F00100C6F89F
:1010B0009800FFF7DDFA0546D6F8980080073FF55F
:1010C00016AFFFF7D5FA401B02284FF00300F3D903
:1010D00002B0BDE8F0814FF0000847F20007C4F20B
:1010E00000073868C00510D4386840F48070386054
:1010F000FFF7BEFA054600BF3868C00505D4FFF704
:10110000B7FA401B0228F7D9B1E0A568012D08D035
:10111000D6F89000052D40F0908040F00400C6F80D
:101120009000D6F8900040F001008EE020F0010021
:10113000C6F89400FFF79CFA054600BFD6F8940065
:1011400080077FF5CCAEFFF793FA401B0228F5D954
:101150008DE020F480703060FFF78AFA054600BF0A
:10116000306840057FF5B7AEFFF782FA401B0228D2
:101170004FF00300F4D9ABE7306820F080703060A6
:10118000FFF776FA022D05460CD100BF30688001CA
:1011900040F18780FFF76CFA401B02284FF00300F4
:1011A000F4D995E73068800140F1B880FFF760FA24
:1011B000401B02284FF00300F4D989E770682169C9
:1011C00020F0FE4040EA0160706084E620F4803048
:1011D0003060306820F480203060FFF749FA002D3D
:1011E000054611D0306880033FF572AEFFF740FA34
:1011F000401B6428F6D93AE0FFF73AFA401B64280E
:101200004FF003003FF664AF30688003F4D45FE62C
:1012100020F00100C6F89800FFF72AFA054600BF43
:10122000D6F8980080077FF562AEFFF721FA401BE1
:1012300002284FF00300F3D94AE720F00100C6F876
:101240009000D6F8900020F00400C6F89000FFF758
:101250000FFA002D054641F2883715D0D6F89000D8
:10126000800715D4FFF704FA401BB842F6D90320D3
:1012700002B0BDE8F08100BFFFF7FAF9401BB842A9
:101280004FF003003FF624AFD6F890008007F3D468
:10129000B8F1000F3FF427AEB06D20F08050B0657C
:1012A00021E6F06848F20C01C0F29F1104F120071A
:1012B00000EA010C8ECF6FF00F00D4E90C5400EB64
:1012C00002100022CFF6E07241EA0C0102EA055258
:1012D0000843A2F500124FF07E4540EA032005EADC
:1012E0000465104305F17E4540EAC7602843F0607D
:1012F000306840F080703060F06840F08070F060DE
:10130000FFF7B6F90446306880010ED4FFF7B0F954
:10131000001B02284FF00300F5D9D9E6F0684FF61C
:10132000FC71CFF6EE610840F060002002B0BDE82D
:10133000F081000080B501F02DF880BD70470000FD
:101340007047000070470000B0B590F83C20012ABB
:1013500004BF0220B0BD012280F83C20D1E9023256
:10136000D1E900CE22F47C5223F4705343EA020404
:1013700048F2FF73CEF6F0730EEA0302224303F540
:10138000006404EA0C0442EA040C0C6903F5C05240
:1013900022404C6942EA0C02224303F56054224089
:1013A0000C6B03F5F04323401A438B6940F2000CA9
:1013B000CC69CEF6FF7C0CEA034C1443026842F67B
:1013C0000043C4F201039A4244EA0C030BD045F2F5
:1013D0000004C4F20104A24205D043F20044C4F266
:1013E0000104A24217D14FF6FF74CDF60F4403EA71
:1013F000040ED1E9084CD1E90A310025CDF6F045BB
:1014000005EA035343EA0E0324F008552B432CF05E
:1014100000552B430B430021536480F83C100846D1
:10142000B0BD00007047000070470000704700002A
:1014300070B590F83C20012A4FF0020264D00123DD
:1014400080F83C3080F83D20026842F60043546842
:10145000D2F808C0C4F2010345F2000E9A42C4F269
:10146000010E18BF72452AD14D6824F470042C4334
:101470004FF68F75CFF6FF550E682C4042F6FF35BC
:10148000C4F201053443AA4254600DDC40F2FF73FC
:10149000C4F200039A4219DCB2F1804F29D040F225
:1014A0000043C4F2000322E043F6FF74C4F20104D7
:1014B000A24216DC9A421CD043F2004315E043F2EC
:1014C0000045C4F20105AA42CED0D1E740F60003A0
:1014D000C4F200039A420CD040F60043C4F2000369
:1014E00005E0724505D044F20003C4F201039A42BC
:1014F00004D189682CF080031943916001210022F6
:1015000080F83D1080F83C20104670BD10B50446B0
:1015100041B1082909D0042914BF04F1470004F19E
:10152000450004E004F1440001E004F146000078C5
:1015300001281CBF012010BD022041B1082909D09B
:10154000042914BF84F8470084F8450004E084F8B7
:10155000440001E084F846002068042201F072F89B
:10156000216842F6FF32486CC4F2010240F40040A8
:10157000914248640DDC40F2FF70C4F200008142E9
:1015800016DCB1F1804F2AD040F20040C4F20000D6
:1015900023E043F6FF70C4F20100814213DC42F6FF
:1015A0000040C4F20100814219D043F2004012E031
:1015B00040F60000C4F20000814210D040F6004026
:1015C000C4F2000009E045F20000C4F201008142CB
:1015D00005D044F20000C4F20100814212D18868B3
:1015E0000722C0F201020240062A4FF000000ED08E
:1015F000B2F5803F08BF10BD086840F001000860E8
:10160000002010BD086840F001000860002010BDF7
:1016100070470000002804BF0120704710B5044641
:1016200090F83D0028B9002084F83C00204600F0E6
:1016300023F8022084F83D002068211D00F04CFFB3
:10164000012084F8480084F83E0084F83F0084F8C4
:10165000400084F8410084F8420084F8430084F894
:10166000440084F8450084F8460084F8470084F874
:101670003D00002010BD000081B0006842F600412E
:10168000C4F20101884201D001B0704741F260000C
:10169000C4F20200016841F400610160006800F4D6
:1016A00000600090009801B07047000090F83D1075
:1016B00001291CBF01207047022180F83D100168FC
:1016C00042F6FF32C868C4F20102914240F00100C4
:1016D000C8600DDC40F2FF70C4F20000814216DCED
:1016E000B1F1804F2AD040F20040C4F2000023E064
:1016F00043F6FF70C4F20100814213DC42F6004061
:10170000C4F20100814219D043F2004012E040F6D9
:101710000000C4F20000814210D040F60040C4F244
:10172000000009E045F20000C4F20100814205D04A
:1017300044F20000C4F20100814212D188680722FD
:10174000C0F201020240062A4FF000000ED0B2F5AE
:10175000803F08BF7047086840F001000860002023
:101760007047086840F001000860002070470000E2
:1017700010B5044690F83C0001284FF0020008BF65
:1017800010BD0B46012184F83C1084F83D00206810
:1017900088228168CFF6CE72114081601968B1F558
:1017A000805F15DB1F22C0F21002914219DD3F223B
:1017B000C0F21002914235DD4022C0F21002914287
:1017C00061D05022C0F2100291425CD070222FE012
:1017D0003F291ADC1F2930DC002954D0102952D0AF
:1017E0005BE0B1F5801F2DDAB1F5805F4DD0B1F52A
:1017F000005F52D1D3E90121DB6800F035FF20689A
:10180000816841F4804181603FE05F291FDC40290D
:101810002CD0502941D15968DA6801F0D3F82068FA
:10182000502130E02022C0F2100291422BD0302211
:10183000C0F21002914226D02FE0202923D0302977
:1018400021D02AE01FD0B1F1101F1CD025E0602963
:1018500013D0702921D1D3E90121DB6800F004FF06
:101860002068816841F0770181600EE05968DA688C
:1018700001F0A8F82068402105E05968DA6801F015
:10188000B3F82068602100F0FBFE0020012184F8FD
:101890003D10002184F83C1010BD0120F6E7000047
:1018A00070470000F0B581B004460068C76806695B
:1018B00006EA0705A90731D4680700F185802807E3
:1018C00000F19B80E80600F1B080E80706D02068B0
:1018D0006FF001010161204600F074FA17F08007F3
:1018E00018BF16F4025006D020686FF4025101614F
:1018F0002046FFF725FD002F18BF16F4807019D180
:10190000680620D4A80627D4E8022ED4A80235D42D
:1019100068023CD4280243D401B0F0BD6FF002014C
:101920000161012121778069800742D02046FFF7BD
:10193000B7FF44E020686FF4807101612046FFF733
:10194000FDFC6806DED520686FF04001016120468D
:1019500000F044FAA806D7D520686FF02001016195
:101960002046FFF7EFFCE802D0D520686FF4801125
:1019700001612046FFF758FDA802C9D520686FF421
:10198000001101612046FFF74DFD6802C2D52068B5
:101990006FF4800101612046FFF748FD2802BBD5A6
:1019A00020686FF4000101612046FFF731FE01B0AD
:1019B000F0BD204600F0AEF8204600F03FF90020D0
:1019C000207768077FF57BAF20686FF00401016125
:1019D00002212177806910F4407F03D02046FFF771
:1019E0005FFF05E0204600F095F8204600F026F95C
:1019F0000020207728077FF565AF20686FF0080189
:101A0000016104212177C069800703D02046FFF7D8
:101A100047FF05E0204600F07DF8204600F00EF973
:101A200000202077E8067FF550AF20686FF01001A6
:101A3000016108212177C06910F4407F03D020465E
:101A4000FFF72EFF05E0204600F064F8204600F086
:101A5000F5F800202077E8077FF439AF3EE7000073
:101A60002DE9F04186B00026CDE90466CDE9026695
:101A7000006842F60041C4F201018842019602D09A
:101A800006B0BDE8F08141F24C00C4F202000168EA
:101A900040F2004441F0020101600168C4F6000414
:101AA00001F0020100910099016801AD41F00101CE
:101AB00001600068022700F00100009000984FF4D8
:101AC000C04001904FF0060820462946CDE9027635
:101AD0000496CDF81480FEF7EDFC4FF40040CDE9FC
:101AE00001070420CDE90366059020462946FEF74C
:101AF000E1FC4FF4E060CDE901074FF0904029464A
:101B0000CDE90366CDF81480FEF7D4FC06B0BDE83D
:101B1000F081000070470000B0B5044690F83C002A
:101B2000012804BF0220B0BD0D464FEAB2010120DA
:101B3000052984F83C0048D8DFE801F0030B131BAB
:101B400023332068294600F0A7FD206850F8181FAD
:101B50001EE02068294600F0E1FD206850F8181FBB
:101B600026E02068294600F029FE206850F81C1F56
:101B70000EE02068294600F071FE206850F81C1F16
:101B800016E02068294600F0B9FE206850F8501F82
:101B900041F008010160016821F004010160296938
:101BA0000FE02068294600F0DBFE206850F8501F47
:101BB00041F400610160016821F4806101602969DC
:101BC00009020268114301600020002184F83C10E2
:101BD000B0BD0000002804BF0120704710B50446C6
:101BE00090F83D0028B9002084F83C00204600F021
:101BF00023F8022084F83D002068211D00F06CFCD1
:101C0000012084F8480084F83E0084F83F0084F8FE
:101C1000400084F8410084F8420084F8430084F8CE
:101C2000440084F8450084F8460084F8470084F8AE
:101C30003D00002010BD000070470000704700000C
:101C4000B0B5044659B1081F4FEAB000032809D8BF
:101C5000DFE800F0020B0E1104F13F000DE004F18B
:101C60003E000AE004F1430007E004F1400004E014
:101C700004F1410001E004F14200007801281CBF9A
:101C80000120B0BD61B1081F4FEAB00003280BD896
:101C9000DFE800F0020E1216022084F83F0012E086
:101CA000022084F83E000EE0022084F843000AE09F
:101CB000022084F8400006E0022084F8410002E09F
:101CC000022084F8420020680122012500F0A8FCCF
:101CD0002168A1F18040A0F596304FEAB02242F68B
:101CE000FF30072AC4F2010051D805FA02F212F0BF
:101CF000E50F4CD04A6C814242F400424A640DDC4C
:101D000040F2FF70C4F20000814216DCB1F1804F56
:101D10002AD040F20040C4F2000023E043F6FF70F6
:101D2000C4F20100814213DC42F60040C4F201001B
:101D3000814219D043F2004012E040F60000C4F2A4
:101D40000000814210D040F60040C4F2000009E0DB
:101D500045F20000C4F20100814205D044F20000C7
:101D6000C4F20100814226D188680722C0F2010234
:101D70000240062A4FF0000022D0B2F5803F08BF93
:101D8000B0BD086840F0010008600020B0BD81428D
:101D9000B6DD43F6FF72C4F201029142C4DD44F2A3
:101DA0000002C4F201029142DED045F20002C4F208
:101DB000010291429ED0086840F0010008600020B6
:101DC000B0BD000080B5006840F60001C4F200011B
:101DD000884208BFFEF752FC80BD0000704700003B
:101DE00090F88410012904BF022070472421C0F814
:101DF000881002681168136823F00103136021F052
:101E000000530021416613602022C0F8882080F82A
:101E10008410084670470000B0B5044690F884006E
:101E2000012804BF0220B0BD012084F884002420D2
:101E3000C4F8880020680568026822F00102026088
:101E4000826822F0606211438160204600F0DEFD6E
:101E5000206805602020C4F88800002084F88400F1
:101E6000B0BD0000B0B5044690F88400012804BF5E
:101E70000220B0BD012084F884002420C4F888002A
:101E800020680568026822F001020260826822F080
:101E9000604211438160204600F0B8FD2068056073
:101EA0002020C4F88800002084F88400B0BD000021
:101EB00010B5D8B10446D0F8880028B9002084F8BD
:101EC0008400204600F026F82420C4F8880020680A
:101ED000A16A026822F00102026011B1204600F0FE
:101EE000BFFD204600F0BEFE012801D1012010BD3B
:101EF0002068416821F490414160816821F02A0105
:101F00008160016841F001010160204600F01CFE83
:101F100010BD0000B0B59CB00446002502A85421B5
:101F20001B95CDE91955CDE91755FEF747FA2068FD
:101F300043F60001C4F20101884201D01CB0B0BDDB
:101F40000120CDE9020502A8FEF7B6FC002818BF63
:101F5000FEF7AAFA41F24C00C4F20200416941F4D2
:101F600080414161416901F4804101910199016819
:101F700041F002010160006817A900F00200019021
:101F80000198C0201790022018900020CDE9190078
:101F900007201B9040F20040C4F60000FEF78AFACA
:101FA0001CB0B0BD2DE9F04182B00446D0F88800E5
:101FB00020283FD10E4600294FF001004BD0174694
:101FC000002A48D04FF0000821201D46C4F8908018
:101FD000C4F88800FEF74CFBA4F85470A4F85670BF
:101FE000A1680746B1F5805F0FD12069002814BFB2
:101FF0003046B046064608E016F8010B21688862B4
:10200000B4F856000138A4F85600B4F85600A8B148
:102010002046802100223B46009500F091FFE8B960
:10202000002EE9D138F8020B21686FF35F20886237
:102030000026E5E7022002B0BDE8F08120464021FD
:1020400000223B46009500F07BFF2021C4F8881059
:10205000002818BF032002B0BDE8F0812020C4F89A
:102060008800032002B0BDE8F081000010B540F206
:102070009414C2F200042046FFF718FB204600210A
:10208000FFF7DEFD20460421FFF7DAFD2046082198
:10209000FFF7D6FD20460021FFF738FA204604213D
:1020A000FFF734FA20460821FFF730FA10BD000090
:1020B00070B586B0002541F24C000595CDE9035579
:1020C000CDE90155C4F20200016840F6000441F078
:1020D000040101600168C4F6000401F004010091EC
:1020E00000990168002241F02001016001684FF46D
:1020F000C04601F0200100910099016841F0020101
:102100000160016801F0020100910099016841F04D
:102110000101016000684FF4C04100F0010000902F
:1021200000982046FEF79EFA01200196CDE90205AF
:1021300001A920460495FEF7BDF906B070BD000068
:1021400010B59CB0002401A83421CDE91A44CDE992
:102150001844CDE91644CDE91444CDE91244CDE943
:102160001044CDE90E44FEF729F940F2941042F6EE
:102170000041C2F20000C4F2010120224FF0800CA5
:10218000C0E9001400F1080142F234131CC1C0E997
:10219000054CFFF73FFA002818BFFEF785F94FF40A
:1021A0008050189040F29410C2F2000018A9FFF776
:1021B000DFFA002818BFFEF777F940F29410C2F258
:1021C0000000FFF707FD002818BFFEF76DF920207B
:1021D000159040F294100024C2F2000015A9CDE938
:1021E0001644FFF725F9002818BFFEF75DF97020A7
:1021F0000E9041F29410CDE90F0440F29410C2F217
:1022000000000EA90022CDE91144CDE91344FFF7E7
:1022100083FC002818BFFEF747F940F29410C2F281
:1022200000000EA90422FFF777FC002818BFFEF774
:102230003BF940F29410C2F200000EA90822FFF709
:102240006BFC002818BFFEF72FF94FF400600190D7
:102250004FF4806002904FF48070039064200490EB
:1022600000204FF400510590CDE906104FF00071A9
:10227000CDE90800CDE90A100C904FF480400D9094
:1022800040F29410C2F2000001A9FFF75DF80028A7
:1022900018BFFEF709F940F29410C2F20000FFF7F0
:1022A000DFFB1CB010BD000080B540F22C2043F6CF
:1022B0000001C2F20000C4F2010100234FF00C0C37
:1022C0004FF4E13280E80E00C0E90333C0E905C3F2
:1022D000C0E90733C0E90933FFF7EAFD002818BF5A
:1022E000FEF7E2F840F22C20C2F200000021FFF7D6
:1022F000B9FD002818BFFEF7D7F840F22C20C2F233
:1023000000000021FFF788FD002818BFFEF7CCF879
:1023100040F22C20C2F20000FFF762FD002818BF37
:10232000FEF7C2F880BD0000FEE70000FEE70000F7
:1023300000F0070080F00703042B28BF04234FF0B0
:10234000FF3C03380CFA03F338BF00209943814067
:102350000CFA00F022EA00000843704741F20C003A
:10236000C4F202000168016842F20042C1F30311A5
:1023700003680131C0F2F402B2FBF1F1C3F30622AB
:1023800000685143C0F34160022202EB4000B1FB00
:10239000F0F07047B0B501380024B4EB106F1CBFEB
:1023A0000120B0BD4EF21005CEF2000568604FF07E
:1023B000FF300F2100F040FE0720AC60286020466F
:1023C000B0BD000080B502F053FB03F055F902F0F8
:1023D0005DFB80BD70B594B006AC20463821FDF79A
:1023E000EDFF002500200595CDE90355CDE9015508
:1023F000FEF7E6F9012006904FF4803004210790A3
:10240000022003260F9155210D900E96CDE9101054
:10241000CDE912002046FEF74DFD68B90F20CDE949
:10242000010601A80421CDE903550595FEF7BEFB81
:10243000002804BF14B070BDFEF736F841F20C005E
:10244000C4F2020050F8041C42F2004201F00C03F6
:1024500040F20001C0F2F402042BC2F2000118BFE6
:10246000082B0ED10A6050F8040C45F6B062C0F398
:102470000310C0F60002105C0A6822FA00F008603F
:1024800070470C2BEFD103680368C3F3031303F108
:10249000010C0368B2FBFCFCC3F30623026803FBD8
:1024A0000CFCC2F34162022303EB4202BCFBF2F2DA
:1024B000D8E700004EF68850CEF20000016841F4E3
:1024C000700101607047000080B540F2E010C2F278
:1024D0000000FFF7E7F980BD80B540F6FF330268E2
:1024E000C4F2000343F2FF3C9842C4F2010C0ADD3F
:1024F00060452EDC40F60043C4F20003984234D01D
:1025000042F600432DE0B0F1804F2ED040F2004360
:10251000C4F20003984228D040F60003C4F200033E
:10252000984222D0604526DC40F2FF73C4F20003DB
:10253000984235DD40F60003C4F20003984243D0D0
:1025400040F60043C4F2000398423DD042F60043F7
:1025500036E045F20003C4F20103984205D043F28D
:102560000043C4F201039842DCD14B6822F07002B0
:102570001A436045D8DD44F2FF33C4F201039842A8
:1025800016DD44F20043C4F2010398421CD045F228
:102590000003C4F20103984216D044F600030FE092
:1025A000B0F1804F10D040F20043C4F2000309E0C4
:1025B00043F20043C4F20103984205D044F2000301
:1025C000C4F20103984203D1CB6822F440721A434B
:1025D0004B6922F0800E8A6843EA0E03D1F800C0EE
:1025E0000360C262A0F18042A2F596324FEAB222A5
:1025F000092AC0F828C008D8012303FA02F240F2E1
:10260000E5231A421CBF0969016301214161016987
:10261000C90708BF80BD016921F00101016180BDCA
:1026200080B501F01F014FF0010CD0F820E00CFA4A
:1026300001F32EEA03030362036A02FA01F119436C
:10264000016280BD80B501F00F014FF0040CD0F89D
:1026500020E00CFA01F32EEA03030362036A02FA94
:1026600001F11943016280BDD0F808C011432CF478
:102670007F4C41EA032141EA0C0181607047000070
:1026800082684FF68873CFF6CF731A40114341F03A
:102690000701816070470000B0B5046A036A4FF615
:1026A0008C7223F001030362D0F804E08369CFF653
:1026B000FE721A400B688D6842EA030CA0F180425A
:1026C000A2F5963224F002034FEAB222092A43EA25
:1026D00005030BD80124944040F2E5252C421FBF8E
:1026E000CC6823F00C0324F004042343092A0DD8FA
:1026F000012404FA02F240F2E52422421FBF2EF424
:102700004072D1E905542A4342EA040EC0F804E0BD
:10271000C0F818C0496841630362B0BDB0B5046A2F
:10272000036A48F6FF4223F010030362D0F804E086
:102730008369CFF6FF621A400B688D6842EA032C6A
:1027400042F6004324F02002C4F20103984242EA18
:1027500005130BD045F20002C4F20102904205D0ED
:1027600043F20042C4F20102904207D123F0C002BA
:10277000CB686FF0400404EA03131343A0F18042D6
:10278000A2F596324FEAB222092A0ED8012404FAA1
:1027900002F240F2E52422421FBF2EF44062D1E94A
:1027A000055442EA850242EA840EC0F804E0C0F80B
:1027B00018C0496881630362B0BD0000B0B5046A07
:1027C000036A4FF68C7223F480730362D0F804E03E
:1027D000C369CFF6FE721A400B688D6842EA030C9B
:1027E00042F6004324F40072C4F20103984242EA24
:1027F00005230BD045F20002C4F20102904205D03D
:1028000043F20042C4F20102904207D1CA6840F28A
:10281000FF44120223F44063A2431343A0F1804219
:10282000A2F596324FEAB222092A0ED8012404FA00
:1028300002F240F2E52422421FBF2EF44052D1E9B9
:10284000055442EA051242EA041EC0F804E0C0F84A
:102850001CC04968C1630362B0BD0000B0B5046A22
:10286000036A48F6FF4223F480530362D0F804E081
:10287000C369CFF6FF621A400B688D6842EA032CE9
:1028800042F6004324F40052C4F20103984242EAA3
:1028900005330BD045F20002C4F20102904205D08C
:1028A00043F20042C4F20102904207D1CA6844F6E2
:1028B000FF74120323F44043A2431343A0F1804268
:1028C000A2F596324FEAB222092A0ED8012404FA60
:1028D00002F240F2E52422421FBF2EF44042D1E929
:1028E000055442EA851242EA841EC0F804E0C0F8AA
:1028F0001CC0496801640362B0BD0000B0B5D0F8E7
:1029000020E0026A22F4803202624468036D4FF6CE
:102910008F72CFF6FE721A400B688D6842EA030C84
:10292000A0F18043A3F596332EF400324FEAB3238F
:10293000092B42EA054E0AD801229A4040F2E523CB
:102940001A421EBF4A6924F4803343EA02244460D9
:10295000C0F850C049688164C0F820E0B0BD0000F4
:10296000B0B5D0F820E0026A22F480120262446816
:10297000036D48F6FF72CFF6FF621A400B688D6850
:1029800042EA032CA0F18043A3F596332EF4001203
:102990004FEAB323092B42EA055E0AD801229A4086
:1029A00040F2E5231A421EBF4A6924F4802343EA19
:1029B00082244460C0F850C04968C164C0F820E077
:1029C000B0BD0000D0F820C0036A23F00103036209
:1029D000836923F0F00343EA02122CF00A0319433F
:1029E0008261016270470000D0F820C0036A23F0C2
:1029F00010030362836923F4704343EA02322CF02C
:102A0000A00343EA011182610162704780B5416E03
:102A100001B3016845F6E07C8A68C0F6000CC2F399
:102A20004262896845F6E87E490F1CF80130C0F61D
:102A3000000E1EF80110DB00B3FBF1F31CF80210CE
:102A40001EF80220C900B1FBF2F1A0F86A30A0F82C
:102A5000681080BD0121A0F86A10A0F8681080BD40
:102A600080B5816A0A070CD4CA0715D18A071ED41B
:102A70004A0727D4CA0630D48A0639D44A0657D51D
:102A800041E00268D0F838C0536823F4004343EAB9
:102A90000C035360CA07E9D00268D0F82CC0536811
:102AA00023F4003343EA0C0353608A07E0D502683D
:102AB000D0F830C0536823F4803343EA0C035360EA
:102AC0004A07D7D50268D0F834C0536823F480236E
:102AD00043EA0C035360CA06CED50268D0F83CC066
:102AE000936823F4805343EA0C0393608A06C5D5A8
:102AF0000268D0F840C0936823F4005343EA0C0303
:102B000093604A0614D50268D0F844C05368BCF5F7
:102B1000801F23F4801343EA0C03536008D1D2F8DA
:102B200004C0D0F848E02CF4C00343EA0E0353601D
:102B3000090658BF80BD0168C06C4A6822F40022B3
:102B40001043486080BD0000B0B582B0044600204C
:102B5000C4F89000FDF78CFD216805460968090757
:102B60001BD56FF07E4C20464FF4001100222B46FF
:102B7000CDF800C000F0E4F978B100BF206850E85B
:102B8000000F216820F0800041E80002002AF5D102
:102B90002020C4F88800032031E020680068400746
:102BA00025D56FF07E4C20464FF4800100222B4645
:102BB000CDF800C000F0C4F9C8B100BF206850E8EB
:102BC000000F216820F4907041E80002002AF5D13E
:102BD000206850E8020F216820F0010041E802025D
:102BE000002AF5D12020C4F88C00032007E0202023
:102BF000C4F88800C4F88C000020E066206700213B
:102C000084F8841002B0B0BD016851E8001F02686A
:102C100021F4907142E80013002BF5D14FF6FE7CB1
:102C2000CEF6FF7C026852E8022F036802EA0C022B
:102C300043E802210029F5D1C16E01290AD100BF64
:102C4000016851E8001F026821F0100142E80013FA
:102C5000002BF5D12021C0F88C100021C1664167FE
:102C600070470000F0B581B004462269D4E9021330
:102C7000006867690A43E1693A43076846F6F31654
:102C8000CCF6FF760A4337403A43026042684FF27F
:102C9000FF4622F440521A43426048F20002A36900
:102CA000C4F2000290421CBF276A3B438768C1F20E
:102CB000FF1637403B438360C36A676A23F00F0304
:102CC0003B43C36244F6FF73C4F2000398424FF0E3
:102CD000100318DC44F20047C4F20007B84227D0C2
:102CE00044F60007C4F20007B84228D044F6004773
:102CF000C4F20007B8423BD141F28803C4F2020398
:102D00001B689B092FE045F20007C4F20007B84298
:102D10001CD0904221D043F60007C4F20107B8420C
:102D200026D141F28803C4F202031B6880A71BE08E
:102D300041F28803C4F202031B689B0813E041F2CE
:102D40008803C4F202031B681B090CE041F28803EC
:102D5000C4F202031B681B0A05E041F28803C4F2B7
:102D600002031B689B0A6EA703F0030357F8233086
:102D7000904242F20040C0F2F40011D0B1F5004F91
:102D80001DD1082B00F26F800025DFE803F00568F5
:102D9000766C6F6C6C6C73000025FEF731F86CE09C
:102DA000082B1BD80027DFE803F0051920191D198F
:102DB000191951000027FEF723F8B8B94BE0082B8A
:102DC00000F281800025DFE803F0057A887E817EAD
:102DD0007E7E85000025FEF713F87EE000200127A7
:102DE00020B938E00027FEF733F8A0B3616A45F652
:102DF000C862C0F6000232F811206668B0FBF2F13A
:102E000006EB460399424FF00105C0F08080330382
:102E100099427CD800210023FDF798FA090241EA83
:102E20001061000210EB560041F100013246002310
:102E3000FDF78CFA4FF6FF42A0F54071C0F20F0289
:102E400091420AD821683D46C86060E04FF40040D6
:102E500000270028CAD13D4659E0012557E000254A
:102E6000FDF7E2FF09E00020012506E00025FDF75F
:102E7000EFFF02E04FF400400025002847D0616AD0
:102E800045F6C862C0F6000232F811106268B0FB65
:102E9000F1F0510801EB4000B0FBF2F04FF6EF7299
:102EA000A0F11001914208D84FF6F0710140C0F333
:102EB000420022680844D06029E0012527E000256F
:102EC000FDF7B2FF09E00020012506E00025FDF72F
:102ED000BFFF02E04FF400400025C0B1616A45F633
:102EE000C862C0F6000232F811106268B0FBF1F05F
:102EF00000EB5200B0FBF2F04FF6EF72A0F11001C0
:102F0000914203D8216880B2C86000E001254FF0EB
:102F100001100021A06661672846A16701B0F0BDDD
:102F20000000000004000000020000000800000093
:102F30000100000004000000020000000800000082
:102F40002DE9F04381B004460068C0690840401A8A
:102F5000B0FA80F0400990423DD1DDF8208015465E
:102F60000E46994608F1010709E000BF2068C069D4
:102F70003040801BB0FA80F04009A8422FD1002FCA
:102F8000F4D0FDF775FB0146B8F1000F4FF00300D8
:102F900026D0A1EB0901414522D8206801684907E4
:102FA000E4D5402EE2D0802EE0D0C16909071AD4C2
:102FB000C1690905DAD54FF4006101622046FFF7C7
:102FC00023FE2020C4F89000002084F88400032011
:102FD00001B0BDE8F083002001B0BDE8F08300201F
:102FE00001B0BDE8F083082505622046FFF70CFE1E
:102FF0000020C4F8905084F88400012001B0BDE89E
:10300000F0830000FEE70000002848BF704700F092
:103010001F01012202FA01F14EF200124009CEF224
:10302000000242F8201070474EF60C50CEF200001D
:103030000068C0F3022070474EF6145300F00F02F0
:10304000CEF2000309011A4400F16043B0F1FF3FE2
:10305000C8BF03F564421170704700004EF60C5172
:10306000CEF200010A684FF6FF031A4060F30A220D
:1030700042F0806040F0FD7008607047002804BF97
:1030800000207047C1B209B101200CE010F47F416B
:1030900002D0090A092006E010F47F0107BF010EE3
:1030A0001920090C112045F6E062C0F60002515CBF
:1030B0000844704780B501F03DFB80BD80B501F04C
:1030C00047FB80BD80B5143001F00EFD80BD0000CF
:1030D0002DE9F04188B090460D460646002102E0F9
:1030E0008D421FD00131705C092818BF2028F7D10C
:1030F000D9B1304601F0A6F8B8B16C460746204673
:103100000021202201F0DCFD30462946224601F054
:10311000FDF850B16946B847C8F80000002008B073
:10312000BDE8F08129460029E3D14FF0FF3008B017
:10313000BDE8F08110B544F2D401C2F20001096883
:1031400004460846FFF79AFF411E43F6D470C2F2C8
:10315000000050F831002160143810BDB0B502F005
:1031600007FA0446FDF754F80546204601F018FF1B
:1031700004F1440002F02AFB042084F834002046C5
:1031800002F07CF92846FDF747F801F055FEB0BD86
:103190002DE9F04782B00446DDF83090DDE90A8A77
:1031A00014301D4616460F4601F0A6FC2846232182
:1031B0004246C4E90876C4E90A5801F081FD04F1E9
:1031C00020030FCB1A4443F25D13043AC0F6000308
:1031D00001F02CFC43F20D22E061002704F14400D1
:1031E000C0F600022146234684F835A0C4E90E79D2
:1031F000C4F84090276384F83470C4E91C770097C2
:10320000019702F0F7FA02B0BDE8F087B0B50446C6
:10321000FCF7FEFF05466FF00100206304F1140087
:1032200001F0C8FC204601F085FE2846FCF7F4FFBB
:1032300001F002FEB0BD000080B5DDF808C000F16D
:103240001C0E0CF0FE0C80F809C014304FF0000C7E
:103250008EE80E1001F054FC80BD000080B51430E3
:1032600001F0B0FC80BD000010B54EF629541CA042
:10327000CEF2000401F018FC21781CA001F014FC2F
:103280002078C00702D01FA001F00EFC2078800734
:1032900002D51FA001F008FC2078400702D51FA02E
:1032A00001F002FC2078000702D520A001F0FCFB11
:1032B0002078C00602D520A001F0F6FB94F90000AA
:1032C000B0F1FF3F06DD46F29510C0F6000001F0B8
:1032D000EBFB10BDD4F80F1019A001F0E5FB10BDF9
:1032E000627573206661756C743A0A005343425FDD
:1032F000434653525F424653523A30782530325853
:103300002000000049425553455252200000000061
:10331000505245434953455252200000494D5052A6
:10332000454349534552522000000000554E535426
:103330004B4552522000000053544B45525220003E
:103340005343422D3E424641523A253038580A00F6
:1033500080B502A001F0A8FB002080BD1B5B324AB3
:103360001B5B480010B502281DD14C6846F2CC11F9
:10337000C0F600012046FDF73FF858B346F2EE11C3
:10338000C0F600012046FDF737F838B319A12046F2
:10339000FDF732F830B346F2DC11C0F600012046EA
:1033A000FDF72AF810B346F2ED00C0F6000001F078
:1033B0007BFB11A001F078FB12A001F075FB18A0B7
:1033C00001F072FB1DA001F06FFB23A001F06CFB6C
:1033D000002010BD00F0B0FC002010BD00F070FD1A
:1033E000002010BD00F010FC002010BD00F074FBA8
:1033F000002010BD73656D005B6F7074696F6E7334
:103400005D3A0A0020202020746872656164202DD6
:10341000206C69737420746872656164730A0000BB
:103420002020202074696D6572202D206C697374D2
:103430002074696D6572730A00000000202020204E
:1034400073656D202D206C6973742073656D6170D8
:10345000686F7265730A0000202020206D73677109
:1034600075657565202D206C697374206D657373A7
:10347000616765207175657565730A0003680246AA
:103480000A290CD14CF6CD40CCF6CC40A3FB000170
:10349000C90801EB8100A3EB40001160704703F005
:1034A0000F0019091160704710B544F2E410C2F220
:1034B0000000006890F82100800706D440F20C104C
:1034C000C2F20000002101701DE040F29010C2F233
:1034D0000000016840F20C14C2F2000439B140F25D
:1034E0000C10C2F200008022FCF773FF06E00020FF
:1034F000207147F26D30C2F2680020602046FCF770
:1035000074FF3E21215240F20C10C2F2000010BDA7
:1035100080B501F079F980BD44F2E411C2F20001F6
:10352000096800F0010091F8212002F0FD0242EA52
:10353000400081F82100704740F2FC02C2F2000214
:10354000106040F20010C2F20000016070470000FD
:10355000B0B582B046F22C3046F28C31C0F6000095
:10356000C0F60001FFF7E8FF0120782101F082F8A2
:1035700044F2E415C2F200052860F8B10A201521D2
:10358000CDE9001043F2F55110A0C0F60001002271
:103590004FF48063002401F033FF2A6805460DA133
:1035A00010460022002301F01DFD0120FFF7B4FFAB
:1035B0004DB1284602F006F8002404E007A001F00F
:1035C00073FA4FF0FF34204602B0B0BD74736865E3
:1035D0006C6C000073687278000000006E6F206DE4
:1035E000656D6F727920666F72207368656C6C0A06
:1035F0000000000044F2E419C2F20009D9F800000A
:1036000090F8211041F0010180F82110FFF74CFFE4
:1036100040F20C14C2F20004204601F045FA46F2D2
:10362000F41646F295174FF001084FF0000AC0F665
:103630000006C0F600074FF0020B01E080F8208082
:10364000FFF766FF0028FBD40546D9F800001B2DC4
:10365000F4D090F82010022908D0012940F07180A0
:103660005B2D40F06C8080F820B0E9E7A5F14101C6
:10367000022980F820A0E3D3442D00F28D80DFE8FA
:1036800015F04500D000D000D000D000D000D00010
:10369000D00090000C016C00D000D0006C00D00075
:1036A000D000D000D000D000D000D000D000D0009A
:1036B000D000D000D000D000D000D000D000D0008A
:1036C000D000D000D000D000D000D000D000D0007A
:1036D000D000D000D000D000D000D000D000D0006A
:1036E000D000D000D000D000D000D000D000D0005A
:1036F000D000D000D000D000D000D000D000D0004A
:10370000D000D000D000D0004600580198E7B0F8B3
:103710007610B0F874209142BFF492AF084490F84C
:10372000221046F2F610C0F6000001F0BDF9D9F8FB
:103730000000B0F876100131A0F8761080E780F82C
:1037400020A00D2D28D8DFE805F0076C6C6C6C6CA0
:103750006C6C2CA8086C6C0872E790F82100C0070C
:1037600002D0384601F0A0F9D9F80000B0F8741082
:10377000223000F033FDFFF797FE204601F094F968
:10378000D9F8000000212230512201F099FAD9F82D
:103790000000C0F874A053E7FF2D3FF451AF7F2D18
:1037A0003FD1B0F8761000293FF44AAFB0F874204A
:1037B0000139531E9AB2A0F874308BB29A42A0F825
:1037C000761040F2AB80C11801F122002331D21AE9
:1037D00001F058FAD9F80000B0F87410084480F8E5
:1037E00022A0D9F80000B0F87610084400F12201B8
:1037F00059A001F059F9D9F80010B1F87600B1F8E4
:10380000741088423FF61CAF451E00BF304601F0E1
:103810004BF9D9F800000135B0F874008542F5D3B2
:103820000EE7B0F87410502928BFA0F874A0B0F8C3
:103830007630B0F874209A424ED9C11801F12300B5
:103840002231D21A01F01EFAD9F80000B0F8761031
:10385000084480F82250D9F8000090F82110C907D8
:1038600007D0B0F87610084400F122013CA001F026
:103870001BF9D9F80000B0F87650B0F87400854212
:103880003AD200BF304601F00FF9D9F800000135F7
:10389000B0F874008542F5D32EE0D9F80000B0F8F6
:1038A000761059B1002500BF304601F0FDF8D9F877
:1038B00000000135B0F876108D42F5D3223002F0C9
:1038C000EBF9D9F8005005F12200FCF78EFDA5F8C0
:1038D0007400A5F87600B3E6104480F82250D9F8B9
:1038E000000090F82100C00706D046F2F610C0F69E
:1038F0000000294601F0D8F8D9F80000B0F874109B
:10390000B0F876200131A0F8741089B20132502944
:10391000A0F8762028BFC0F874A091E60DA001F0B1
:10392000C3F8D9F80000B0F87410084480F822A059
:1039300086E6B0F8760000283FF482AE304601F00B
:10394000B3F8D9F80000B0F876100139A0F8761075
:1039500076E600BF08200800082573202008000034
:103960002573000010B54EF62C54CEF200042068EA
:10397000800702D510A001F097F82068400011D50B
:1039800014F8030C002818BFFFF76EFC14F8040CA1
:10399000002818BF00F066FB34F8020C002818BF9E
:1039A00002F006FA2068B0F1FF3FC8BF10BD08A0C2
:1039B00001F07AF810BD00BF6661696C656420761D
:1039C0006563746F722066657463680A00000000A6
:1039D0006465627567206576656E740A0000000094
:1039E00080B582B043F615214FF00A0C08A0C0F64E
:1039F000000100224FF40073CDF800C0CDF804C0E0
:103A000001F0FEFC01F0DEFD002002B080BD00BF31
:103A10006C65640040F60004C4F6000407A500BF0E
:103A200020464FF40051FCF715FE284601F03CF803
:103A30004FF47A7001F028FDF2E700BF68656C6C06
:103A40006F2072747468726561640A0070B506460E
:103A5000084614460D4601F0B1F904303572C6E946
:103A6000000408200021C6E9030170BDF0B581B053
:103A70000646C86800240C6150B3087A0D46E0B1D0
:103A800034462F68002E08BF3C46FCF7C1FB36B118
:103A900014F8041C2A7A01F07F01914215D16A685A
:103AA000002100BF2468BC4209D0EB684E1C42F8DC
:103AB00021409E423146F5D103E0002408E0002475
:103AC0000E46FCF7A9FB2E6102E0FCF7A5FB0024E3
:103AD000204601B0F0BD00002DE9F04F91B004ADDB
:103AE0000CA806212A46FFF7B1FF46F2DC122FA0F0
:103AF000C0F60002082100F0D7FF00F08DFC32A0D4
:103B000000F0D2FF002002E0039800284AD00CA960
:103B1000FFF7ACFF109903900129F5DB9DF8389071
:103B2000DDF840A04FF0000B0DE000BF2CA00821F5
:103B300008223B46CDF80080019400F0B5FF0BF160
:103B4000010BD345E0DA55F82B40FCF761FB14F884
:103B5000041C01F07F06FCF75FFB4E45EFD104F13A
:103B600008063046A4F10C0700F0F0FFB4F8188006
:103B70000446304600F0FCFF002C0446D6D11DA0C0
:103B8000082108223B46CDF80080019400F08CFF0C
:103B9000304602F09BF846F29510C0F6000000F0A7
:103BA00083FFCCE7002011B0BDE8F08F252D2A2E31
:103BB0007320656E7472792073757370656E6420FE
:103BC0007468726561640A00202D2D2D2D20202D32
:103BD0002D2D2D2D2D2D2D2D2D2D2D2D2D0A000092
:103BE000252D2A2E2A732025303464202025640AAE
:103BF00000000000252D2A2E2A7320253034642051
:103C00002025643A000000002DE9F04F91B004AD8A
:103C10000CA802212A46FFF719FF2FA035A2082180
:103C200000F042FF00F0F8FB35A000F03DFF00205F
:103C300003E000BF039800284AD00CA9FFF716FF45
:103C4000109903900129F5DB9DF83890DDF840A02C
:103C50004FF0000B0DE000BF2FA0082108223B46CB
:103C6000CDF80080019400F01FFF0BF1010BD3454C
:103C7000E0DA55F82B40FCF7CBFA14F8041C01F0FD
:103C80007F06FCF7C9FA4E45EFD104F1080630462D
:103C9000A4F10C0700F05AFFB4F810800446304637
:103CA00000F066FF002C0446D6D11FA00821082290
:103CB0003B46CDF80080019400F0F6FE304602F05D
:103CC00005F846F29510C0F6000000F0EDFECCE7D6
:103CD000002011B0BDE8F08F252D2A2E732076200C
:103CE000202073757370656E6420746872656164FA
:103CF0000A00000073656D6170686F7265000000F6
:103D0000202D2D2D202D2D2D2D2D2D2D2D2D2D2DFD
:103D10002D2D2D0A00000000252D2A2E2A73202586
:103D20003033642025640A00252D2A2E2A7320258D
:103D30003033642025643A002DE9F04FB1B00DF125
:103D4000900A2CA801215246FFF780FE46F20E1081
:103D500046F2CC12C0F60000C0F60002082100F0C6
:103D6000A3FE00F059FB3BA000F09EFE002002E005
:103D70000398002869D02CA9FFF778FE30990390AA
:103D80000129F5DB9DF8B870309D4FF00009CDE9B1
:103D9000045706E03046FCF73FFA09F10109A9454E
:103DA000E6DA5AF82940FCF733FA14F8041C064600
:103DB00001F07F01B942EDD1A4F10C0706A8394604
:103DC000782200F019FF3046FCF726FA94F82960B3
:103DD00030A0082108223B46009600F065FE94F8CA
:103DE0002800F12100F0070080F00400C140C9075D
:103DF00004D02BA151F8200000F056FEE069411ECE
:103E000011F8010F2328FBD0D4E907362269711A73
:103E1000606A9D19194464235943D4F834B0B1FB46
:103E2000F6F7A5EB020801F051FA044646F25210EB
:103E3000C0F60000414632463B46CDF800B0019442
:103E400000F032FEDDE90457A7E7002031B0BDE8FD
:103E5000F08F00BF202D2D2D20202D2D2D2D2D2D2F
:103E60002D202D2D2D2D2D2D2D2D2D2D202D2D2D9C
:103E70002D2D2D2D2D2D2D20202D2D2D2D2D2D2099
:103E8000202D2D2D2D2D2D2D2D2D2D202D2D2D0A9F
:103E900000000000252D2A2E2A73202533642000DF
:103EA000AD610008B6610008B6610008B66100089F
:103EB000A4610008B6610008D3610008E56100084C
:103EC0002DE9F04F91B004AD0CA80A212A46FFF766
:103ED000BDFD46F2EE1234A0C0F60002082100F04B
:103EE000E3FD00F099FA3DA000F0DEFD46F29717E1
:103EF00046F204160020C0F60007C0F6000602E0F5
:103F00000398002842D00CA9FFF7B0FD1099039048
:103F10000129F5DB9DF83880DDF840904FF0000A6C
:103F200004E000BF0AF1010ACA45E9DA55F82AB0EF
:103F3000FCF76EF91BF8041C01F07F04FCF76CF928
:103F40004445EFD1DBE90604ABF10C0300902FA050
:103F500008210822019400F0A7FD1BF8030C46F28B
:103F6000BF11C0073846C0F6000108BF084600F080
:103F70009BFD1BF8030C46F2781180073046C0F613
:103F8000000158BF084600F08FFDCBE701F06EFB43
:103F9000014646F28210C0F6000000F085FD0020C8
:103FA00011B0BDE8F08F00BF252D2A2E73202070A0
:103FB0006572696F64696320202074696D656F752F
:103FC0007420202020616374697661746564202008
:103FD0002020206D6F64650A00000000202D2D2D2B
:103FE0002D2D2D2D2D2D2D202D2D2D2D2D2D2D2D0E
:103FF0002D2D202D2D2D2D2D2D2D2D2D2D2D202D0B
:104000002D2D2D2D2D2D2D2D0A000000252D2A2E94
:104010002A73203078253038782030782530387869
:1040200020000000FCF738FBFEF7D4F9FEF740F85B
:10403000FEF73AF9FEF784F8FEF718F840F60004A8
:10404000C4F6000420464FF48041FCF703FB4FF414
:10405000FA7001F069FAF5E780B500F031FBFFF77F
:10406000E1FF80BD10B54EF6285419A0CEF2000431
:1040700000F01AFD21781BA000F016FD2078C00783
:1040800002D01EA000F010FD2078800702D51EA0EF
:1040900000F00AFD2078000702D51EA000F004FD04
:1040A0002078C00602D51EA000F0FEFC94F90000A6
:1040B000B0F1FF3F06DD46F29510C0F6000000F0BB
:1040C000F3FC10BDE16819A000F0EEFC10BD00BFCC
:1040D0006D656D206D616E616765206661756C74DC
:1040E0003A0A00005343425F434653525F4D4653E2
:1040F000523A30782530325820000000494143437D
:1041000056494F4C200000004441434356494F4C10
:10411000200000004D554E53544B45525220000094
:104120004D53544B45525220000000005343422D42
:104130003E4D4D41523A253038580A002DE9F0479E
:1041400004460078A8B340F2FC0040F2001AC2F224
:104150000000C2F2000A0768DAF8000087422CD299
:1041600000250FF274084FF000090FE04846314671
:1041700001F0EEFDA842B8BF05464046314600F0CA
:1041800093FCDAF800000C37874219D23E682046CB
:10419000FCF72BF9024620463146FCF73BF9002894
:1041A000EFD1002DE2D13046FCF71FF90546B146AC
:1041B000DCE700F06FF8BDE8F0874FF0000900255C
:1041C000B9F1000F08BFBDE8F087204649462A46EE
:1041D00001F0AAF8BDE8F08725730A0010B582B097
:1041E00049B104462078202818BF092806D1013992
:1041F00004F10104F6D1002002B010BD01AA20464E
:10420000FEF766FF78B1A01E8178013011F0DF0F54
:10421000FAD10021417005A0214600F045FC4FF085
:10422000FF3002B010BD019802B010BD25733A20D6
:10423000636F6D6D616E64206E6F7420666F756E56
:10424000642E0A002DE9F04140F2FC02C2F20002A5
:10425000176840F20012C2F2000213689F4216D2A1
:10426000D2F800800C46054603E000BF0C374745F6
:104270000DD23E68294630462246FCF7CBF800288E
:10428000F4D1305D0028F1D1B868BDE8F08100209C
:10429000BDE8F08170B513A000F006FC40F2FC0010
:1042A00040F20015C2F20000C2F200050068296861
:1042B00088420ED2A0F10C0611A400BF56F80C1FC4
:1042C0002046726800F0F0FB286806F10C0181427C
:1042D000F4D346F29510C0F6000000F0E5FB002094
:1042E00070BD00BF52542D546872656164207368BC
:1042F000656C6C20636F6D6D616E64733A0A0000CB
:10430000252D313673202D2025730A002DE9F0412B
:10431000904600294FF000024FF000044FD00026D5
:1043200003E000BF00F8012C0136013010F8013C19
:10433000202B18BF092B01D18E42F3D3082C41D278
:104340008E423CD2222B28D148F82400731C0778D7
:104350008B424FF0000538BF0125222F04F10104E4
:104360000FD165B300F8012B023626E01E4610F887
:10437000017F01338B424FF0000538BF0125222F0A
:10438000EFD08B42EDD25C2FF0D1074617F8015FDA
:10439000222D04BF3846B31CE8E7013848F8240052
:1043A00001340378092B18BF202B04D08E4202D28F
:1043B00001300136F5E78E4201D28E42B5D3204658
:1043C000BDE8F0810BA000F06FFB002511A600BF37
:1043D00058F82510304600F067FB0135A542F7D3A9
:1043E00046F29510C0F6000000F05EFB2046BDE8E6
:1043F000F08100BF546F6F206D616E79206172672C
:10440000732021205765206F6E6C79205573653AB3
:104410000A00000025732000B0B56FF0070503A463
:10442000204600F041FB0135FAD3B0BD2D0000005D
:1044300080B5D0F828C04A680CEB02038B4214D038
:104440001A78D20711D1C26A93420ED0026B4FF094
:10445000000E9A4208BF01635A68C3F800E04A6040
:104460005A68A1EB0C0362449360D1F808E00CEBAE
:104470000E028A4208BF80BD1378DB070BD1036BA5
:104480008B4208BF026348680023506048680B6095
:104490006044C0F808E080BD2DE9F04F87B0DDF83A
:1044A00048A004465FEA4A6046F2FD2046F29C2B93
:1044B000C0F60000C0F6000B58BF83465FEACA6032
:1044C0000D4648BF2AF0010A5FEACA704FF030017A
:1044D0001E4608BF20215FEA8A70069201D40020A0
:1044E0000DE0B2F1FF3F07DD5FEA4A705ABF2020BE
:1044F00000EA8A002B2002E0504206902D20019015
:1045000006980091A8B10698C0B14FF0000906AF17
:104510000DF1080838463146FEF7B0FF1BF80010D1
:10452000069A09F1010008F80910002A8146F1D124
:1045300005E030208DF80800012000E00020119EE9
:10454000109BB0423246C8BF02461AF0110FA3EBCF
:10455000020105D0DDF804C0BCF1000F24D129E030
:10456000DDF804C00027BCF1000FE64618BF4FF08D
:10457000010E0029C8BF012707EA0E07C91B012940
:1045800059DB79421944891A202300BFAC42A1F1BA
:10459000010138BF2370002904F10104F6DC4FF05B
:1045A000FF31BCF1000F05D0AC4238BF84F800C029
:1045B000013901345FEACA630DD4012937DB009B5E
:1045C000AC42A1F1010138BF2370002904F10104BC
:1045D000F6DC4FF0FF31B04209DA3023AC42A2F1F1
:1045E000010238BF2370904204F10104F6DB66B18A
:1045F00001280ADB02AA013AAC423CBF135C2370DB
:1046000004F101040EB10138F6DC01290BDB481C72
:10461000202100BFAC42A0F1010038BF2170012869
:1046200004F10104F6DC204607B0BDE8F08F013943
:10463000B042D2DBDBE70139BCF1000FB4D1B9E7FE
:1046400080B582B00A2044F259014FF0140C00905A
:1046500006A0C0F6000100224FF48063CDF804C02C
:1046600000F0CEFE00F0AEFF02B080BD6D61696E5D
:1046700000000000B0B501FB00F4204600F0AAFAEB
:10468000054620B128460021224600F019FB2846A5
:10469000B0BD0000B0B546F21C3446F21430C0F68E
:1046A0000004C0F60000A04228BFB0BD46F2143599
:1046B000C0F6000555F8040B8047A542FAD3B0BDFB
:1046C000B0B546F2283446F21C30C0F60004C0F6FD
:1046D0000000A04228BFB0BD46F21C35C0F6000560
:1046E00055F8040B8047A542FAD3B0BD70B500F071
:1046F000ADFE002808BF70BD044603E000F0A6FE32
:104700000446A8B1266F204600F092FB054601281A
:1047100002D1204600F042FB0EB12046B047002DEA
:10472000ECD1A06A00F034F8204600F025FBE5E764
:1047300070BD000080B5FBF76BFD43F6D071C2F28F
:1047400000010A8801320A80FBF766FD80BD000087
:1047500080B5FBF75DFD43F6D071C2F200010A8817
:10476000013A13B2002B0A8002DDFBF755FD80BD34
:1047700000220A80FBF750FD40F23C30C2F20000FC
:104780000068002808BF80BD00F056FB80BD000017
:10479000002808BF704710B50446FEF78BFC204682
:1047A00000F000FDFEF78AFCBDE8104070470000F5
:1047B00040F24430C2F200007047000040F2443042
:1047C000C2F2000000F570507047000010B5FBF712
:1047D00063FFFDF7FFFDFDF731FEFCF70BFB44F631
:1047E000D351C1F26201A0FB01018809FCF7A2FDCF
:1047F000FFF750FFFFF7DCFF0446FFF7DFFF01463E
:10480000204600F0ABFD10BD80B540F26800C2F25A
:1048100000000068C169890605D40A2000F084FE02
:10482000FF20C0B280BD406AC0B280BDF0B581B08B
:1048300004460D208DF8030040F26800C2F200002B
:10484000002180F88410204600F066FDE0B140F2BF
:1048500068060546C2F200060DF103070AE000BF34
:104860003046214601220123FDF79CFB013D04F166
:10487000010409D020780A28F2D1304639460122B5
:104880000123FDF78FFBEBE701B0F0BD10B540F25F
:104890004031C2F200010968044629B104F1280040
:1048A0008847002808BF10BD616C46F27F20C0F623
:1048B000000000F0F9F8A16A46F23E20C0F60000C0
:1048C00000F0F2F8E16A46F24B20C0F6000000F07A
:1048D000EBF8216B46F25820C0F6000000F0E4F837
:1048E000616B46F26520C0F6000000F0DDF8A168BB
:1048F00046F27220C0F6000000F0D6F8E16823A06E
:1049000000F0D2F8216925A000F0CEF8616927A057
:1049100000F0CAF8A16929A000F0C6F8E1692BA04F
:1049200000F0C2F8216A2DA000F0BEF8616A2FA045
:1049300000F0BAF8A16B31A000F0B6F8E16B33A03B
:1049400000F0B2F8216C35A000F0AEF820784007F6
:1049500006D446F2F910C0F6000000F0A5F808E011
:1049600000F006FE014646F21320C0F6000000F0FB
:104970009BF82078C00605D446F23020C0F600002F
:1049800000F092F8FEF7EEFFFEE700BF7230353A16
:10499000203078253038780A000000007230363A2E
:1049A000203078253038780A000000007230373A1D
:1049B000203078253038780A000000007230383A0C
:1049C000203078253038780A000000007230393AFB
:1049D000203078253038780A000000007231303AF3
:1049E000203078253038780A000000007231313AE2
:1049F000203078253038780A000000007231323AD1
:104A0000203078253038780A00000000206C723A97
:104A1000203078253038780A000000002070633A92
:104A2000203078253038780A0000000070B5043254
:104A300022F0070E4BF6EF64AEF1440C6FF0470224
:104A4000CDF6AD640EEB02050432161D6C60F9D193
:104A500000224FF080744EE908124EE906224EE91A
:104A600004234EE9020460464EF8442C70BD000059
:104A700080B5FBF7CDFB43F64871C2F200010A781E
:104A800001320A70FBF7C8FB80BD000080B5FBF760
:104A9000BFFB43F64871C2F200010A78013A0A707E
:104AA000FBF7BAFB80BD000083B070B581B043F660
:104AB0005074844605A8C2F200040EC005AB20461F
:104AC0007F21624600937F2600F004FF05467F2881
:104AD000204628BF3546FFF7A9FE284601B0BDE8AD
:104AE000704003B070470000C0E90000704700004C
:104AF000C0E9000070470000C0E9000070470000F6
:104B0000C0E900007047000040F25401C2F2000109
:104B10000A68506002600860416070470268516036
:104B20000A60016048607047026851600A60016075
:104B300048607047026851600A60016048607047D1
:104B4000426811604A604160086070470168081A55
:104B5000B0FA80F0400970470168081AB0FA80F096
:104B6000400970470168081AB0FA80F040097047A0
:104B700001464FF0FF300A46126801308A42FBD1ED
:104B800070470000D0E900124A6042681160C0E935
:104B900000007047D0E900124A6042681160C0E925
:104BA00000007047D0E900124A6042681160C0E915
:104BB00000007047D0E900124A6042681160C0E905
:104BC00000007047D0E900124A6042681160C0E9F5
:104BD0000000704710B50446FEF76CFA44F2E81086
:104BE000C2F200000068214600F06EFA0446FEF7AB
:104BF00065FA204610BD000080B5102A03D341EAB3
:104C000000039B070DD08446002A08BF80BD0139F0
:104C1000ACF1010311F801CF013A03F801CFF9D14A
:104C200080BD102A1FD3A1F1100EA0F110039446ED
:104C30005EF8101FACF1100C43F8101FDEF80410E2
:104C4000BCF10F0F5960DEF808109960DEF80C1007
:104C5000D960EDD802F00F020EF1100103F1100C33
:104C6000042AD1D302E08446042ACDD3134600BFE0
:104C700051F804EB043B032B4CF804EBF8D802F09A
:104C80000302C1E781420DD28B1883420AD9AAB12F
:104C9000A1F1010C431E00BF1CF802109954013A07
:104CA000FAD10BE0002A08BF70470139431E00BF4C
:104CB00011F801CF013A03F801CFF9D17047000094
:104CC00010B50446042A5FFA81FC01D3A00707D07F
:104CD00020461AB111466246FBF769FB204610BD1B
:104CE0004CEA0C20102A40EA004111D3A4F1100034
:104CF000134600BF103B40F8101F0F2BC0E90111F5
:104D0000C160F7D802F00F021030042AE1D302E0AC
:104D10002046042ADDD31346043B032B40F8041B32
:104D2000FAD802F00302D4E72DE9F041884607469D
:104D300000F044F80546C068FFF74CFF4FF000064E
:104D4000B8B1EA6800210446FFF7BAFF20464146A1
:104D500008222772667200F0E7FAFBF759FA064656
:104D6000281D04F10C01FFF7D9FE3046FBF754FA79
:104D700026463046BDE8F081B0B5044600202072DA
:104D8000FBF746FA054604F10C00FFF703FF28463F
:104D9000FBF742FA2046FFF7FBFCB0BDB0B5044676
:104DA00000202072FBF734FA054604F10C00FFF7EF
:104DB000F1FE2846FBF730FAB0BD000040F20402D5
:104DC0000021C2F2000200BF535C834204BF5018AE
:104DD00070471031502904BF00207047F4E70000ED
:104DE000F0B581B00446084615460F46FFF7E6FFCA
:104DF0000646FFF79FFC0436304600BF0068B0420D
:104E0000FCD1FFF7A5FC47F0800020722046294620
:104E1000082200F089FAFBF7FBF9054604F10C01C2
:104E20003046FFF77BFE2846FBF7F6F901B0F0BDF0
:104E3000007AC00970470000F0B581B0FBF7E8F9CF
:104E400043F6D071C2F200010988044619B1204628
:104E5000FBF7E2F96CE044F2D400C2F20000006813
:104E6000B0B16846FEF766F940F23C37C2F200077F
:104E70003D68064695F8341001F00702032A0BD16D
:104E800095F83500009A82422CD900202E4630E059
:104E9000002000284CD1DAE70020AE422FD0009944
:104EA00040F23832C2F2000211703E6010B1284662
:104EB00000F040F8304600F073F896F8340000F047
:104EC000F800033086F8340043F64870C2F2000060
:104ED000017805F11C00002906F11C011CD0FBF72C
:104EE0009EF917E0504001F00802104314BF012062
:104EF0002E4601F0F70185F83410AE42CFD1284696
:104F000000F04EF8386890F8341001F0F8010331E1
:104F100080F83410002005E0FBF781F92046FBF70C
:104F20007BF90220002808BF002000283FF48FAF43
:104F300001B0F0BDB0B50546FBF76AF9044640F292
:104F40003C30C2F20000006895F83410A84201F02D
:104F5000F80012D040F0010085F8340095F83500D3
:104F600043F6D472C2F20002090702EBC00005F159
:104F7000140107D4FFF7D8FD06E040F0030085F8E0
:104F8000340009E0FFF7DCFD44F2D401C2F2000175
:104F9000A86B0A68104308602046FBF73DF9B0BDD6
:104FA000B0B50546FBF734F9044605F11400FFF7E8
:104FB000F9FD95F8350043F6D471C2F2000101EB1A
:104FC000C000FFF7C9FD40B144F2D401C2F20001B4
:104FD000A86B0A6822EA000008602046FBF71CF96B
:104FE000B0BD000070B515460A4602211C460646B3
:104FF000FFF7F6FE3046FEF765F80020B5837472C1
:1050000070BD000080B582B046F28C20C0F6000072
:10501000FFF74AFD09A0FFF747FD14A00FF2400C6F
:10502000009015A0042101220123CDF804C0FFF750
:105030003BFD1AA0FFF738FD02B080BD2D20525471
:10504000202D2020202020546872656164204F703C
:1050500065726174696E672053797374656D0A00B7
:1050600030313A34343A3330000000004D61722060
:105070003234203230323500202F207C205C20203A
:1050800020202025642E25642E2564206275696CFD
:10509000642025732025730A000000002032303080
:1050A00036202D203230323220436F70797269679A
:1050B00068742062792052542D54687265616420AE
:1050C0007465616D0A0000002DE9F04181B1033182
:1050D00021F00301D0F834C00C2998BF0C218C4575
:1050E00006D3826A036BACEB01049B1AA34202D97C
:1050F0000020BDE8F081D0F828E00EF1040502E0C0
:10510000EB58A342F4D81EF80320D207F8D10EEBD7
:105110000308D8F8046003F10C07F21B8A42EFD3AE
:1051200001F11804A24205D2F11AD0E90823114472
:105130008B4218E001F10C0439440EEB010220F01F
:1051400001055660C8F804104EF8015055680CF17E
:105150000C07BD4293601CBF0EEB05029160D0E9C5
:10516000081221448A42016238BF4162016B40F05B
:1051700001024145C8F8002010D1016B0A78D2071E
:105180000CD0C36A99421FBF4A680EEB020101634B
:105190001EF8022018BF5FEAC272F3D108F10C00BA
:1051A000BDE8F081002808BF704780B5014602467F
:1051B00051F80C0D20F00100036B08608B4288BF92
:1051C000016352F8082C836AD0F820C08A1AD21AD8
:1051D00062440262FFF72CF9BDE88040704700008E
:1051E0002DE9F0470A4422F00306192E09D305469B
:1051F000C81C20F0030404F13800A6F11803834210
:1052000005D21CA0FFF750FC0020BDE8F08704F198
:105210003B0020F00307A6EB0708204600213822B8
:10522000A8F118094FF0000AFFF74AFD20460C21AB
:105230002A46FFF7D5FD0DA004F1140181E8810293
:10524000A8F10C0044F001013246C4F83490A76282
:10525000C7E9004042F80C1DC7F808A0E26246E921
:10526000020020462763BDE8F08700BF736D616CC4
:105270006C0000006D656D20696E69742C2065728C
:10528000726F7220626567696E2061646472657313
:105290007320307825782C20616E6420656E642040
:1052A0006164647265737320307825780A000000A9
:1052B00082B080B582B0CDE9042304AA019200F047
:1052C000C5FC02B0BDE8804002B07047002848BF6E
:1052D00040420B28D9BF04A151F8200046F2E72034
:1052E000C0F60000704700BFAD620008CA62000847
:1052F000DF620008B7620008F5620008BF620008BC
:10530000D0620008EF620008C6620008D762000899
:10531000B0620008E7620008411E00BF11F8012FCB
:10532000002AFBD1081A704710B5044662B1C2F1D9
:105330000102601C0B7800F8013C3BB101320131E5
:10534000012A00F10100F5D1204610BD002AFBD052
:105350005142FBF733F8204610BD000080B50346EC
:10536000033020F0030021F003010A1A04A01946BB
:10537000FFF736FF44F2E811C2F20001086080BD79
:105380006865617000000000B0B543F6D07043F668
:10539000D475C2F200000024C2F20005048000BFF0
:1053A0002819FFF7A5FB0834B4F5807FF8D144F243
:1053B000D400C2F2000000210160B0BD10B582B07F
:1053C00001A8FDF7B7FE044640F23C30C2F20000EF
:1053D00004602046FFF7E4FD032084F8340004F164
:1053E0001C00FAF762FF02B010BD000080B540F269
:1053F0000410C2F20000FFF783FB80BD704700007D
:10540000F0B583B00E46014601201F461546FFF752
:105410008BFC88B104463846FFF7DCFB70B10346CD
:10542000DDE9080C3146CDE9007020462A46CDF86A
:1054300008C0FDF7ADFE05E0002403E02046FFF7BD
:105440009BFC0024204603B0F0BD000070B540F284
:105450005400C2F20000056885420CD0A5F1140486
:10546000FAF7D6FE06462846FFF78CFB3046FAF7D9
:10547000D3FE204670BD0024204670BD80B5143098
:10548000FFF742FB80BD000080B500F077F880BDDB
:10549000FFF72CF9FCE70000B0B586B004AC12A110
:1054A00020460022FFF704FF44F2D8024FF4807137
:1054B000C2F2000240F2C0251F20CDE90021C2F255
:1054C000000545F291424FF0200C0290C0F6000218
:1054D000284621460023CDF80CC000F009F82846E4
:1054E00000F070F806B0B0BD7469646C65256400A6
:1054F0002DE9F04784B015460A46DDE90C86DDE962
:105500000E9A01211C460746FFF76AFC38462946D9
:1055100022464346CDE90069CDF808A0FDF738FEE4
:10552000002004B0BDE8F08780B500F081F800F0FD
:1055300025F880BDB0B5044690F8340000F00700AF
:1055400002281CBF4FF0FF30B0BDFAF761FE0546E0
:1055500004F11400FFF72EFB04F1440000F0A2F95F
:105560002046FFF7E7FC2846FAF756FE0020B0BDBC
:1055700040F23C30C2F2000000687047F0B581B0E4
:105580000090FFF7F5FF0446FAF742FE05460027B4
:105590002046276300F02AF804F144066A463046A4
:1055A000002100F0E9F8304600F03AF92846FAF711
:1055B00033FEFFF741FC206B023008BF2763206BEE
:1055C00001B0F0BD80B590F83510012202FA01F16A
:1055D0008163022180F83410FFF7ACFFFFF7C8FFAA
:1055E000002818BFFFF728FC002080BDB0B5044696
:1055F00090F8340000F00500023003281CBF4FF083
:10560000FF30B0BDFAF704FE05462046FFF7C8FCA0
:1056100094F8340000F0F800023084F8340004F10B
:10562000440000F03FF92846FAF7F6FD0020B0BD2F
:10563000002844BF4FF0FF30704744F6D351C1F209
:10564000620150FB01F2931103EBD2724FF47A73B3
:1056500002FB1300584300F2E73050FB01F08111C8
:1056600001EBD07002FB03007047000044F2DC1035
:10567000C2F200000068704710B5FAF7C9FD44F2A5
:10568000DC11C2F200010A680446501C0860FFF7F2
:105690006FFF016C0139016405D02046FAF7BCFDAB
:1056A00000F012F810BDC16B90F83420016442F094
:1056B000080180F834102046FAF7AEFDFFF7BCFB76
:1056C00000F002F810BD00002DE9F04782B06846F6
:1056D000FFF716FAFFF7CAFF0746FAF799FD40F2FF
:1056E0000415C2F2000580462846FFF73BFA28B1B0
:1056F0004046FAF791FD02B0BDE8F0874FF6FE7A1A
:10570000C7F6FF7AE94604E02846FFF72BFA00289F
:10571000EED12C686069381A5045E9D8A4F1140616
:105720003046FDF79BFD14F80B0C81075CBF00F0C1
:10573000FE0004F80B0C48462146FFF7FBF9D4E9BC
:1057400002108847FFF792FF07464846FFF70AFA1C
:105750000028D9D12046FFF735FA14F80B0C00F0D9
:1057600003010329D0D100F0FE0004F80B0C3046F1
:1057700000F056F8C8E7000070B514460E4605461E
:10578000FAF746FD052E1DD8DFE806F00306090EE0
:10579000131A2168696215E0696A216012E0697A6A
:1057A00001F0FD0169720DE0697A41F00201697250
:1057B00008E0697AC9070CBF00210121216001E0DE
:1057C000A96A2160FAF728FD002070BDB0B5044633
:1057D000FAF71EFD05462046FDF740FD607A00F011
:1057E000FE0060722846FAF717FD2046FFF7D6FA4A
:1057F0000020B0BD2DE9F04182B015460A46DDE932
:1058000008860A211C460746FFF7EAFA3846294669
:10581000224643460096FDF70FFD02B0BDE8F08139
:1058200070B582B00446FAF7F3FC06462046FDF751
:1058300015FD607A00F0FE006072FFF717FF616AE5
:10584000014440F20410C2F200004268A1628242A8
:10585000019010D04FF6FE72C943C7F6FF7203469F
:105860001B685B690B44934205D3019B45681B6829
:105870009D420193F4D144F2E010C2F200000168AD
:1058800001310160019804F11401FFF753F9607AC6
:1058900040F0010060723046FAF7BEFC002002B012
:1058A00070BD0000B0B50446407AC00704BF4FF099
:1058B000FF30B0BDFAF7ACFC05462046FDF7CEFC44
:1058C000607A00F0FE0060722846FAF7A5FC00201E
:1058D000B0BD00002DE9F04F85B01E468A46044653
:1058E00045184FF0200B0492002948BF4FF0FF35B8
:1058F00003900FE059F8042B5FFA88F620462946FA
:10590000CDE9007C0296FEF7C7FD4E460499044699
:105910000131049104980078252807D0002800F070
:105920008281AC4238BF2070601CEFE704984FF0D2
:10593000000801300178A1F12003102B16D81022A5
:10594000DFE803F00E1414101414141414141412B9
:10595000140A14140900012248EA02080130E9E798
:105960000822F9E72022F7E70422F5E7A1F1300247
:10597000092A049004D804A800F0CAF907460EE0EA
:105980002A290AD10130049056F8047BB7F1FF3F71
:10599000DCBF7F4248F0100801E04FF0FF37049869
:1059A00001782E290CD1024612F8011FA1F1300313
:1059B000092B049207D804A800F0AAF90CE000BF54
:1059C0004FF0FF3C0AE02A2904D10230049056F837
:1059D000040B01E04FF0FF3020EAE07C049AB1466E
:1059E000117841F004036C2B06BF013204920021B0
:1059F000049A1278253A532A00F264800A23DFE8D9
:105A000012F05B00610061006100610061006100F3
:105A1000610061006100610061006100610061007E
:105A2000610061006100610061006100610061006E
:105A3000610061006100610061006100610061005E
:105A4000610061006100610061006100610061004E
:105A5000610061006100610061006100610061003E
:105A600061006100610061006F0061006100610020
:105A700061006100610061006100610061008000FF
:105A80005400610061006100610054006100610028
:105A90006100610061009100960061006100AB004F
:105AA0006100720061006100710048F002080A2381
:105AB0006C293FF41FAF19E0AC423CBF2520207099
:105AC000601C22E7AC423CBF25202070049A601C79
:105AD000117800296CD0A84238BF0170A01C14E7CF
