:020000040800F2
:1000000040470020ED01000889400008F90200087F
:1000100085400008750B0008A15000080000000092
:10002000000000000000000000000000FF010008C8
:10003000790B0008000000003F020008614400083E
:10004000070200080702000807020008070200086C
:10005000070200080702000807020008070200085C
:10006000070200080702000807020008070200084C
:10007000070200080702000807020008070200083C
:100080000702000807020008E90900080702000843
:10009000070200080702000807020008070200081C
:1000A000070200080702000807020008070200080C
:1000B000070200080702000865450008070200085B
:1000C00007020008070200080702000807020008EC
:1000D00007020008070200080702000807020008DC
:1000E00007020008070200080702000807020008CC
:1000F00007020008070200080702000807020008BC
:1001000007020008070200080702000807020008AB
:10011000070200080702000807020008070200089B
:10012000070200080702000807020008070200088B
:10013000070200080702000807020008070200087B
:10014000070200080702000807020008000000007C
:10015000000000000000000000000000000000009F
:10016000000000000000000000000000070200087E
:10017000070200080702000807020008070200083B
:10018000070200080702000807020008070200082B
:10019000070200080000000007020008070200082C
:1001A000070200080702000807020008070200080B
:1001B00007020008070200080702000807020008FB
:1001C00007020008070200080702000807020008EB
:1001D0000702000807020008DFF80CD000F0ECFB73
:1001E00000480047DD0900084047002006488047D6
:1001F00006480047FEE7FEE7FEE7FEE7FEE7FEE70C
:10020000FEE7FEE7FEE7FEE751450008D9010008DA
:10021000EFF3108072B6704780F310887047444A3D
:100220001368012B04D04FF001031360414A1060A2
:10023000414A116041484FF0805101607047EFF32F
:10024000108272B63A48016851B34FF00001016064
:100250003848016891B1EFF309811EF0100F08BF13
:1002600021ED108B21E9F00F4FF000041EF0100F6C
:1002700008BF012441F8044D006801602E49096857
:10028000096808C9B1E8F00F002B18BFB1EC108B5A
:1002900081F309884EF0100E002B18BF2EF0100EBF
:1002A00082F310884EF0040E704723490860EFF384
:1002B000148222F0040282F314881E494FF00000D9
:1002C00008601B494FF0010008601D481D49D0F827
:1002D000002041EA0201016018484FF0805101609E
:1002E00019480068006880F3088861B662B6BFF3F9
:1002F0004F8FBFF36F8F70471EF0040F0CBFEFF3EB
:100300000880EFF3098020E9F00F40F804ED40F891
:1003100004ED1EF0040F0CBF80F3088880F30988F9
:1003200000B506F09BFB5DF804EB4EF0040E704741
:1003300024430020904000209840002004ED00E07D
:1003400020ED00E00000FFFF08ED00E02DE9F05F88
:100350000546002092469B46884606468146402434
:100360001BE0284641464746224600F05DF95346C9
:100370005A46C01A914110D311461846224600F041
:1003800044F92D1A67EB01084F462246012000214F
:1003900000F03BF917EB00094E41201EA4F10104C7
:1003A000DFDC484631462A464346BDE8F09FD2B2DC
:1003B00001E000F8012B491EFBD270470022F6E74E
:1003C00010B513460A4604461946FFF7F0FF2046CB
:1003D00010BD10B5044604E00B7800F8013B03B1F2
:1003E000491C521EF8D2204610BD421C10F8011BB9
:1003F0000029FBD1801A704710B5002200E0521C82
:10040000835C8C5CA34201D1002BF8D1D8B2E1B25D
:10041000401A10BD30B505460020034600E05B1CC5
:10042000934205D2EC5CC85C201A01D1002CF6D1B5
:1004300030BD2DE9FE4F804681EA0300C00F0C4617
:10044000009021F0004123F00045B8EB0200A941E3
:1004500005D24046214690461C460B46024623F0F4
:100460000040104347D0270DC7F30A00C3F30A51D9
:100470000290401A019040286BDAC3F3130040F455
:10048000801B0098924620B10023D2EB030A63EB55
:100490000B0B01985946C0F14002504600F0B5F8E8
:1004A00006460D4650465946019A00F0CDF810EB2D
:1004B00008006141002487EA115284EAE7731A4375
:1004C00040D0009A62B3019A012A4FEA075215DC24
:1004D000001B61EB02014FF0004202EA0752CDE936
:1004E0000042001C41F5801132462B4600F004F911
:1004F00003B0BDE8F08F40462146F9E7001B61EBF1
:100500000201001C41F5801300185B412018A2F580
:10051000001747EB030140EAD570B6196D4111E0B1
:100520006D084FEA360645EAC0754FEA0752001BD0
:1005300061EB0201001C41F5801149084FEA3000CF
:100540000019514132462B4603B0BDE8F04F00F090
:10055000C4B80098012240000023D0EB020263EBF4
:10056000E073009821464FEAE074B8EB000061EBBD
:100570000401E9E783F000435BE781F0004158E7BD
:1005800000F0004230F000400AD0C10D01F560716A
:10059000C0F3160042EA0151C208400711437047F8
:1005A00000200146704701F0004330B421F00041C3
:1005B00050EA010206D00A0DA2F56072C1F31301E0
:1005C000002A02DC30BC00207047440F44EAC1041A
:1005D000C100E01830BC00EBC25000F047B830B5A5
:1005E0000B46014600202022012409E021FA02F5F1
:1005F0009D4205D303FA02F5491B04FA02F528448B
:10060000151EA2F10102F1DC30BD202A04DB203AE4
:1006100000FA02F1002070479140C2F1200320FA55
:1006200003F3194390407047202A04DB203A21FA53
:1006300002F00021704721FA02F3D040C2F12002FB
:100640009140084319467047202A06DBCB17203A11
:1006500041FA02F043EAE07306E041FA02F3D040C7
:10066000C2F1200291400843194670470029A8BFF3
:100670007047401C490008BF20F00100704710B4CB
:10068000B0FA80FC00FA0CF050EA010404BF10BC80
:10069000704749B1CCF1200421FA04F411FA0CF1AD
:1006A00018BF012121430843A3EB0C01CB1D4FEAE6
:1006B00000614FEA102042BF002010BC704700EBE1
:1006C000C35010440029A4BF10BC7047401C49000F
:1006D00008BF20F0010010BC704710B5141E73F164
:1006E000000408DA401C41F1000192185B411A43F2
:1006F00001D120F0010010BD2DE9F04D92469B463E
:1007000011B1B1FA81F202E0B0FA80F220329046E3
:10071000FFF77BFF04460F4640EA0A0041EA0B015F
:1007200053465A46084313D0114653EA010019D0E4
:10073000C8F140025046FFF777FF05460E46504687
:1007400059464246FFF761FF084305D0012004E007
:1007500020463946BDE8F08D0020054346EAE076A4
:100760002C4337430A986305E40AA0EB08000022F3
:10077000FD0A44EA47540A3002D500200146E9E761
:10078000010510196941DDE9084500196941BDE815
:10079000F04DA2E72DE9FE4F81EA030404F0004486
:1007A00021F0004100944FF0000B23F0004350EA89
:1007B00001045ED052EA03045BD0C3F30A54C1F3D0
:1007C0000A552C44A4F2F3340194A0FB0254C1F363
:1007D000130141F48011C3F3130343F4801301FBAD
:1007E000024400FB034E840A970A44EA815447EA14
:1007F0008357A4FB076802958D0A05FB07854FEA1E
:10080000932C04FB0C542705029D4FEA065847EA37
:100810001637B5EB08056EEB070C870E920E47EA0C
:10082000811742EA8312A7FB0201B6EB0B0164EBCE
:1008300000042B0D43EA0C335E1844EB1C50DA46DF
:100840005146E7FB0201C5F313044FEA0B3343EAB9
:1008500014534FEA0432019C43EA0603A4F10C044A
:100860000294009CCDE900B4FFF746FF03B0BDE859
:10087000F08F00200146F9E72DE9F04D81EA0304ED
:1008800004F0004B21F0004514464FF0000A23F01D
:10089000004150EA050220D054EA01021DD0C5F300
:1008A0000A570246C5F31303C1F31300C1F30A56F6
:1008B00040F4801543F48013A7EB0608101BD646BE
:1008C00008F2FD3873EB050002D308F1010801E0DE
:1008D00092185B41B8F1000F03DA00200146BDE831
:1008E000F08D00204FF48011064684460EE0171B61
:1008F00073EB050705D3121B63EB050306434CEAB4
:10090000010C49084FEA300092185B4150EA010798
:10091000EDD152EA030012D082EA040083EA050115
:10092000084305D0101BAB4106D20122002306E08C
:1009300000224FF0004302E06FF0010253101AEB67
:1009400006004CEB085110EB0A0041EB0B01BDE82F
:10095000F04DFFF7C2BEC1F30A52C1F3130140F2DA
:10096000FF3341F480119A4202DA002001467047B9
:1009700040F233439A42A2F2334202DC5242FFF782
:1009800053BEFFF742BE000030B5041E71F10004F3
:1009900004DB4FF00044404264EB0101141E73F18C
:1009A000000405DB1C464FF00043524263EB040396
:1009B000994208BF904230BD064C074D06E0E06802
:1009C00040F0010394E8070098471034AC42F6D396
:1009D000FFF706FC389600085896000880B507F027
:1009E0002DFA002080BD000080B540F2E010C2F278
:1009F000000000F08DFE40F24C20C2F2000000F03A
:100A000087FE80BDB0B50446006803F015F8216884
:100A10000546084603F014F801464FF000007DBB80
:100A2000002908BFB0BD2068816801F00D010129CF
:100A30001BD102F095FF20680321016001F050FAFC
:100A400021688968C90704BF0020B0BD054603E0DE
:100A500020688068C00712D001F042FA401B0328CA
:100A6000F6D320688068C007F2D0E06D40F0100037
:100A7000E065206E40F0010020660120B0BD00203E
:100A8000B0BD0000B0B582B00025019504460068F5
:100A900002F0D6FF002869D120683F228168C8F2A1
:100AA0000002114209D0E06D012540F01000E06520
:100AB000206E40F00100206658E002F063FF40F233
:100AC0000012C5F20002216802F500731846914237
:100AD00018BF02F5C060B1F1A04F08BF184602F080
:100AE00065FF000226D401F0FBF921680A68D207ED
:100AF00039D1054604E000BF21680868C00734D139
:100B0000084602F09DFF10B9206802F03BFF01F09B
:100B1000E7F9401B0328EFD320680068C007EBD13A
:100B2000E06D012540F01000E065206E40F001000E
:100B300020661BE040F20400C2F20000006842F6AA
:100B400063518009C0F23E51A0FB0101880900EB0E
:100B500040000C2101EB8000019001980028C2D0D8
:100B600001980138F8E7002500E00025284602B08A
:100B7000B0BD0000FEE7000070470000EFF31080FA
:100B800072B600BFFEE7000070B582B004460020D8
:100B9000019094F85800012801D1022533E001208A
:100BA00084F8580020460E46FFF72CFF0546E06DFE
:100BB00015B140F0100022E041F2021188430230EA
:100BC000E0652068314603F029F84DF60266C0F270
:100BD000040600BF206802F027FF60B101980130D1
:100BE00001900198B042F5D3E06D012540F010006E
:100BF00020F0020003E0E06D012161F30100E065F7
:100C0000002084F85800284602B070BD70470000EC
:100C10002DE9F04381B004460020009094F858007C
:100C2000012802D14FF002081BE260690D46012144
:100C300084F8581010B1296A012919D16868092867
:100C400040D12868A96A4FF4785202EA504021B195
:100C500001F07C01EA6A08431043216844F2000372
:100C6000CA6CC0F210431A400243CA64606629E0AD
:100C7000A06E00284FF000000AD1AA6A6066A1F1B8
:100C80000100A16622B102F07C01EA6A0843104328
:100C9000D5E9002101F01F01C2F3846202FA01F1DB
:100CA0000843D4E91921013940EA0200C4E91901D5
:100CB00008D1216844F20003CA6CC0F210431A4004
:100CC0001043C864206802F099FE98B92068C16892
:100CD00095F8252095F8263021F44011002A4FEA96
:100CE000435201D0114304E095F82430114341EA06
:100CF0000351C160206802F0B3FE21680646084631
:100D000002F07CFE304302D04FF00008E7E0A86A12
:100D100060B1E86A50B195F8250001280FD1E06D67
:100D20004FF0010840F02000E0650FE0206895F8E2
:100D30002520C168012A04D141F0007103E0206838
:100D4000C16821F000714FF00008C160206895F87B
:100D500030200169012A08D1D5E90D2321F4FF7162
:100D60001143194341F0020101E021F00201016148
:100D7000AB68296803F10042B2FA82F25709B3F175
:100D8000004218BF1A46FE0702F09CFE206831465A
:100D900002F03EFF206829696B69C268042940F0AF
:100DA00088804FF6FF770021C0F2070702F018FE97
:100DB000216806460846002102F012FE7203C0F3C5
:100DC00084612A6890FAA0F018BFB0FA80F1C2F3EB
:100DD000846092FAA2F3520318BFB3FA83F08142FF
:100DE00003D12068002102F005FF2068012102F0F4
:100DF000F7FD216806460846012102F0F1FDC0F327
:100E000084612A6890FAA0F03E4218BFB0FA80F1DF
:100E1000C2F384603A4292FAA2F318BFB3FA83F0A5
:100E2000814203D12068012102F0E4FE2068022102
:100E300002F0D6FD216806460846022102F0D0FDE8
:100E4000C0F384612A6890FAA0F03E4218BFB0FA5D
:100E500080F1C2F384603A4292FAA2F318BFB3FA67
:100E600083F0814203D12068022102F0C3FE206892
:100E7000032102F0B5FD216806460846032102F071
:100E8000AFFDC0F384612A6890FAA0F03E4218BF1B
:100E9000B0FA80F1C2F384603A4292FAA2F318BF2A
:100EA000B3FA83F081421AD12068032102F0A2FE36
:100EB00015E0062707EA92072A68BB4002F060FEA9
:100EC00020682969AA6902F085FE2A7F2068013A14
:100ED000B2FA82F229695209520602F06BFE2068CA
:100EE00002F0B2FD90BB20682968EA6802F010FEAB
:100EF000E8680021C4F27F01884227D12968206870
:100F000091FAA1F3B3FA83F3AA684F0308BF8B0EDB
:100F1000591C4FF0806601F01E0706EB836301F059
:100F20001F01012603F0F8438E40334301EB4106D5
:100F30000021CFF6206101EB0651194341F0007109
:100F40000A2F38BF43EA065102F0BCFD688848F218
:100F50000801084200F0828040F20037C5F2000725
:100F6000216807F58066A7F500793046494504BF3A
:100F700040F20030C5F20000B1F1A04F04BF40F2D2
:100F80000030C5F2000002F015FD29680022CCF205
:100F90002132914204D01022C9F2C00291422FD1D5
:100FA00002022DD4216840F20062C5F20002914293
:100FB00002D0B1F1A04F51D1494508BF3E46B1F131
:100FC000A04F08BF3E4640F40001304602F0C0FD8D
:100FD00040F20400C2F20000006842F6635180094A
:100FE000C0F23E51A0FB0101880900EB400018212E
:100FF00001EB80000090009880B300980138F9E779
:101000000022CCF25272914208BF10F0807218D0C8
:101010000022CCF68432914208BF10F480011DD129
:101020002168B1F1A04F08D040F20012C5F20002D1
:10103000914213D0494518BF374640F480013846E5
:101040000AE02168494508BF3E46B1F1A04F08BFFC
:101050003E4640F08071304602F07AFD002084F870
:101060005800404601B0BDE8F083000000000000D9
:10107000B0B5006840F20011C5F20001802288423C
:1010800040F25011C5F20002C2F200010AD0B0F1E4
:10109000A04F0CD112680A80D0F8842088304A8092
:1010A000043102E002F5807006310068088040F2E9
:1010B0005C4440F26805C2F2000400204FF07E510B
:1010C000C2F20005C4E901012868FFF759FA9FED53
:1010D000100B53EC102BFFF7ACF9FFF764FA00EE9E
:1010E000100A286004F05AF995ED001A84ED050AFB
:1010F000B0EE410A04F006F9204684ED060A02F03B
:10110000F7FF204603F016F8B0BD00BF00BF00BFD8
:101110007B14AE47E17A843F70470000F0B581B0A0
:1011200040F20047C5F2000701680446A7F5407089
:10113000A7F580728142104618BF07F54070B1F1E3
:10114000A04F08BF104602F041FC21680646084641
:1011500002F054FC08B102256CE02068C168C06C44
:10116000002908D410F4C07005D1E06D012540F0CD
:101170002000E0655EE094F85800012801D10225C6
:1011800058E0012084F858002046FFF77BFC054614
:1011900018B1002084F858004CE0E06D43F20101E2
:1011A000C00546BF206E20F0080000202066E06DDC
:1011B00040F20012884300F58050E0652068C5F2D7
:1011C000000240F200519042C5F2000104D00346F3
:1011D000884208BF3B4601E04FF0A043002E18BFF5
:1011E000834203D1E36D23F48013E365602303603E
:1011F0000023904284F8583006D08842014608BF48
:101200003946814204D10AE04FF0A041814206D024
:10121000072E0BD80121B14011F0C10F06D002F00A
:10122000E5FB38B9206802F0F5FB03E0E06D40F41F
:101230008010E065284601B0F0BD00007047000056
:10124000704700002DE9F04383B0044690F8580041
:10125000012803D1022003B0BDE8F083012084F807
:101260005800002002900190206840F200160D46C0
:10127000B0F1A04FC5F200060AD040F20041C5F21D
:101280000001884214BF002006F5806010B90AE012
:10129000304640B102F0E4FB21680746084602F000
:1012A000DFFB38430AD0E06D40F02000E06501200C
:1012B000002184F8581003B0BDE8F083206806F5DB
:1012C00000710F46B04218BF06F5C067B0F1A04FDD
:1012D00008BF0F462968BA68002922F4604118D077
:1012E0006A6894F83830114340F4807041EA433121
:1012F000B042B96020D14FF0A04002F0A5FB81467A
:10130000304602F0A1FB804658EA090027D00020B1
:10131000CEE740F48070B042B96029D14FF0A040D0
:1013200002F092FB0546304602F08EFB804658EAFA
:10133000050030D00020BBE706F5407002F084FBCA
:10134000804606F5806002F07FFB48EA000806F55B
:10135000A06002F079FB814658EA0900D7D1B8684D
:1013600040F61F7188432968AA680843104316E0B5
:1013700006F5407002F068FB054606F5806002F055
:1013800063FB40EA050806F5A06002F05DFB054638
:1013900058EA0500CED1B86840F61F718843B8609E
:1013A000002085E72DE9F04182B00446002001903D
:1013B00094F85800012801D10221A0E120680D46CF
:1013C000012184F8581002F047FB28B1E06D01219B
:1013D00040F02000E0658FE12068D5E9002102F0AF
:1013E0004BFB206802F038FB21680646084602F0F5
:1013F00001FB304340F0B880AB68296803F100403E
:10140000B0FA80F047092068B3F1004218BF1A46CD
:10141000FE0702F045FB2068314602F0F3FB20682E
:1014200029696B69C268042940F088804FF6FF770C
:101430000021C0F2070702F0CDFA216806460846EF
:10144000002102F0C7FA7203C0F384612A6890FA9F
:10145000A0F018BFB0FA80F1C2F3846092FAA2F350
:10146000520318BFB3FA83F0814203D120680021F0
:1014700002F0B8FB2068012102F0ACFA21680646B0
:101480000846012102F0A6FAC0F384612A6890FAA6
:10149000A0F03E4218BFB0FA80F1C2F384603A4235
:1014A00092FAA2F318BFB3FA83F0814203D1206805
:1014B000012102F097FB2068022102F08BFA2168DB
:1014C00006460846022102F085FAC0F384612A68C4
:1014D00090FAA0F03E4218BFB0FA80F1C2F38460E7
:1014E0003A4292FAA2F318BFB3FA83F0814203D1D1
:1014F0002068022102F076FB2068032102F06AFADC
:10150000216806460846032102F064FAC0F38461AC
:101510002A6890FAA0F03E4218BFB0FA80F1C2F3F8
:1015200084603A4292FAA2F318BFB3FA83F0814280
:101530001AD12068032102F055FB15E0062707EABF
:1015400092072A68BB4002F009FB20682969AA6952
:1015500002F038FB2A7F2068013AB2FA82F2296948
:101560005209520602F01EFB206802F069FA90BB95
:1015700020682968EA6802F0B7FAE8680021C4F236
:101580007F01884227D12968206891FAA1F3B3FA34
:1015900083F3AA684F0308BF8B0E591C4FF0806677
:1015A00001F01E0706EB836301F01F01012603F023
:1015B000F8438E40334301EB41060021CFF6206112
:1015C00001EB0651194341F000710A2F38BF43EA7D
:1015D000065102F065FA688848F20801084274D0A2
:1015E00040F20036C5F20006216806F58067A6F5D0
:1015F00000783846414504BF40F20030C5F2000093
:10160000B1F1A04F04BF40F20030C5F2000002F07B
:10161000CDF929680022CCF22132914204D0102267
:10162000C9F2C002914234D1020232D4216840F2A0
:101630000062C5F20002914202D0B1F1A04F44D144
:10164000414508BF3746B1F1A04F08BF374640F4C7
:101650000001384602F076FA40F20400C2F20000BF
:10166000006842F663518009C0F23E51A0FB0101BF
:10167000880900EB40000C2101EB800001900198EB
:1016800018B300BF01980138019001980028F9D1E2
:101690001BE00022CCF25272914208BF10F080721F
:1016A00015D00022CCF6843291424FF0000108BFE1
:1016B00010F4800220D12168B1F1A04F16D040F281
:1016C0000012C5F2000291420DD1002114E0216800
:1016D000414508BF3746B1F1A04F08BF374640F03B
:1016E0008071384605E0414518BF3E4640F4800110
:1016F000304602F027FA0021002084F858000846FE
:1017000002B0BDE8F08100007047000070470000A3
:101710002DE9F04F81B040F2004B0168C5F2000B9B
:101720000446ABF540700BF540790E684F680090A9
:1017300081424846ABF5807508BF2846B1F1A04FFD
:1017400008BF284602F03EF93E40B10780460CD55E
:10175000E06DC00603D4E06D40F40060E065204613
:10176000FFF754FA20680221016040F2001A700766
:10177000C5F2000A58BF5FEA06705BD5E06DC0068F
:1017800003D4E06D40F40070E065206802F06CF96D
:10179000002849D02068504508D040F20051C5F2D9
:1017A00000018842014608BF594601E04FF0A041C0
:1017B000814201460AD0B8F1090F19D8012101FA76
:1017C00008F140F221221142014611D0C968890472
:1017D0002AD40168090727D502F03EF9A0B1E06DCF
:1017E00040F01000E065206E40F0010020661BE034
:1017F000504500F0FB8040F20051C5F200018842E4
:10180000014608BF5946E1E72068416821F00C0114
:101810004160E06D20F48070E065E06DC00403D4A9
:10182000E06D40F00100E0652046FFF76DFF2068A5
:101830000C210160B00658BF5FEA466066D5E06DD6
:10184000C00603D4E06D40F40050E065206802F06B
:10185000D9F821680746084602F006F92168514583
:1018600008D040F20052C5F2000291420A4608BF79
:101870005A4601E04FF0A0428A420A4609D0B8F128
:10188000070F21D8012202FA08F212F0C10F0A460E
:101890001AD0D268A7B3930103D588B312F40050CD
:1018A0002ED1086892022BD410F0400028D00846B0
:1018B00002F0A0F8A0B1E06D40F01000E065206EED
:1018C00040F0010020661BE0514500F08C8040F2A2
:1018D0000052C5F2000291420A4608BF5A46D8E7B4
:1018E0002068416821F060014160E06D20F4805083
:1018F000E065E06DC00503D4E06D40F00100E065F7
:101900002046FFF7B5FB20686021016030060AD44D
:10191000F00514D4B0051FD4F0062AD470054AD4BB
:1019200001B0BDE8F08FE06D40F48030E065204606
:1019300000F072F9206880210160F005EAD5E06DC1
:1019400040F40030E0652046FFF778FC20684FF453
:1019500080710160B005DFD5E06D40F48020E06566
:101960002046FFF76DFC20684FF400710160F0061F
:10197000D4D5E06B78B12068B8F1000F2DD0009974
:10198000884208BFA946B0F1A04F08BFA946484603
:1019900002F014F850B1E06D40F48060E065206E14
:1019A00040F0020020662046FFF7B0FE20681021BC
:1019B00001607005B4D52068E16D41F48041E165B6
:1019C000216E41F0080121664FF4806101602046DC
:1019D000FFF7A2FB01B0BDE8F08FC06800F0010086
:1019E0000028D8D1E2E74FF0A04252E74FF0A041E3
:1019F000ECE600002DE9F04182B0044600200190A1
:101A0000CCB1E06D30B9204600F008F90020206626
:101A100084F85800206802F00BF810B1206801F03B
:101A2000A9FF206802F014F838B1206802F010F81D
:101A3000E8B1002524E00125D5E0206801F0ACFFE5
:101A400040F20400C2F20000006842F663518009CF
:101A5000C0F23E51A0FB01018809022101EB4000C8
:101A6000019001980028E0D001980138F8E7E06D76
:101A7000012540F01000E065206E40F00100206676
:101A8000206801F0E9FFE16D01F010010843E06D0D
:101A900003D040F010000125A4E020F48170023052
:101AA000E065206801F0CCFF20BB206840F2001800
:101AB000C5F2000840F48070404540F098804FF037
:101AC000A04001F0BDFF0646404601F0B9FF0746C1
:101AD00057EA06000ED108F50072D4E9003110462D
:101AE000434518BF08F5C060B3F1A04F08BF1046CA
:101AF00002F022F8607FE16B41EA4030D4E9022134
:101B0000084394F824101043012940EA014106D10A
:101B1000A06A0022CFF6FE7202EB40400143E06A69
:101B200028B100F47870226B084340EA0201206873
:101B3000626BC36844F20707CFF6F0773B40194366
:101B4000C160016921F040611143016101F052FF60
:101B5000C8BB94F83800217F400040EA81322068F9
:101B60002169C36844F20207BB431A43C260026999
:101B700049B142F480320261D0F8C02043F6FF73CD
:101B80009A43114307E022F480310161D0F8C0107C
:101B900043F6FF729143C0F8C01094F840200169E9
:101BA000012A0DD140F2FD7204F1440791438CCF1C
:101BB000266D114319433943314341F0010101E0DE
:101BC00021F00101016120686169026B012922F0A5
:101BD0000F0102D1226A013A11430163E06D012134
:101BE00061F30100E065284602B0BDE8F08108F528
:101BF000407001F025FF064608F5806001F020FFE7
:101C000040EA060708F5A06001F01AFF064657EA09
:101C100006007FF46FAF5EE77047000010B59CB020
:101C2000044600201B90CDE91900CDE9170002A859
:101C30005421FEF7C3FB206840F20011C5F20001F9
:101C400088422FD0B0F1A04F6AD14FF400400290EB
:101C50004FF00050139002A800F066FA002818BF59
:101C6000FEF78CFF40F26C01C2F200010A6841F2FB
:101C70004C00C4F20200531C0B6042B9016841F4ED
:101C800000510160016801F400510191019901685E
:101C900041F001010160006800F00100019001982D
:101CA00007202BE04FF4004002904FF000501390BB
:101CB00002A800F039FA002818BFFEF75FFF40F2D3
:101CC0006C01C2F200010A6841F24C00C4F2020049
:101CD000531C0B6042B9016841F400510160016876
:101CE00001F4005101910199016841F00101016085
:101CF000006800F001000190019810201790032067
:101D000018900020199017A94FF0904000F00AF8A1
:101D100012200021002200F077F9122000F070F963
:101D20001CB010BD2DE9F04F83B00D68002D00F000
:101D3000C58000F138424FEAB22241F200470192D9
:101D4000C4F600070622002600244FF0010AB8421C
:101D500008BF0522009209E00D68043435FA0AF242
:101D60000AF1010A06F1020600F0A880AAF1010CAE
:101D7000012202FA0CFB15EA0B09EDD0D1F8048020
:101D800008F00305A5F1010EBEF1010F11D8876817
:101D90000322CB68B24027EA0202B3401A438260B2
:101DA0004268C8F3001322EA0B0203FA0CF31A4349
:101DB0004260032D1CD0C26803238F68B3409A434E
:101DC00007FA06F31A43022DC26011D16FF0030225
:101DD00002EA5C02024404F01C070F23D2F820E060
:101DE00003FA07F50B692EEA0505BB402B43136286
:101DF000026803234F68B3409A4307F00303B340DC
:101E00001A4317F4403F0260A6D041F26003C4F2C7
:101E100002031A6840F2004E42F001021A601A688A
:101E2000C4F2010E02F001020292029A2CF00302A7
:101E30004FF608487244CFF6FF7852F8083004F0A5
:101E40000C070F25BD4023EA050C019B009D052BC7
:101E500038BF1D4605FA07F747EA0C0342F8083079
:101E6000DEF808204B6842EA090740F20C4CDD021C
:101E700058BF22EA0907CEF80870C4F2010CDCF85A
:101E800000209D0242EA090758BF22EA0907CCF860
:101E90000070DEF804209D0342EA090758BF22EAD9
:101EA0000907CEF80470DEF80020DB0342EA0907D8
:101EB00058BF22EA0907CEF800704DE703B0BDE82D
:101EC000F08F0000426902EA0103914341EA0341B5
:101ED000816170471823002A08BF2823C15070472A
:101EE00044F23830C2F200000068704740F26000EF
:101EF00044F23831C2F20000C2F2000100680A6800
:101F0000104408607047000080B5032000F08CF892
:101F10000F2000F009F800281CBF012080BD00F050
:101F200053F8002080BD0000B0B586B041F25801E2
:101F3000C4F202010A68044642F004020A60096819
:101F400001A801F0040101910199694600F068FBC4
:101F500000F08EFB4DF68361C4F21B31A0FB010142
:101F60004FF0FF3000EB914140F2043040F60002A8
:101F7000C2F20000C4F2000240F2E7330025C0E9DB
:101F80000021C0E90253056100F07CFF0546C0B99D
:101F900040F20430C2F2000000F0C0FF054680B9F4
:101FA0001E2000F02DF80F2C0AD81E2021460022FA
:101FB00000F02AF840F26400C2F20000046000E081
:101FC0000125284606B0B0BD80B582B041F2580068
:101FD000C4F20200816841F001018160816801F072
:101FE000010101910199016841F08051016000688F
:101FF00000F080500090009800F08CF802B080BD96
:1020000080B503F04FF880BD70B514460D46064606
:1020100003F058F82946224602F038F801463046C7
:1020200003F058F870BD000080B503F065F880BD7E
:10203000A8B347F20001C4F200010A68B0F5007FBE
:1020400061D1D1F8800002F4C06240F48070B2F532
:10205000806FC1F8800020D10868012262F34A2015
:10206000086040F20400C2F20000006832235843C6
:102070004DF68363C4F21B33A0FB030302EB9340D2
:102080004B69421E824203D213F480601046F7D19E
:102090004869400544BF032070470020704747F25D
:1020A0000000C4F200000168D0F8802001F4C06193
:1020B00022F48072B1F5806FC0F88020EDD1016804
:1020C000012262F34A21016040F20401C2F20001E0
:1020D0000968322359434DF68363C4F21B33A1FBD5
:1020E000031302EB934100BF43694A1E8A4203D2A5
:1020F00013F480611146F7D14069400544BF0320C5
:10210000704700207047022060F34A220A600020D6
:102110007047000047F20800C4F20000016841F473
:1021200080410160704700002DE9F04381B0044612
:10213000807841F288070007C4F2020702D44FF00A
:1021400000096FE057F8300CC0000ED457F8300C7F
:102150004FF0010840F0805047F8300C57F8300C31
:1021600000F080500090009801E04FF0000847F226
:102170000006C4F20006306840F480703060FFF75B
:10218000AFFE05463068C0050AD4FFF7A9FE401B24
:102190000328F7D34FF00309B9F1000F39D104E058
:1021A0004FF00009B9F1000F33D1B86810F4407056
:1021B00011D0216D88420BD0B868B96820F4407006
:1021C00041F48031B960B96821F48031B960B860F8
:1021D000C00703D112E00020C0070FD0FFF780FE38
:1021E000064641F2893500BFB868800706D4FFF77C
:1021F00077FE801BA842F7D34FF00309B9F1000F17
:1022000007D1B868216D20F4407008434FF00009F1
:10221000B860B8F1000F05D057F8300C20F08050AE
:1022200047F8300C2068C10716D181071CD441073C
:1022300022D4010728D4C1062ED4810634D4410605
:102240003AD4010640D4C10546D481034CD481055B
:1022500052D4410558D466E03968626821F0030120
:10226000114339608107E2D53968A26821F00C0179
:10227000114339604107DCD53968E26821F030014B
:10228000114339600107D6D53968226921F0C001B0
:1022900011433960C106D0D53968626921F44071B3
:1022A000114339608106CAD53968A26921F44061B9
:1022B000114339604106C4D53968E26921F44051BF
:1022C000114339600106BED53968226A21F44041C4
:1022D00011433960C105B8D53968626A21F44031CB
:1022E000114339608103B2D57969A26A21F00301F3
:1022F000114379618105ACD53968E26A21F4402146
:102300001143396041050ED53968226B21F4401123
:102310001143B2F5801F396005D157F87C1C41F498
:10232000801147F87C1C01050ED53968626B21F4D9
:1023300040011143B2F5800F396005D157F87C1C7C
:1023400041F4801147F87C1CC1040ED53968A26B9A
:1023500021F040711143B2F1807F396005D157F807
:102360007C1C41F4801147F87C1C81040ED539682F
:10237000E26B21F040611143B2F1006F396005D189
:1023800057F87C1C41F4801147F87C1C41040ED5A1
:102390003968226C21F040611143B2F1006F39605D
:1023A00005D157F87C1C41F4801147F87C1C0104CE
:1023B0000ED53968626C21F040511143B2F1805F53
:1023C000396005D157F87C1C41F4803147F87C1CFA
:1023D000C1030ED53968A26C21F040411143B2F11E
:1023E000804F396005D157F87C1C41F4803147F8A3
:1023F0007C1C40030ED57869E16C20F44010084342
:10240000B1F5001F786105D157F87C0C40F48010BD
:1024100047F87C0C484601B0BDE8F0832DE9F04751
:10242000002800F0C88042F2000AC4F2020A044602
:10243000DAF800000D4600F00F0088420DD2DAF8FD
:10244000000020F00F002843CAF80000DAF800006E
:1024500000F00F00A84240F0AE80207841F208085A
:10246000C007C4F202080CD14FF0000920688107B0
:1024700028D4B9F1800F3ED1D8F8000020F0F00048
:1024800037E06168032940F08A8058F8080C800121
:1024900040F1918001F010FE4BF20041C0F2C441C6
:1024A00088420CD9D8F8000010F0F00F00F08F80AF
:1024B0002078800703D5A068002800F088804FF0BE
:1024C00000098DE0410705D5D8F8001041F4E0611E
:1024D000C8F80010000706D5D8F80000072161F3FE
:1024E0000D20C8F80000D8F80000A16820F0F00026
:1024F0000843C8F80000DAF8000000F00F00A84216
:102500001AD9DAF8000020F00F002843CAF80000BA
:10251000FFF7E6FC064641F2883700BFDAF8000014
:1025200000F00F00A84207D0FFF7DAFC801BB8428A
:10253000F4D90320BDE8F0872068410707D5D8F813
:102540000010E26821F4E0611143C8F800100007B0
:1025500008D5D8F80000216920F4605040EAC10095
:10256000C8F8000000F0ACF8D8F8001048F6561291
:10257000C1F30311C0F60002515C40F2040201F005
:102580001F0120FA01F140F26400C2F2000000686D
:10259000C2F200021160FFF7C7FCBDE8F08758F8EF
:1025A000080C022905D180035CBF0120BDE8F0873B
:1025B00004E0400502D40120BDE8F08700F080F877
:1025C0004BF20041C0F2C44188427FF678AFD8F8A0
:1025D0000000082161F307104FF08009C8F80000DF
:1025E000D8F80000616820F003000843C8F8000034
:1025F000FFF776FC064641F2883700BFD8F80000A6
:10260000616800F00C00B0EB810F3FF42FAFFFF7D3
:1026100067FC801BB842F1D90320BDE8F0870000B9
:102620000F22026041F20802C4F20202136803F0B2
:1026300003034360136803F0F0038360136803F43B
:10264000E063C36012684FF4E06303EAD202026100
:1026500042F20000C4F20200006800F00F000860BF
:102660007047000040F20400C2F2000000687047AA
:1026700080B5FFF7F7FF41F20801C4F202010968D3
:1026800048F66612C1F30221C0F60002515C01F067
:102690001F01C84080BD000080B5FFF7E3FF41F295
:1026A0000801C4F20201096848F66612C1F3C221AA
:1026B000C0F60002515C01F01F01C84080BD00005F
:1026C00041F20C01C4F2020151F8040C00F00C00BC
:1026D000042842F20040C0F2F40008BF704751F8ED
:1026E000042C02F00C02082A1AD051F8042C02F033
:1026F0000C020C2A1CBF002070470A680A68C2F34B
:1027000003120B680132B0FBF2F0C3F30622096832
:102710005043C1F34161022202EB4101B0FBF1F0F1
:10272000704700002DE9F04182B0002800F0EB80F6
:102730000446007841F20006C007C4F2020654D1F4
:102740002078800771D42078000700F195802078E8
:10275000400700F1B3802078800600F1D880E56959
:10276000002D00F01A82B06800F00C000C2840F038
:102770003B81012D00F0C780F068216A00F0030260
:102780008A4240F0C080626A6FF00F0300F0F001EF
:1027900003EB0212914240F0B680A16A00F4FE42BF
:1027A000B2EB012F40F0AF80E16A00F07842B2EB6B
:1027B000C16F40F0A880226B0023CFF6E07303EADC
:1027C000025200F4C001A2F50012914240F09B8039
:1027D000616B4FF07E4202EA016100F0C06001F1DE
:1027E0007E41884240F08F80D7E1B06800F00C0154
:1027F000F068082959D0032281F00C0122EA000078
:102800000844B0FA80F040094FD16568B5F5803FC3
:1028100007D03068B5F5A02F40F0108140F480203B
:102820003060306840F480300EE1B068F16800F04C
:102830000C00042851D001F0030180F00C0081F05D
:1028400002010844B0FA80F0400946D1E1683068DE
:10285000002900F0B68040F480703060FFF740FB44
:10286000054600BF3068400500F1E080FFF738FB07
:10287000401B0228F6D932E16169D6F8940000299C
:1028800000F08C8040F00100C6F89400FFF728FBB0
:10289000054600BFD6F8940080073FF558AFFFF714
:1028A0001FFB401B0228F5D919E1306880037FF532
:1028B00047AF606800287FF443AF24E0B06DC000EC
:1028C00041D4B06D4FF0010840F08050B065B06D5C
:1028D00000F080500190019837E03068400501D544
:1028E000E06880B17068216920F0FE4040EA016034
:1028F000706040F26400C2F200000068FFF714FB51
:1029000000283FF420AF012002B0BDE8F081A169AA
:10291000D6F89800002900F0B38040F00100C6F816
:102920009800FFF7DDFA0546D6F8980080073FF5D6
:1029300016AFFFF7D5FA401B02284FF00300F3D97A
:1029400002B0BDE8F0814FF0000847F20007C4F282
:1029500000073868C00510D4386840F480703860CB
:10296000FFF7BEFA054600BF3868C00505D4FFF77B
:10297000B7FA401B0228F7D9B1E0A568012D08D0AD
:10298000D6F89000052D40F0908040F00400C6F885
:102990009000D6F8900040F001008EE020F0010099
:1029A000C6F89400FFF79CFA054600BFD6F89400DD
:1029B00080077FF5CCAEFFF793FA401B0228F5D9CC
:1029C0008DE020F480703060FFF78AFA054600BF82
:1029D000306840057FF5B7AEFFF782FA401B02284A
:1029E0004FF00300F4D9ABE7306820F0807030601E
:1029F000FFF776FA022D05460CD100BF3068800142
:102A000040F18780FFF76CFA401B02284FF003006B
:102A1000F4D995E73068800140F1B880FFF760FA9B
:102A2000401B02284FF00300F4D989E77068216940
:102A300020F0FE4040EA0160706084E620F48030BF
:102A40003060306820F480203060FFF749FA002DB4
:102A5000054611D0306880033FF572AEFFF740FAAB
:102A6000401B6428F6D93AE0FFF73AFA401B642885
:102A70004FF003003FF664AF30688003F4D45FE6A4
:102A800020F00100C6F89800FFF72AFA054600BFBB
:102A9000D6F8980080077FF562AEFFF721FA401B59
:102AA00002284FF00300F3D94AE720F00100C6F8EE
:102AB0009000D6F8900020F00400C6F89000FFF7D0
:102AC0000FFA002D054641F2883715D0D6F8900050
:102AD000800715D4FFF704FA401BB842F6D903204B
:102AE00002B0BDE8F08100BFFFF7FAF9401BB84221
:102AF0004FF003003FF624AFD6F890008007F3D4E0
:102B0000B8F1000F3FF427AEB06D20F08050B065F3
:102B100021E6F06848F20C01C0F29F1104F1200791
:102B200000EA010C8ECF6FF00F00D4E90C5400EBDB
:102B300002100022CFF6E07241EA0C0102EA0552CF
:102B40000843A2F500124FF07E4540EA032005EA53
:102B50000465104305F17E4540EAC7602843F060F4
:102B6000306840F080703060F06840F08070F06055
:102B7000FFF7B6F90446306880010ED4FFF7B0F9CC
:102B8000001B02284FF00300F5D9D9E6F0684FF694
:102B9000FC71CFF6EE610840F060002002B0BDE8A5
:102BA000F081000080B501F043FC80BD704700005B
:102BB0007047000070470000B0B590F83C20012A33
:102BC00004BF0220B0BD012280F83C20D1E90232CE
:102BD000D1E900CE22F47C5223F4705343EA02047C
:102BE00048F2FF73CEF6F0730EEA0302224303F5B8
:102BF000006404EA0C0442EA040C0C6903F5C052B8
:102C000022404C6942EA0C02224303F56054224000
:102C10000C6B03F5F04323401A438B6940F2000C20
:102C2000CC69CEF6FF7C0CEA034C1443026842F6F2
:102C30000043C4F201039A4244EA0C030BD045F26C
:102C40000004C4F20104A24205D043F20044C4F2DD
:102C50000104A24217D14FF6FF74CDF60F4403EAE8
:102C6000040ED1E9084CD1E90A310025CDF6F04532
:102C700005EA035343EA0E0324F008552B432CF0D6
:102C800000552B430B430021536480F83C10084649
:102C9000B0BD0000704700007047000070470000A2
:102CA00070B590F83C20012A4FF0020264D0012355
:102CB00080F83C3080F83D20026842F600435468BA
:102CC000D2F808C0C4F2010345F2000E9A42C4F2E1
:102CD000010E18BF72452AD14D6824F470042C43AC
:102CE0004FF68F75CFF6FF550E682C4042F6FF3534
:102CF000C4F201053443AA4254600DDC40F2FF7374
:102D0000C4F200039A4219DCB2F1804F29D040F29C
:102D10000043C4F2000322E043F6FF74C4F201044E
:102D2000A24216DC9A421CD043F2004315E043F263
:102D30000045C4F20105AA42CED0D1E740F6000317
:102D4000C4F200039A420CD040F60043C4F20003E0
:102D500005E0724505D044F20003C4F201039A4233
:102D600004D189682CF0800319439160012100226D
:102D700080F83D1080F83C20104670BD10B5044628
:102D800041B1082909D0042914BF04F1470004F116
:102D9000450004E004F1440001E004F1460000783D
:102DA00001281CBF012010BD022041B1082909D013
:102DB000042914BF84F8470084F8450004E084F82F
:102DC000440001E084F846002068042201F088FCF9
:102DD000216842F6FF32486CC4F2010240F4004020
:102DE000914248640DDC40F2FF70C4F20000814261
:102DF00016DCB1F1804F2AD040F20040C4F200004E
:102E000023E043F6FF70C4F20100814213DC42F676
:102E10000040C4F20100814219D043F2004012E0A8
:102E200040F60000C4F20000814210D040F600409D
:102E3000C4F2000009E045F20000C4F20100814242
:102E400005D044F20000C4F20100814212D188682A
:102E50000722C0F201020240062A4FF000000ED005
:102E6000B2F5803F08BF10BD086840F0010008605F
:102E7000002010BD086840F001000860002010BD6F
:102E800070470000002804BF0120704710B50446B9
:102E900090F83D0028B9002084F83C00204600F05E
:102EA00023F8022084F83D002068211D01F062FB18
:102EB000012084F8480084F83E0084F83F0084F83C
:102EC000400084F8410084F8420084F8430084F80C
:102ED000440084F8450084F8460084F8470084F8EC
:102EE0003D00002010BD000081B0006842F60041A6
:102EF000C4F20101884201D001B0704741F2600084
:102F0000C4F20200016841F400610160006800F44D
:102F100000600090009801B07047000090F83D10EC
:102F200001291CBF01207047022180F83D10016873
:102F300042F6FF32C868C4F20102914240F001003B
:102F4000C8600DDC40F2FF70C4F20000814216DC64
:102F5000B1F1804F2AD040F20040C4F2000023E0DB
:102F600043F6FF70C4F20100814213DC42F60040D8
:102F7000C4F20100814219D043F2004012E040F651
:102F80000000C4F20000814210D040F60040C4F2BC
:102F9000000009E045F20000C4F20100814205D0C2
:102FA00044F20000C4F20100814212D18868072275
:102FB000C0F201020240062A4FF000000ED0B2F526
:102FC000803F08BF7047086840F00100086000209B
:102FD0007047086840F0010008600020704700005A
:102FE00010B5044690F83C0001284FF0020008BFDD
:102FF00010BD0B46012184F83C1084F83D00206888
:1030000088228168CFF6CE72114081601968B1F5CF
:10301000805F15DB1F22C0F21002914219DD3F22B2
:10302000C0F21002914235DD4022C0F210029142FE
:1030300061D05022C0F2100291425CD070222FE089
:103040003F291ADC1F2930DC002954D0102952D026
:103050005BE0B1F5801F2DDAB1F5805F4DD0B1F5A1
:10306000005F52D1D3E90121DB6801F04BFB2068FE
:10307000816841F4804181603FE05F291FDC402985
:103080002CD0502941D15968DA6801F0E9FC206858
:10309000502130E02022C0F2100291422BD0302289
:1030A000C0F21002914226D02FE0202923D03029EF
:1030B00021D02AE01FD0B1F1101F1CD025E06029DB
:1030C00013D0702921D1D3E90121DB6801F01AFB6B
:1030D0002068816841F0770181600EE05968DA6804
:1030E00001F0BEFC2068402105E05968DA6801F073
:1030F000C9FC2068602101F011FB0020012184F847
:103100003D10002184F83C1010BD0120F6E70000BE
:1031100070470000F0B581B004460068C7680669D2
:1031200006EA0705A90731D4680700F1858028075A
:1031300000F19B80E80600F1B080E80706D0206827
:103140006FF001010161204600F074FA17F080076A
:1031500018BF16F4025006D020686FF402510161C6
:103160002046FFF725FD002F18BF16F4807019D1F7
:10317000680620D4A80627D4E8022ED4A80235D4A5
:1031800068023CD4280243D401B0F0BD6FF00201C4
:103190000161012121778069800742D02046FFF735
:1031A000B7FF44E020686FF4807101612046FFF7AB
:1031B000FDFC6806DED520686FF040010161204605
:1031C00000F044FAA806D7D520686FF0200101610D
:1031D0002046FFF7EFFCE802D0D520686FF480119D
:1031E00001612046FFF758FDA802C9D520686FF499
:1031F000001101612046FFF74DFD6802C2D520682D
:103200006FF4800101612046FFF748FD2802BBD51D
:1032100020686FF4000101612046FFF731FE01B024
:10322000F0BD204600F0AEF8204600F03FF9002047
:10323000207768077FF57BAF20686FF0040101619C
:1032400002212177806910F4407F03D02046FFF7E8
:103250005FFF05E0204600F095F8204600F026F9D3
:103260000020207728077FF565AF20686FF0080100
:10327000016104212177C069800703D02046FFF750
:1032800047FF05E0204600F07DF8204600F00EF9EB
:1032900000202077E8067FF550AF20686FF010011E
:1032A000016108212177C06910F4407F03D02046D6
:1032B000FFF72EFF05E0204600F064F8204600F0FE
:1032C000F5F800202077E8077FF439AF3EE70000EB
:1032D0002DE9F04186B00026CDE90466CDE902660D
:1032E000006842F60041C4F201018842019602D012
:1032F00006B0BDE8F08141F24C00C4F20200016862
:1033000040F2004441F0020101600168C4F600048B
:1033100001F0020100910099016801AD41F0010145
:1033200001600068022700F00100009000984FF44F
:10333000C04001904FF0060820462946CDE90276AC
:103340000496CDF81480FEF7EDFC4FF40040CDE973
:1033500001070420CDE90366059020462946FEF7C3
:10336000E1FC4FF4E060CDE901074FF090402946C1
:10337000CDE90366CDF81480FEF7D4FC06B0BDE8B5
:10338000F081000070470000B0B5044690F83C00A2
:10339000012804BF0220B0BD0D464FEAB201012052
:1033A000052984F83C0048D8DFE801F0030B131B23
:1033B00023332068294601F0BDF9206850F8181F12
:1033C0001EE02068294601F0F7F9206850F8181F20
:1033D00026E02068294601F03FFA206850F81C1FBB
:1033E0000EE02068294601F087FA206850F81C1F7B
:1033F00016E02068294601F0CFFA206850F8501FE7
:1034000041F008010160016821F0040101602969AF
:103410000FE02068294601F0F1FA206850F8501FAB
:1034200041F400610160016821F480610160296953
:1034300009020268114301600020002184F83C1059
:10344000B0BD0000002804BF0120704710B504463D
:1034500090F83D0028B9002084F83C00204600F098
:1034600023F8022084F83D002068211D01F082F835
:10347000012084F8480084F83E0084F83F0084F876
:10348000400084F8410084F8420084F8430084F846
:10349000440084F8450084F8460084F8470084F826
:1034A0003D00002010BD0000704700007047000084
:1034B000B0B5044659B1081F4FEAB000032809D837
:1034C000DFE800F0020B0E1104F13F000DE004F103
:1034D0003E000AE004F1430007E004F1400004E08C
:1034E00004F1410001E004F14200007801281CBF12
:1034F0000120B0BD61B1081F4FEAB00003280BD80E
:10350000DFE800F0020E1216022084F83F0012E0FD
:10351000022084F83E000EE0022084F843000AE016
:10352000022084F8400006E0022084F8410002E016
:10353000022084F8420020680122012501F0BEF833
:103540002168A1F18040A0F596304FEAB02242F602
:10355000FF30072AC4F2010051D805FA02F212F036
:10356000E50F4CD04A6C814242F400424A640DDCC3
:1035700040F2FF70C4F20000814216DCB1F1804FCE
:103580002AD040F20040C4F2000023E043F6FF706E
:10359000C4F20100814213DC42F60040C4F2010093
:1035A000814219D043F2004012E040F60000C4F21C
:1035B0000000814210D040F60040C4F2000009E053
:1035C00045F20000C4F20100814205D044F200003F
:1035D000C4F20100814226D188680722C0F20102AC
:1035E0000240062A4FF0000022D0B2F5803F08BF0B
:1035F000B0BD086840F0010008600020B0BD814205
:10360000B6DD43F6FF72C4F201029142C4DD44F21A
:103610000002C4F201029142DED045F20002C4F27F
:10362000010291429ED0086840F00100086000202D
:10363000B0BD000080B5006840F60001C4F2000192
:10364000884208BFFEF752FC80BD000070470000B2
:1036500090F88410012904BF022070472421C0F88B
:10366000881002681168136823F00103136021F0C9
:1036700000530021416613602022C0F8882080F8A2
:103680008410084670470000B0B5044690F88400E6
:10369000012804BF0220B0BD012084F8840024204A
:1036A000C4F8880020680568026822F00102026000
:1036B000826822F0606211438160204601F0F4F9D3
:1036C000206805602020C4F88800002084F8840069
:1036D000B0BD0000B0B5044690F88400012804BFD6
:1036E0000220B0BD012084F884002420C4F88800A2
:1036F00020680568026822F001020260826822F0F8
:10370000604211438160204601F0CEF920680560D7
:103710002020C4F88800002084F88400B0BD000098
:1037200010B5D8B10446D0F8880028B9002084F834
:103730008400204600F026F82420C4F88800206881
:10374000A16A026822F00102026011B1204601F074
:10375000D5F9204601F0D4FA012801D1012010BD8D
:103760002068416821F490414160816821F02A017C
:103770008160016841F001010160204601F032FAE8
:1037800010BD0000B0B59CB00446002502A854212D
:103790001B95CDE91955CDE91755FCF70FFE2068AB
:1037A00043F60001C4F20101884201D01CB0B0BD53
:1037B0000120CDE9020502A8FEF7B6FC002818BFDB
:1037C000FDF7DCF941F24C00C4F20200416941F41A
:1037D00080414161416901F4804101910199016891
:1037E00041F002010160006817A900F00200019099
:1037F0000198C0201790022018900020CDE91900F0
:1038000007201B9040F20040C4F60000FEF78AFA41
:103810001CB0B0BD2DE9F04182B00446D0F888005C
:1038200020283FD10E4600294FF001004BD017460B
:10383000002A48D04FF0000821201D46C4F890808F
:10384000C4F88800FEF74CFBA4F85470A4F8567036
:10385000A1680746B1F5805F0FD12069002814BF29
:103860003046B046064608E016F8010B216888622B
:10387000B4F856000138A4F85600B4F85600A8B1C0
:103880002046802100223B46009501F0A7FBE8B9C5
:10389000002EE9D138F8020B21686FF35F208862AF
:1038A0000026E5E7022002B0BDE8F0812046402175
:1038B00000223B46009501F091FB2021C4F88810BE
:1038C000002818BF032002B0BDE8F0812020C4F812
:1038D0008800032002B0BDE8F0810000B0B540F2DE
:1038E000B824C2F200042046FFF718FB204600214E
:1038F000FFF7DEFD20460421FFF7DAFD2046082110
:10390000FFF7D6FD20460021FFF738FA20460421B4
:10391000FFF734FA20460821FFF730FA40F2E014AE
:10392000C2F2000420467F21FDF72EF940F24C251B
:10393000C2F2000528467F21FDF726F92046FDF753
:10394000EDFB2846FDF7EAFB2068416841F02001C5
:1039500041602868416841F020014160B0BD00002D
:1039600081684FF6C072C7F6FF7211400231816064
:103970007047000081684FF6C072C5F6FF721140B3
:103980008160704781684FF6C072C7F6FF721140C0
:10399000013181607047000081684FF6C072C6F641
:1039A000FF72114001F1805181607047806800F022
:1039B000E0707047806800F0E0707047806800F445
:1039C00060407047806800F01F007047806800F01A
:1039D0001F00704700EB8100006E00F0F840704758
:1039E00000EB8100006E00F0F8407047C06800F006
:1039F000007070478068C0F3C00070478068C0F3F3
:103A0000C0007047C06C00F4C070B0FA80F040098C
:103A10007047000081684FF6C072C7F6FF72114010
:103A200008318160704700008068C00F7047000057
:103A30008068C0F3407070478068C0F340007047F2
:103A4000806800F001007047806800F00100704756
:103A50008068C0F3007070478068C0F380007047D2
:103A60008068C0F380007047C06800F44060B0FA1E
:103A700080F0400970470000C1F3012300EB830090
:103A8000D0F830C001F01F011F238B40C2F38462C5
:103A90002CEA030302FA01F11943016370470000A5
:103AA000C1F3406300EB8300D0F814C0C1F30451AC
:103AB00007238B402CEA030302FA01F11943416109
:103AC00070470000C1F3406300EB8300D0F814C0DE
:103AD000C1F3045107238B402CEA030302FA01F1DE
:103AE0001943416170470000D0F8B0306FF3DF41F7
:103AF00023EA010C4FF6FF7302F01802C0F207032D
:103B000023FA02F2114041EA0C01C0F8B0107047EC
:103B1000D0F8B0306FF3DF4123EA010C4FF6FF73AA
:103B200002F01802C0F2070323FA02F2114041EA40
:103B30000C01C0F8B0107047826822F47C12114367
:103B400081607047826822F0E072114381607047A3
:103B5000826822F0E07211438160704700EB8100BF
:103B6000D0F860C04FF20001C0F2FF3102F0F8421D
:103B700001EA0C011A43114341F00041016670470C
:103B800000EB8100D0F860C04FF20001C0F2FF31BD
:103B900002F0F84201EA0C011A43114341F00041DE
:103BA0000166704700EB8100016E21F00071114346
:103BB0000166704700EB8100016E21F00071114336
:103BC0000166704700EB8100016E21F080711143A6
:103BD0000166704700EB8100016E21F08071114396
:103BE0000166704700EB8100016E21F00041016623
:103BF0007047000000EB8100016E21F0004101667A
:103C000070470000426922F0004211434161704751
:103C1000426922F0004211434161704782684FF6C9
:103C2000C073C3F6FF731A4001F08041114401F1E3
:103C30000041816070470000F0B59BB0002401A8EE
:103C40003C211A94CDE91844CDE91644CDE9144439
:103C5000CDE91244CDE91044FCF7B0FB40F2E0108E
:103C6000C2F200004FF0A0414FF44032012304277C
:103C700080E816004FF48071C0E90344C0E90537BD
:103C80008183036280F82440C0E90B4480F8384007
:103C9000C46380F84040FDF7ADFE002818BFFCF774
:103CA0006DFF40F2E010C2F2000018A91894FDF771
:103CB000C9FA002818BFFCF761FF06200225119001
:103CC00040F2E010C0F2304500247F260427C2F203
:103CD000000010A9109512941396CDE91474FDF705
:103CE00061FB002818BFFCF749FF09200290022061
:103CF00003A90195C1C10320099080200694ADF865
:103D000028408DF82A40CDE90B0040F2E010C2F2C5
:103D1000000001A98DF83440FCF77AFF002818BF95
:103D2000FCF72CFF0420C0F66000019040F20F1059
:103D3000029040F2E010C2F2000001A9FCF768FF17
:103D4000002818BFFCF71AFF0820C0F69040019029
:103D500040F21520029040F2E010C2F2000001A9EA
:103D6000FCF756FF002818BFFCF708FF1BB0F0BD9A
:103D700070B590B001A83C21FCF720FB40F24C202C
:103D800040F20011C2F20000C5F200014FF44032CF
:103D90000024042580E816004FF480710126C0E954
:103DA0000344C0E905458183066280F8244080F819
:103DB0003840C46380F84040FDF71CFE002818BF5F
:103DC000FCF7DCFE0020C4F2527001900920029042
:103DD000022003907F20CDE90405802006940996F7
:103DE000ADF828408DF82A40CDE90B0040F24C2078
:103DF000C2F2000001A98DF83440FCF709FF002849
:103E000018BFFCF7BBFE10B070BD000070B586B0E7
:103E1000002541F24C000595CDE90355CDE901554A
:103E2000C4F20200016840F6000441F004010160A0
:103E30000168C4F6000401F00401009100990168D2
:103E4000002241F02001016001684FF4C04601F0FA
:103E5000200100910099016841F0010101600168B1
:103E600001F0010100910099016841F00201016037
:103E700000684FF4C04100F0020000900098204616
:103E8000FEF728F801200196CDE9020501A9204698
:103E90000495FDF747FF06B070BD000010B59CB05B
:103EA000002401A83421CDE91A44CDE91844CDE914
:103EB0001644CDE91444CDE91244CDE91044CDE9CE
:103EC0000E44FCF77BFA40F2B82042F60041C2F201
:103ED0000000C4F2010120224FF0800CC0E9001460
:103EE00000F1080142F234131CC1C0E9054CFEF791
:103EF000C9FF002818BFFCF741FE4FF4805018900E
:103F000040F2B820C2F2000018A9FFF769F80028B3
:103F100018BFFCF733FE40F2B820C2F20000FFF7F2
:103F200091FA002818BFFCF729FE2020159040F2D6
:103F3000B8200024C2F2000015A9CDE91644FEF70E
:103F4000AFFE002818BFFCF719FE70200E9041F25A
:103F50009410CDE90F0440F2B820C2F200000EA97F
:103F60000022CDE91144CDE91344FFF70DFA0028F2
:103F700018BFFCF703FE40F2B820C2F200000EA901
:103F80000422FFF701FA002818BFFCF7F7FD40F202
:103F9000B820C2F200000EA90822FFF7F5F90028A8
:103FA00018BFFCF7EBFD4FF4006001904FF4806008
:103FB00002904FF4807003906420049000204FF42E
:103FC00000510590CDE906104FF00071CDE90800D1
:103FD000CDE90A100C904FF480400D9040F2B820CB
:103FE000C2F2000001A9FEF7E7FD002818BFFCF7A8
:103FF000C5FD40F2B820C2F20000FFF769F91CB01D
:1040000010BD000080B540F2503043F60001C2F20E
:104010000000C4F2010100234FF00C0C4FF4E13218
:1040200080E80E00C0E90333C0E905C3C0E90733E7
:10403000C0E90933FFF774FB002818BFFCF79EFDA9
:1040400040F25030C2F200000021FFF743FB00288D
:1040500018BFFCF793FD40F25030C2F2000000217F
:10406000FFF712FB002818BFFCF788FD40F2503024
:10407000C2F20000FFF7ECFA002818BFFCF77EFD43
:1040800080BD0000FEE70000FEE7000000F0070032
:1040900080F00703042B28BF04234FF0FF3C0338B4
:1040A0000CFA03F338BF0020994381400CFA00F06A
:1040B00022EA00000843704741F20C00C4F20200FB
:1040C0000168016842F20042C1F303110368013143
:1040D000C0F2F402B2FBF1F1C3F3062200685143CF
:1040E000C0F34160022202EB4000B1FBF0F07047E8
:1040F00090ED010A90ED021A90ED062A90ED053A36
:1041000020EE024A21EE035A40F2A40034EE454A62
:10411000C2F2000080ED004A20EE030A22EE011AEE
:1041200040F2A80031EE000AC2F2000080ED000A61
:1041300070470000F0B581B02DED048B84B040F2E3
:10414000780240F27C0E40F2800C40F29003C2F202
:1041500000020020C2F2000EC2F2000CC2F2000304
:104160001060CEF80000CCF80000187040F2A800F3
:10417000C2F2000040F2A405016840F2A004C2F2BD
:104180000005C2F2000495ED002A9FEDA13A2160DE
:104190009FEDA04A22EE030A01EE101A94ED006A88
:1041A00030EE411AB6EE000A22EE045A90ED004AB3
:1041B00021EE001AB5EE406AF1EE10FA35EE445ADF
:1041C000B5EE401AC4BF01201870F1EE10FA25EECA
:1041D000001A02DD187802301870B5EE401AF1EEC0
:1041E00010FA02DD1878043018709FED8B1A24EE57
:1041F000033A23EE013AB3EE045A83EE053A9FEDFB
:10420000876AB7EE085A1B7822EE055A24EE064A52
:104210009FED836A40F2840035EE042A40F2880163
:1042200034EE454A40F28C06013B40F2700540F204
:104230007404C2F2000022EE062AC2F2000124EE4B
:10424000064AC2F20006042BC2F20005C2F20004C4
:1042500080ED003A81ED002A86ED004A09D8DFE8BA
:1042600003F0030F13171E00086885ED004A206055
:104270001BE0B1EE422A85ED002AB1EE442A12E09D
:104280000868B1EE432A0DE00068B1EE442A02E06E
:104290003068B1EE432A85ED002A206005E0006811
:1042A000B1EE422A286084ED002A95ED003A94EDA3
:1042B000002A33EE024AB4EE414AF1EE10FA09DD6B
:1042C00083EE043A32EE034A82EE042A85ED003A88
:1042D00084ED002A95ED002A94ED003A40F2940016
:1042E00032EE034A31EE441AB5EE004A21EE041ACA
:1042F000C2F2000022EE002A80ED001A32EE011A0E
:1043000040F2980123EE000A40F29C04C2F2000140
:1043100030EE010AC2F20004052B81ED001A84ED93
:10432000000A3FD8DFE803F0030A1118232E0868BB
:1043300040F29C031060C2F200031EE0006840F2ED
:1043400098031060C2F2000322E0006840F29C0370
:104350001060C2F2000305E040F29403C2F20003D1
:1043600082ED000A40F29805C2F2000514E040F226
:104370009803C2F2000382ED000A40F29405C2F2F3
:10438000000509E0086840F29403C2F200031060DF
:1043900040F29C05C2F2000528681968CEF80000BA
:1043A000CCF8001092ED000A42F63440BCEEC01A80
:1043B000C4F2010080ED001A9EED008ABCEEC81A1E
:1043C00080ED011A9CED009ABCEEC91A80ED021A2C
:1043D00010EE100AFCF7D4F8044618EE100A0D4649
:1043E000FCF7CEF841EC180B19EE100AFCF7C8F8F0
:1043F00041EC100B0BA022462B468DED008B8DED72
:10440000020B03F02FFE04B0BDEC048B01B0F0BD35
:10441000D7B3DD3FD7B3DDBF00D00446D7B35D3F90
:104420000080D44325662C25662C25660A000000F2
:10443000B0B501380024B4EB106F1CBF0120B0BD33
:104440004EF21005CEF2000568604FF0FF300F21EC
:1044500000F040FE0720AC6028602046B0BD0000A0
:1044600080B502F0EDFB03F0EFF902F0F7FB80BD41
:1044700070B594B006AC20463821FBF79FFF0025AD
:1044800000200595CDE90355CDE90155FDF7D0FD97
:10449000012006904FF4803004210790022003266B
:1044A0000F9155210D900E96CDE91010CDE9120017
:1044B0002046FEF737F968B90F20CDE9010601A8BB
:1044C0000421CDE903550595FDF7A8FF002804BF99
:1044D00014B070BDFCF752FB41F20C00C4F20200B4
:1044E00050F8041C42F2004201F00C0340F20401B7
:1044F000C0F2F402042BC2F2000118BF082B0ED147
:104500000A6050F8040C48F65612C0F30310C0F6C7
:104510000002105C0A6822FA00F0086070470C2B59
:10452000EFD103680368C3F3031303F1010C0368BD
:10453000B2FBFCFCC3F30623026803FB0CFCC2F3D2
:104540004162022303EB4202BCFBF2F2D8E7000017
:104550004EF68850CEF20000016841F4700101600F
:104560007047000080B540F20430C2F20000FEF750
:10457000D1FD80BD80B540F6FF330268C4F2000370
:1045800043F2FF3C9842C4F2010C0ADD60452EDC88
:1045900040F60043C4F20003984234D042F6004390
:1045A0002DE0B0F1804F2ED040F20043C4F2000362
:1045B000984228D040F60003C4F20003984222D06B
:1045C000604526DC40F2FF73C4F20003984235DDFB
:1045D00040F60003C4F20003984243D040F6004383
:1045E000C4F2000398423DD042F6004336E045F263
:1045F0000003C4F20103984205D043F20043C4F221
:1046000001039842DCD14B6822F070021A436045E6
:10461000D8DD44F2FF33C4F20103984216DD44F2C0
:104620000043C4F2010398421CD045F20003C4F2D7
:104630000103984216D044F600030FE0B0F1804F1A
:1046400010D040F20043C4F2000309E043F20043FB
:10465000C4F20103984205D044F20003C4F20103FE
:10466000984203D1CB6822F440721A434B6922F07E
:10467000800E8A6843EA0E03D1F800C00360C2626C
:10468000A0F18042A2F596324FEAB222092AC0F880
:1046900028C008D8012303FA02F240F2E5231A42A7
:1046A0001CBF09690163012141610169C90708BF94
:1046B00080BD016921F00101016180BD80B501F07B
:1046C0001F014FF0010CD0F820E00CFA01F32EEAA4
:1046D00003030362036A02FA01F11943016280BD18
:1046E00080B501F00F014FF0040CD0F820E00CFA77
:1046F00001F32EEA03030362036A02FA01F119438C
:10470000016280BDD0F808C011432CF47F4C41EA0F
:10471000032141EA0C0181607047000082684FF676
:104720008873CFF6CF731A40114341F007018160BF
:1047300070470000B0B5046A036A4FF68C7223F02C
:1047400001030362D0F804E08369CFF6FE721A40D9
:104750000B688D6842EA030CA0F18042A2F5963204
:1047600024F002034FEAB222092A43EA05030BD8D8
:104770000124944040F2E5252C421FBFCC6823F071
:104780000C0324F004042343092A0DD8012404FA5D
:1047900002F240F2E52422421FBF2EF44072D1E91A
:1047A00005542A4342EA040EC0F804E0C0F818C0D9
:1047B000496841630362B0BDB0B5046A036A48F654
:1047C000FF4223F010030362D0F804E08369CFF6C0
:1047D000FF621A400B688D6842EA032C42F60043E0
:1047E00024F02002C4F20103984242EA05130BD0E0
:1047F00045F20002C4F20102904205D043F20042A9
:10480000C4F20102904207D123F0C002CB686FF0DE
:10481000400404EA03131343A0F18042A2F5963248
:104820004FEAB222092A0ED8012404FA02F240F219
:10483000E52422421FBF2EF44062D1E9055442EA2A
:10484000850242EA840EC0F804E0C0F818C0496846
:1048500081630362B0BD0000B0B5046A036A4FF61D
:104860008C7223F480730362D0F804E0C369CFF63E
:10487000FE721A400B688D6842EA030C42F6004350
:1048800024F40072C4F20103984242EA05230BD0DB
:1048900045F20002C4F20102904205D043F2004208
:1048A000C4F20102904207D1CA6840F2FF441202EA
:1048B00023F44063A2431343A0F18042A2F5963251
:1048C0004FEAB222092A0ED8012404FA02F240F279
:1048D000E52422421FBF2EF44052D1E9055442EA9A
:1048E000051242EA041EC0F804E0C0F81CC0496882
:1048F000C1630362B0BD0000B0B5046A036A48F644
:10490000FF4223F480530362D0F804E0C369CFF67A
:10491000FF621A400B688D6842EA032C42F600439E
:1049200024F40052C4F20103984242EA05330BD04A
:1049300045F20002C4F20102904205D043F2004267
:10494000C4F20102904207D1CA6844F6FF74120310
:1049500023F44043A2431343A0F18042A2F59632D0
:104960004FEAB222092A0ED8012404FA02F240F2D8
:10497000E52422421FBF2EF44042D1E9055442EA09
:10498000851242EA841EC0F804E0C0F81CC04968E1
:1049900001640362B0BD0000B0B5D0F820E0026A47
:1049A00022F4803202624468036D4FF68F72CFF6B4
:1049B000FE721A400B688D6842EA030CA0F1804336
:1049C000A3F596332EF400324FEAB323092B42EAC3
:1049D000054E0AD801229A4040F2E5231A421EBF32
:1049E0004A6924F4803343EA02244460C0F850C08A
:1049F00049688164C0F820E0B0BD0000B0B5D0F8CF
:104A000020E0026A22F4801202624468036D48F6D4
:104A1000FF72CFF6FF621A400B688D6842EA032CE2
:104A2000A0F18043A3F596332EF400124FEAB3238E
:104A3000092B42EA055E0AD801229A4040F2E5239A
:104A40001A421EBF4A6924F4802343EA8224446048
:104A5000C0F850C04968C164C0F820E0B0BD000093
:104A6000D0F820C0036A23F001030362836923F0B6
:104A7000F00343EA02122CF00A0319438261016237
:104A800070470000D0F820C0036A23F010030362CF
:104A9000836923F4704343EA02322CF0A00343EA13
:104AA000011182610162704780B5416E01B30168F6
:104AB00048F6862C8A68C0F6000CC2F34262896808
:104AC00048F68E2E490F1CF80130C0F6000E1EF875
:104AD0000110DB00B3FBF1F31CF802101EF80220FA
:104AE000C900B1FBF2F1A0F86A30A0F8681080BDEF
:104AF0000121A0F86A10A0F8681080BD80B5816A15
:104B00000A070CD4CA0715D18A071ED44A0727D42E
:104B1000CA0630D48A0639D44A0657D541E002681D
:104B2000D0F838C0536823F4004343EA0C035360C1
:104B3000CA07E9D00268D0F82CC0536823F40033C8
:104B400043EA0C0353608A07E0D50268D0F830C00E
:104B5000536823F4803343EA0C0353604A07D7D5E4
:104B60000268D0F834C0536823F4802343EA0C036E
:104B70005360CA06CED50268D0F83CC0936823F4CF
:104B8000805343EA0C0393608A06C5D50268D0F8C7
:104B900040C0936823F4005343EA0C0393604A0631
:104BA00014D50268D0F844C05368BCF5801F23F4C4
:104BB000801343EA0C03536008D1D2F804C0D0F844
:104BC00048E02CF4C00343EA0E035360090658BFC3
:104BD00080BD0168C06C4A6822F40022104348601E
:104BE00080BD0000B0B582B004460020C4F890003B
:104BF000FDF776F921680546096809071BD56FF0AE
:104C00007E4C20464FF4001100222B46CDF800C008
:104C100000F0E4F978B100BF206850E8000F216887
:104C200020F0800041E80002002AF5D12020C4F8DD
:104C30008800032031E020680068400725D56FF028
:104C40007E4C20464FF4800100222B46CDF800C058
:104C500000F0C4F9C8B100BF206850E8000F216817
:104C600020F4907041E80002002AF5D1206850E855
:104C7000020F216820F0010041E80202002AF5D16C
:104C80002020C4F88C00032007E02020C4F888000E
:104C9000C4F88C000020E0662067002184F88410AE
:104CA00002B0B0BD016851E8001F026821F49071A4
:104CB00042E80013002BF5D14FF6FE7CCEF6FF7CC8
:104CC000026852E8022F036802EA0C0243E802215C
:104CD0000029F5D1C16E01290AD100BF016851E850
:104CE000001F026821F0100142E80013002BF5D1EB
:104CF0002021C0F88C100021C16641677047000078
:104D0000F0B581B004462269D4E9021300686769EE
:104D10000A43E1693A43076846F6F316CCF6FF7694
:104D20000A4337403A43026042684FF2FF4622F49A
:104D300040521A43426048F20002A369C4F20002E2
:104D400090421CBF276A3B438768C1F2FF16374079
:104D50003B438360C36A676A23F00F033B43C3622C
:104D600044F6FF73C4F2000398424FF0100318DCBE
:104D700044F20047C4F20007B84227D044F60007C7
:104D8000C4F20007B84228D044F60047C4F2000736
:104D9000B8423BD141F28803C4F202031B689B096D
:104DA0002FE045F20007C4F20007B8421CD0904241
:104DB00021D043F60007C4F20107B84226D141F2E0
:104DC0008803C4F202031B6880A71BE041F288033A
:104DD000C4F202031B689B0813E041F28803C4F28B
:104DE00002031B681B090CE041F28803C4F20203B2
:104DF0001B681B0A05E041F28803C4F202031B682A
:104E00009B0A6EA703F0030357F82330904242F247
:104E10000040C0F2F40011D0B1F5004F1DD1082BB5
:104E200000F26F800025DFE803F00568766C6F6C98
:104E30006C6C73000025FDF71BFC6CE0082B1BD885
:104E40000027DFE803F0051920191D191919510071
:104E50000027FDF70DFCB8B94BE0082B00F281806C
:104E60000025DFE803F0057A887E817E7E7E85005E
:104E70000025FDF7FDFB7EE00020012720B938E08A
:104E80000027FDF71DFCA0B3616A48F66E12C0F65C
:104E9000000232F811206668B0FBF2F106EB46031F
:104EA00099424FF00105C0F08080330399427CD8CD
:104EB00000210023FBF74AFA090241EA10610002CF
:104EC00010EB560041F1000132460023FBF73EFA99
:104ED0004FF6FF42A0F54071C0F20F0291420AD88E
:104EE00021683D46C86060E04FF40040002700287C
:104EF000CAD13D4659E0012557E00025FDF7CCFB1E
:104F000009E00020012506E00025FDF7D9FB02E0BD
:104F10004FF400400025002847D0616A48F66E1221
:104F2000C0F6000232F811106268B0FBF1F05108CF
:104F300001EB4000B0FBF2F04FF6EF72A0F1100170
:104F4000914208D84FF6F0710140C0F34200226848
:104F50000844D06029E0012527E00025FDF79CFBEF
:104F600009E00020012506E00025FDF7A9FB02E08D
:104F70004FF400400025C0B1616A48F66E12C0F6D9
:104F8000000232F811106268B0FBF1F000EB520041
:104F9000B0FBF2F04FF6EF72A0F11001914203D88E
:104FA000216880B2C86000E001254FF001100021A7
:104FB000A06661672846A16701B0F0BD000000004F
:104FC00004000000020000000800000001000000D2
:104FD0000400000002000000080000002DE9F0437A
:104FE00081B004460068C0690840401AB0FA80F0F9
:104FF000400990423DD1DDF8208015460E46994685
:1050000008F1010709E000BF2068C0693040801B3B
:10501000B0FA80F04009A8422FD1002FF4D0FCF75D
:105020005FFF0146B8F1000F4FF0030026D0A1EB5F
:105030000901414522D8206801684907E4D5402E7E
:10504000E2D0802EE0D0C16909071AD4C1690905F0
:10505000DAD54FF4006101622046FFF723FE2020DD
:10506000C4F89000002084F88400032001B0BDE85B
:10507000F083002001B0BDE8F083002001B0BDE85E
:10508000F083082505622046FFF70CFE0020C4F8D7
:10509000905084F88400012001B0BDE8F083000046
:1050A000FEE70000002848BF704700F01F01012202
:1050B00002FA01F14EF200124009CEF2000242F86B
:1050C000201070474EF60C50CEF200000068C0F37E
:1050D000022070474EF6145300F00F02CEF2000388
:1050E00009011A4400F16043B0F1FF3FC8BF03F566
:1050F00064421170704700004EF60C51CEF2000170
:105100000A684FF6FF031A4060F30A2242F08060FB
:1051100040F0FD7008607047002804BF0020704711
:10512000C1B209B101200CE010F47F4102D0090A9C
:10513000092006E010F47F0107BF010E1920090CB9
:10514000112048F68612C0F60002515C08447047F0
:1051500080B501F0D7FB80BD80B501F0E1FB80BDDB
:1051600080B5143001F0A8FD80BD00002DE9F041AC
:1051700088B090460D460646002102E08D421FD0C1
:105180000131705C092818BF2028F7D1D9B1304609
:1051900001F040F9B8B16C460746204600212022B4
:1051A00001F076FE30462946224601F097F950B1CB
:1051B0006946B847C8F80000002008B0BDE8F08193
:1051C00029460029E3D14FF0FF3008B0BDE8F08157
:1051D00010B544F22021C2F20001096804460846D5
:1051E000FFF79AFF411E44F22010C2F2000050F86F
:1051F00031002160143810BDB0B502F0A1FA0446A8
:10520000FBF706F80546204601F0B2FF04F1440022
:1052100002F0C4FB042084F83400204602F016FAA1
:105220002846FAF7F9FF01F0EFFEB0BD2DE9F0478F
:1052300082B00446DDF83090DDE90A8A14301D465C
:1052400016460F4601F040FD284623214246C4E998
:105250000876C4E90A5801F01BFE04F120030FCBC5
:105260001A4445F2F913043AC0F6000301F0C6FCF3
:1052700045F2A922E061002704F14400C0F60002D3
:105280002146234684F835A0C4E90E79C4F840903D
:10529000276384F83470C4E91C770097019702F003
:1052A00091FB02B0BDE8F087B0B50446FAF7B0FF55
:1052B00005466FF00100206304F1140001F062FD67
:1052C000204601F01FFF2846FAF7A6FF01F09CFEDA
:1052D000B0BD000080B5DDF808C000F11C0E0CF078
:1052E000FE0C80F809C014304FF0000C8EE80E1050
:1052F00001F0EEFC80BD000080B5143001F04AFDE5
:1053000080BD00009FED221A9FED222A20EE010AA7
:10531000B5EE001A30EE010ABDEEC01A11EE100A09
:10532000B5EE400AF1EE10FAB8BF013801EE100AEE
:10533000B8EEC11A30EE410A20EE020ABDEEC01AE4
:105340009FED152A11EE100A002130EE021AB1EB82
:10535000502F48F694311CBF0020B0EE410AC0F631
:10536000000101EE100A01EB8001B8EE411A30EEA7
:10537000410A91ED001A91ED012AB7EE003A33EEA1
:10538000403A23EE011A20EE020A31EE000A70477D
:1053900083F9223E00000044000000C49FED201A63
:1053A0009FED202A20EE010ABDEEC01A11EE100A70
:1053B000B5EE400AF1EE10FAB8BF013801EE100A5E
:1053C000B8EEC11A30EE410A20EE020ABDEEC01A54
:1053D0009FED152A11EE100A002130EE021AB1EBF2
:1053E000502F48F694311CBF0020B0EE410AC0F6A1
:1053F000000101EE100A01EB8001B8EE411A30EE17
:10540000410A91ED001A91ED012AB7EE003A33EE10
:10541000403A23EE011A20EE020A31EE000A7047EC
:1054200083F9223E00000044000000C410B54EF68F
:1054300029541CA0CEF2000401F01EFC21781CA00F
:1054400001F01AFC2078C00702D01FA001F014FC64
:105450002078800702D51FA001F00EFC20784007BD
:1054600002D51FA001F008FC2078000702D520A07B
:1054700001F002FC2078C00602D520A001F0FCFB60
:1054800094F90000B0F1FF3F06DD49F24040C0F65C
:10549000000001F0F1FB10BDD4F80F1019A001F0CD
:1054A000EBFB10BD627573206661756C743A0A007F
:1054B0005343425F434653525F424653523A307819
:1054C00025303258200000004942555345525220A1
:1054D00000000000505245434953455252200000FD
:1054E000494D505245434953455252200000000057
:1054F000554E53544B4552522000000053544B45D7
:10550000525220005343422D3E424641523A2530EA
:1055100038580A0080B502A001F0AEFB002080BD23
:105520001B5B324A1B5B480010B502281DD14C683A
:1055300049F27741C0F600012046FAF75DFF58B303
:1055400049F29941C0F600012046FAF755FF38B3F9
:1055500019A12046FAF750FF30B349F28741C0F64F
:1055600000012046FAF748FF10B349F29830C0F620
:10557000000001F081FB11A001F07EFB12A001F000
:105580007BFB18A001F078FB1DA001F075FB23A0A8
:1055900001F072FB002010BD00F0B2FC002010BD35
:1055A00000F072FD002010BD00F012FC002010BDC4
:1055B00000F076FB002010BD73656D005B6F7074AA
:1055C000696F6E735D3A0A0020202020746872654E
:1055D0006164202D206C6973742074687265616445
:1055E000730A00002020202074696D6572202D2030
:1055F0006C6973742074696D6572730A0000000031
:105600002020202073656D202D206C697374207319
:10561000656D6170686F7265730A0000202020203C
:105620006D73677175657565202D206C69737420C5
:105630006D657373616765207175657565730A00C3
:10564000036802460A290CD14CF6CD40CCF6CC407A
:10565000A3FB0001C90801EB8100A3EB400011602E
:10566000704703F00F0019091160704710B544F23C
:105670003030C2F20000006890F82100800706D4A4
:1056800040F25810C2F20000002101701DE040F20B
:10569000DC10C2F20000016840F25814C2F20004AB
:1056A00039B140F25810C2F200008022FAF791FEA0
:1056B00006E00020207147F26D30C2F268002060E1
:1056C0002046FAF792FE3E21215240F25810C2F2D3
:1056D000000010BD80B501F07FF980BD44F230318B
:1056E000C2F20001096800F0010091F8212002F0E7
:1056F000FD0242EA400081F82100704740F240126A
:10570000C2F20002106040F24410C2F200000160D8
:1057100070470000B0B582B049F2D85049F2386104
:10572000C0F60000C0F60001FFF7E8FF0120782175
:1057300001F088F844F23035C2F200052860F8B173
:105740000A201521CDE9001045F2B97110A0C0F66C
:10575000000100224FF48063002401F039FF2A6821
:1057600005460DA110460022002301F023FD012073
:10577000FFF7B4FF4DB1284602F00CF8002404E016
:1057800007A001F079FA4FF0FF34204602B0B0BD17
:10579000747368656C6C00007368727800000000B8
:1057A0006E6F206D656D6F727920666F7220736801
:1057B000656C6C0A0000000044F23039C2F2000946
:1057C000D9F8000090F8211041F0010180F8211073
:1057D000FFF74CFF40F25814C2F20004204601F0DB
:1057E0004BFA49F29F4649F240474FF001084FF00B
:1057F000000AC0F60006C0F600074FF0020B01E0F9
:1058000080F82080FFF766FF0028FBD40546D9F812
:1058100000001B2DF4D090F82010022908D0012997
:1058200040F071805B2D40F06C8080F820B0E9E79B
:10583000A5F14101022980F820A0E3D3442D00F214
:105840008D80DFE815F04500D000D000D000D000FA
:10585000D000D000D00090000C016C00D000D0002F
:105860006C00D000D000D000D000D000D000D0001C
:10587000D000D000D000D000D000D000D000D000A8
:10588000D000D000D000D000D000D000D000D00098
:10589000D000D000D000D000D000D000D000D00088
:1058A000D000D000D000D000D000D000D000D00078
:1058B000D000D000D000D000D000D000D000D00068
:1058C000D000D000D000D000D000D0004600580159
:1058D00098E7B0F87610B0F874209142BFF492AF18
:1058E000084490F8221049F2A140C0F6000001F0EF
:1058F000C3F9D9F80000B0F876100131A0F876109D
:1059000080E780F820A00D2D28D8DFE805F0076C8F
:105910006C6C6C6C6C6C2CA8086C6C0872E790F862
:105920002100C00702D0384601F0A6F9D9F80000DE
:10593000B0F87410223000F039FDFFF797FE2046D2
:1059400001F09AF9D9F8000000212230512201F02B
:105950009FFAD9F80000C0F874A053E7FF2D3FF478
:1059600051AF7F2D3FD1B0F8761000293FF44AAFF8
:10597000B0F874200139531E9AB2A0F874308BB27B
:105980009A42A0F8761040F2AB80C11801F12200D3
:105990002331D21A01F05EFAD9F80000B0F8741081
:1059A000084480F822A0D9F80000B0F87610084426
:1059B00000F1220159A001F05FF9D9F80010B1F807
:1059C0007600B1F8741088423FF61CAF451E00BF48
:1059D000304601F051F9D9F800000135B0F87400F3
:1059E0008542F5D30EE7B0F87410502928BFA0F80F
:1059F00074A0B0F87630B0F874209A424ED9C1182D
:105A000001F123002231D21A01F024FAD9F8000062
:105A1000B0F87610084480F82250D9F8000090F8C9
:105A20002110C90707D0B0F87610084400F1220110
:105A30003CA001F021F9D9F80000B0F87650B0F898
:105A4000740085423AD200BF304601F015F9D9F80A
:105A500000000135B0F874008542F5D32EE0D9F886
:105A60000000B0F8761059B1002500BF304601F0B3
:105A700003F9D9F800000135B0F876108D42F5D35E
:105A8000223002F0F1F9D9F8005005F12200FAF7BE
:105A9000ACFCA5F87400A5F87600B3E6104480F8D5
:105AA0002250D9F8000090F82100C00706D049F232
:105AB000A140C0F60000294601F0DEF8D9F8000048
:105AC000B0F87410B0F876200131A0F8741089B2E3
:105AD00001325029A0F8762028BFC0F874A091E6C2
